:020000040800F2
:100000000050002045350008510A0008570A000832
:100010005D0A0008630A0008690A00080000000081
:100020000000000000000000000000006F0A00084F
:100030007B0A000800000000870A0008930A0008F5
:100040008D3500088D3500088D3500088D35000888
:100050008D3500088D3500088D3500088D35000878
:100060008D3500088D3500088D3500088D35000868
:100070008D3500088D3500088D3500088D35000858
:10008000A10A0008B50A00088D3500088D35000862
:10009000C90A0008DD0A00088D3500088D35000802
:1000A0008D3500088D3500088D3500088D35000828
:1000B0008D3500088D3500088D3500088D35000818
:1000C0008D3500088D3500088D3500088D35000808
:1000D0008D3500088D350008F10A00088D350008BF
:1000E0008D3500088D3500088D35000800000000B2
:1000F0000000000000000000000000000000000000
:0C01000000000000000000005FF808F1A3
:10010C0010B5054C237833B9044B13B10448AFF345
:10011C0000800123237010BD10000020000000009F
:10012C00E835000808B5034B1BB103490348AFF38E
:10013C00008008BD0000000014000020E835000815
:10014C0080B584B000AFC7F804C00A4B01221A7006
:10015C00094A07F1080392E8030083E8030007F15A
:10016C00080164230822054801F089FE00BF1037FE
:10017C00BD4680BD2C000020003600088C000020FD
:10018C0080B5D0B000AF07F5A473C7F8283100F0E4
:10019C00EBFC00F083FA00F0CBFA00F0F7FA00F079
:1001AC0045FB02F0C9FC00F017FB0023C7F83831FF
:1001BC000023C7F834310123C7F820310023C7F8D6
:1001CC0014310123C7F810310023C7F80031002384
:1001DC00C7F804310023C7F808310023C7F80C31E5
:1001EC000023C7F818310123C7F81C3107F58073B9
:1001FC001946C04802F041FEBE4802F007FF10212C
:10020C00BC4802F047FFBC4A07F1E00392E8030048
:10021C0083E803000023C7F8E8300023C7F8F43064
:10022C000023C7F8F0300823C7F8F8300023FB6729
:10023C0007F1800360220021184603F0C7F907F587
:10024C00A073A3F594734FF4C8521A600433602260
:10025C000021184603F0BAF907F5A073A3F59A73B9
:10026C00A64A07CA03C31A8007F5A073A3F5A073A7
:10027C00A34A07CA03C31A80A24B1B78012B57D180
:10028C0007F594739C4600F087F9002387F83F31FB
:10029C0037E097F83F319C4A32F813301B0A9AB278
:1002AC0097F83F319B00D1B2984AD15497F83F311F
:1002BC00954A32F8132097F83F319B000133D1B2A5
:1002CC00924AD15497F83F31914A32F813301B0AB5
:1002DC009AB297F83F319B000233D1B28B4AD1547A
:1002EC0097F83F318A4A32F8132097F83F319B0038
:1002FC000333D1B2854AD15497F83F31013387F893
:10030C003F3197F83F31002BC3D007F1180302336C
:10031C007E491A460B4603CB1060516007F1180159
:10032C0064230A227B4801F0AAFD052000F07EFC24
:10033C0007F17C0164230A22764801F02BFE034668
:10034C00002B40F0D48097F87C309BB21B029AB201
:10035C0097F87D309BB21343A7F83231B7F832319E
:10036C00092B31D197F87E30042B2ED801A252F8EC
:10037C0023F000BF95030008A7030008B903000889
:10038C00C1030008C9030008634B00221A7007F56B
:10039C0094739C4600F0C4F817E05F4B01221A706E
:1003AC0007F594739C46FFF7CBFE0EE05B4B0122E6
:1003BC001A700AE0534B01221A7006E007F5947389
:1003CC009C4600F0CDF800E000BF544B1B78012B8D
:1003DC002CD197F87E30022B25D107F594739C46CF
:1003EC00FFF7AEFE97F87F301B021AB297F88030F9
:1003FC001BB213431BB2A7F8303197F881301B02A4
:10040C001AB297F882301BB213431BB2A7F82E31E5
:10041C00B7F82E21B7F8303107F594718C46114698
:10042C00184600F0F1F83D4B00221A70354B1B7842
:10043C00012B7FF421AF07F594739C4600F0ACF8C8
:10044C00002387F83E3137E097F83E312E4A32F8D8
:10045C0013301B0A9AB297F83E319B00D1B22B4A4B
:10046C00D15497F83E31284A32F8132097F83E3190
:10047C009B000133D1B2254AD15497F83E31244A1E
:10048C0032F813301B0A9AB297F83E319B000233B4
:10049C00D1B21E4AD15497F83E311D4A32F813207E
:1004AC0097F83E319B000333D1B2184AD15497F8D8
:1004BC003E31013387F83E3197F83E31002BC3D0E3
:1004CC0007F11803023311491A460B4603CB10608F
:1004DC00516007F1180164230A220E4801F0CFFC89
:1004EC00084B00221A700A2000F0A0FBC4E600BFE3
:1004FC00C2E600BF60010020083600081036000874
:10050C001C360008000000203000002038000020BD
:10051C0034000020440000202C000020400000206B
:10052C0080B584B000AFC7F804C00A4B00221A7023
:10053C00094A07F1080392E8030083E8030007F176
:10054C00080164230822054801F099FC00BF10370C
:10055C00BD4680BD2C000020283600088C000020F1
:10056C0080B584B000AFC7F804C0094A07F108038E
:10057C0092E8030083E8030007F1080164230822D2
:10058C00044801F07CFC00BF1037BD4680BD00BFA5
:10059C00303600088C00002080B586B000AFC7F85C
:1005AC0004C0164A07F1100392E8030083E8030025
:1005BC0007F1100164230822114801F060FC07F1D7
:1005CC000801642308220E4801F0E4FC0346002BCA
:1005DC000FD13B7AFF2B0CD17B7AFF2B09D17B7B84
:1005EC001AB2BB7B1B021BB213431BB29AB2054B54
:1005FC001A8000BF1837BD4680BD00BF38360008D2
:10060C008C0000203000002090B58BB000AF03466A
:10061C000A46FB801346BB80C7F800C01D4B07F190
:10062C0010040FCB07C42370FB88DBB2BB75FB88AF
:10063C001B0A9BB2DBB2FB7500233B7600237B7657
:10064C006423BB760023FB76002387F82730022334
:10065C003B620CE007F110023B6A13441A7897F8DE
:10066C002730134487F827303B6A01333B623B6ADF
:10067C000B2BEFDD97F82730DB43DBB23B7707F131
:10068C00100164230D22044801F0F9FB00BF2C3744
:10069C00BD4690BD403600088C00002080B590B05F
:1006AC0000AF07F1180328220021184602F08EFF34
:1006BC003B1D00221A605A609A60DA601A610123AD
:1006CC00BB614FF48033FB6100233B620123BB62AF
:1006DC0002237B634FF48033BB634FF4E013FB6363
:1006EC0007F11803184600F0C5FA0346002B01D099
:1006FC0000F019F80F237B600223BB600023FB6022
:10070C004FF480633B6100237B613B1D0221184643
:10071C0000F032FD0346002B01D000F004F800BFBE
:10072C004037BD4680BD80B400AF72B600BFFEE757
:10073C0080B485B000AF144B9B69134A43F020037F
:10074C009361114B9B6903F02003FB60FB680E4B1C
:10075C009B690D4A43F0040393610B4B9B6903F0B7
:10076C000403BB60BB68084B9B69074A43F0080352
:10077C009361054B9B6903F008037B607B6800BFAA
:10078C001437BD4680BC70470010024080B582B063
:10079C0000AF104B5B690F4A43F0010353610D4BE3
:1007AC005B6903F001037B607B6800220021102051
:1007BC0001F0DFFA102001F0F8FA002200211120DC
:1007CC0001F0D7FA112001F0F0FA00BF0837BD464E
:1007DC0080BD00BF0010024080B500AF114B124A23
:1007EC001A60104B4FF4E1325A600E4B00229A60A3
:1007FC000C4B0022DA600B4B00221A61094B0C22C5
:10080C005A61084B00229A61064B0022DA610548B6
:10081C0001F0E5FA0346002B01D0FFF784FF00BF7F
:10082C0080BD00BF440000200038014080B500AFFF
:10083C00114B124A1A60104B4FF4E1325A600E4BB6
:10084C0000229A600C4B0022DA600B4B00221A61DA
:10085C00094B0C225A61084B00229A61064B00226C
:10086C00DA61054801F0BBFA0346002B01D0FFF713
:10087C005AFF00BF80BD00BF8C0000200044004028
:10088C0080B58AB000AF786007F1180300221A60B7
:10089C005A609A60DA607B681B68624A934232D174
:1008AC00614B9B69604A43F4804393615E4B9B6947
:1008BC0003F480437B617B695B4B9B695A4A43F031
:1008CC0004039361584B9B6903F004033B613B6940
:1008DC004FF40073BB610223FB6103237B6207F1BE
:1008EC0018031946514800F0D5FD4FF48063BB61E5
:1008FC000023FB6100233B6207F1180319464B48A8
:10090C0000F0C8FD89E07B681B68494A934240F0BF
:10091C008480454BDB69444A43F40033D361424B3A
:10092C00DB6903F40033FB60FB683F4B9B693E4A79
:10093C0043F0040393613C4B9B6903F00403BB60DD
:10094C00BB680423BB610223FB6103237B6207F1B9
:10095C0018031946354800F09DFD0823BB610023A0
:10096C00FB6100233B6207F1180319462F4800F086
:10097C0091FD304B304A1A602E4B00225A602D4BA1
:10098C0000229A602B4B8022DA602A4B00221A61DB
:10099C00284B00225A61274B00229A61254B0022DA
:1009AC00DA61244800F0FAFE0346002B01D0FFF771
:1009BC00BAFE7B681F4ADA631E4A7B6853621F4B80
:1009CC001F4A1A601D4B10225A601C4B00229A6061
:1009DC001A4B8022DA60194B00221A61174B002245
:1009EC005A61164B00229A61144B0022DA611348AB
:1009FC0000F0D4FE0346002B01D0FFF794FE7B6879
:100A0C000E4A9A630D4A7B6853620022002126200D
:100A1C0001F0AFF9262001F0C8F900BF2837BD4618
:100A2C0080BD00BF003801400010024000080140AA
:100A3C0000440040D40000206C000240180100204B
:100A4C008000024080B400AFFEE780B400AFFEE748
:100A5C0080B400AFFEE780B400AFFEE780B400AF17
:100A6C00FEE780B400AF00BFBD4680BC704780B4C9
:100A7C0000AF00BFBD4680BC704780B400AF00BF64
:100A8C00BD4680BC704780B500AF00F0B3F800BF26
:100A9C0080BD000080B500AF024800F08DFF00BFA4
:100AAC0080BD00BFD400002080B500AF024800F02C
:100ABC0083FF00BF80BD00BF1801002080B500AFD0
:100ACC00024802F00CFB00BF80BD00BF600100209B
:100ADC0080B500AF024802F002FB00BF80BD00BF32
:100AEC006001002080B500AF024801F0EBFA00BFB6
:100AFC0080BD00BF8C00002080B485B000AF154BCA
:100B0C009B69144A43F001039361124B9B6903F0F8
:100B1C000103BB60BB680F4BDB690E4A43F080538B
:100B2C00D3610C4BDB6903F080537B607B680A4B11
:100B3C005B68FB60FB6823F0E063FB60FB6843F0E1
:100B4C000073FB60044AFB68536000BF1437BD465A
:100B5C0080BC7047001002400000014080B400AF20
:100B6C0000BFBD4680BC704780B500AF084B1B680A
:100B7C00074A43F010031360032001F0EFF80F2035
:100B8C0000F008F8FFF7B8FF0023184680BD00BF3F
:100B9C000020024080B582B000AF7860124B1A681A
:100BAC00124B1B7819464FF47A73B3FBF1F3B2FB7B
:100BBC00F3F3184601F007F90346002B01D001238B
:100BCC000EE07B680F2B0AD8002279684FF0FF30BB
:100BDC0001F0CFF8064A7B681360002300E0012384
:100BEC0018460837BD4680BD040000200C000020CC
:100BFC000800002080B400AF054B1B781A46054B4B
:100C0C001B681344034A136000BFBD4680BC704789
:100C1C000C0000205C01002080B400AF024B1B686C
:100C2C001846BD4680BC70475C01002080B584B07E
:100C3C0000AF7860FFF7F0FFB8607B68FB60FB6883
:100C4C00B3F1FF3F05D00A4B1B781A46FB681344DF
:100C5C00FB6000BFFFF7E0FF0246BB68D31AFA68DF
:100C6C009A42F7D800BF00BF1037BD4680BD00BF09
:100C7C000C00002080B586B000AF78607B68002B3C
:100C8C0001D1012372E27B681B6803F00103002B86
:100C9C0000F08780924B5B6803F00C03042B0CD0A4
:100CAC008F4B5B6803F00C03082B12D18C4B5B68E9
:100CBC0003F48033B3F5803F0BD1894B1B6803F4ED
:100CCC000033002B6CD07B685B68002B68D1012350
:100CDC004CE27B685B68B3F5803F06D1804B1B68A8
:100CEC007F4A43F4803313602EE07B685B68002BF3
:100CFC000CD17B4B1B687A4A23F480331360784BFE
:100D0C001B68774A23F4802313601DE07B685B68C3
:100D1C00B3F5A02F0CD1724B1B68714A43F480239E
:100D2C0013606F4B1B686E4A43F4803313600BE007
:100D3C006B4B1B686A4A23F480331360684B1B6847
:100D4C00674A23F4802313607B685B68002B13D005
:100D5C00FFF762FF386108E0FFF75EFF02463B6970
:100D6C00D31A642B01D9032300E25D4B1B6803F4F7
:100D7C000033002BF0D014E0FFF74EFF386108E091
:100D8C00FFF74AFF02463B69D31A642B01D90323B0
:100D9C00ECE1534B1B6803F40033002BF0D100E063
:100DAC0000BF7B681B6803F00203002B63D04C4B25
:100DBC005B6803F00C03002B0BD0494B5B6803F012
:100DCC000C03082B1CD1464B5B6803F48033002BBF
:100DDC0016D1434B1B6803F00203002B05D07B6834
:100DEC001B69012B01D00123C0E13D4B1B6823F093
:100DFC00F8027B685B69DB00394913430B603AE00E
:100E0C007B681B69002B20D0364B01221A60FFF740
:100E1C0003FF386108E0FFF7FFFE02463B69D31A77
:100E2C00022B01D90323A1E12D4B1B6803F0020314
:100E3C00002BF0D02A4B1B6823F0F8027B685B690F
:100E4C00DB00274913430B6015E0264B00221A6088
:100E5C00FFF7E2FE386108E0FFF7DEFE02463B6971
:100E6C00D31A022B01D9032380E11D4B1B6803F01D
:100E7C000203002BF0D17B681B6803F00803002BE6
:100E8C003AD07B689B69002B19D0174B01221A6052
:100E9C00FFF7C2FE386108E0FFF7BEFE02463B6971
:100EAC00D31A022B01D9032360E10D4B5B6A03F0CB
:100EBC000203002BF0D0012000F0CEFA1CE00A4B0C
:100ECC0000221A60FFF7A8FE38610FE0FFF7A4FEBE
:100EDC0002463B69D31A022B08D9032346E100BF13
:100EEC00001002400000424280044242924B5B6A76
:100EFC0003F00203002BE9D17B681B6803F00403A9
:100F0C00002B00F0A6800023FB758B4BDB6903F0F4
:100F1C008053002B0DD1884BDB69874A43F08053FB
:100F2C00D361854BDB6903F08053BB60BB68012345
:100F3C00FB75824B1B6803F48073002B18D17F4B1D
:100F4C001B687E4A43F480731360FFF765FE3861BB
:100F5C0008E0FFF761FE02463B69D31A642B01D906
:100F6C00032303E1754B1B6803F48073002BF0D053
:100F7C007B68DB68012B06D16F4B1B6A6E4A43F012
:100F8C00010313622DE07B68DB68002B0CD16A4BEC
:100F9C001B6A694A23F001031362674B1B6A664A9A
:100FAC0023F0040313621CE07B68DB68052B0CD177
:100FBC00614B1B6A604A43F0040313625E4B1B6A6D
:100FCC005D4A43F0010313620BE05B4B1B6A5A4A08
:100FDC0023F001031362584B1B6A574A23F0040396
:100FEC0013627B68DB68002B15D0FFF715FE3861A8
:100FFC000AE0FFF711FE02463B69D31A41F2883230
:10100C00934201D90323B1E04B4B1B6A03F002035B
:10101C00002BEED014E0FFF7FFFD38610AE0FFF77C
:10102C00FBFD02463B69D31A41F28832934201D947
:10103C0003239BE0404B1B6A03F00203002BEED111
:10104C00FB7D012B05D13C4BDB693B4A23F08053E4
:10105C00D3617B68DB69002B00F08780364B5B68C3
:10106C0003F00C03082B61D07B68DB69022B46D1A3
:10107C00334B00221A60FFF7CFFD386108E0FFF711
:10108C00CBFD02463B69D31A022B01D903236DE039
:10109C00294B1B6803F00073002BF0D17B681B6A93
:1010AC00B3F5803F08D1244B5B6823F400327B6896
:1010BC009B68214913434B601F4B5B6823F47412EC
:1010CC007B68196A7B685B6A0B431B4913434B6053
:1010DC001B4B01221A60FFF79FFD386108E0FFF7F8
:1010EC009BFD02463B69D31A022B01D903233DE039
:1010FC00114B1B6803F00073002BF0D035E0104B44
:10110C0000221A60FFF788FD386108E0FFF784FDC4
:10111C0002463B69D31A022B01D9032326E0064B66
:10112C001B6803F00073002BF0D11EE07B68DB69B9
:10113C00012B07D1012319E0001002400070004080
:10114C00600042420B4B5B68FB60FB6803F480322F
:10115C007B681B6A9A4206D1FB6803F470127B68A9
:10116C005B6A9A4201D0012300E00023184618372D
:10117C00BD4680BD0010024080B584B000AF7860E1
:10118C0039607B68002B01D10123D0E06A4B1B68CE
:10119C0003F007033A689A4210D9674B1B6823F097
:1011AC00070265493B6813430B60634B1B6803F0F4
:1011BC0007033A689A4201D00123B8E07B681B68A8
:1011CC0003F00203002B20D07B681B6803F00403A0
:1011DC00002B05D0594B5B68584A43F4E0635360CD
:1011EC007B681B6803F00803002B05D0534B5B682E
:1011FC00524A43F460535360504B5B6823F0F00247
:10120C007B689B684D4913434B607B681B6803F0FC
:10121C000103002B40D07B685B68012B07D1474B47
:10122C001B6803F40033002B15D101237FE07B688E
:10123C005B68022B07D1414B1B6803F00073002B3A
:10124C0009D1012373E03D4B1B6803F00203002B13
:10125C0001D101236BE0394B5B6823F003027B68FF
:10126C005B68364913434B60FFF7D6FCF8600AE025
:10127C00FFF7D2FC0246FB68D31A41F28832934244
:10128C0001D9032353E02D4B5B6803F00C027B6800
:10129C005B689B009A42EBD1274B1B6803F007035A
:1012AC003A689A4210D2244B1B6823F00702224959
:1012BC003B6813430B60204B1B6803F007033A6831
:1012CC009A4201D0012332E07B681B6803F00403CF
:1012DC00002B08D0194B5B6823F4E0627B68DB6859
:1012EC00164913434B607B681B6803F00803002B03
:1012FC0009D0124B5B6823F460527B681B69DB00DE
:10130C000E4913434B6000F021F802460B4B5B680F
:10131C001B0903F00F030A49CB5C22FA03F3094AB9
:10132C001360094B1B681846FFF734FC0023184662
:10133C001037BD4680BD00BF0020024000100240A7
:10134C0050360008040000200800002080B487B04C
:10135C0000AF0023FB600023BB6000237B610023F4
:10136C007B6000233B611E4B5B68FB60FB6803F0FA
:10137C000C03042B02D0082B03D027E0194B3B6144
:10138C0027E0FB689B0C03F00F03174AD35C7B60D0
:10139C00FB6803F48033002B10D0114B5B685B0CA3
:1013AC0003F00103114AD35CBB607B680D4A03FB5D
:1013BC0002F2BB68B2FBF3F37B6104E07B680C4A7E
:1013CC0002FB03F37B617B693B6102E0054B3B61F4
:1013DC0000BF3B6918461C37BD4680BC704700BF38
:1013EC000010024000127A006836000878360008B7
:1013FC0000093D0080B400AF024B1B681846BD4687
:10140C0080BC70470400002080B500AFFFF7F2FFEE
:10141C000246054B5B681B0A03F007030349CB5CD0
:10142C0022FA03F3184680BD001002406036000813
:10143C0080B500AFFFF7DEFF0246054B5B68DB0AA9
:10144C0003F007030349CB5C22FA03F3184680BD73
:10145C00001002406036000880B485B000AF7860A0
:10146C000A4B1B680A4AA2FB03235B0A7A6802FB3D
:10147C0003F3FB6000BFFB685A1EFA60002BF9D126
:10148C0000BF00BF1437BD4680BC7047040000206D
:10149C00D34D621080B48BB000AF786039600023FC
:1014AC007B6200233B6269E101227B6A02FA03F34F
:1014BC00FB613B681B68FA691340BB61BA69FB6945
:1014CC009A4240F058813B685B689A4A93425ED0DE
:1014DC00984A934275D8984A934258D0964A934268
:1014EC006FD8964A934252D0944A934269D8944A00
:1014FC0093424CD0924A934263D8924A934246D03C
:10150C00904A93425DD8122B2AD8122B59D801A29B
:10151C0052F823F09B150008751500088715000874
:10152C00C9150008CF150008CF150008CF15000805
:10153C00CF150008CF150008CF150008CF150008EF
:10154C00CF150008CF150008CF150008CF150008DF
:10155C00CF150008CF1500087D150008911500085F
:10156C00794A934213D02CE03B68DB683B6229E05C
:10157C003B68DB6804333B6224E03B68DB68083380
:10158C003B621FE03B68DB680C333B621AE03B6854
:10159C009B68002B02D104233B6213E03B689B68E1
:1015AC00012B05D108233B627B68FA691A6109E0BB
:1015BC0008233B627B68FA695A6103E000233B62B3
:1015CC0000E000BFBB69FF2B01D87B6801E07B68A2
:1015DC0004337B61BB69FF2B02D87B6A9B0002E062
:1015EC007B6A083B9B003B617B691A680F213B6956
:1015FC0001FA03F3DB431A40396A3B6901FA03F33E
:10160C001A437B691A603B685B6803F08053002BBC
:10161C0000F0B1804D4B9B694C4A43F00103936140
:10162C004A4B9B6903F00103BB60BB68484A7B6A69
:10163C009B08023352F82330FB607B6A03F00303F0
:10164C009B000F2202FA03F3DB43FA681340FB60A2
:10165C007B68404A934213D07B683F4A93420DD03B
:10166C007B683E4A934207D07B683D4A934201D146
:10167C00032306E0042304E0022302E0012300E03C
:10168C0000237A6A02F0030292009340FA68134333
:10169C00FB602F497B6A9B080233FA6841F82320D0
:1016AC003B685B6803F48013002B06D02D4B9A68C3
:1016BC002C49BB6913438B6006E02A4B9A68BB69C3
:1016CC00DB43284913408B603B685B6803F40013D1
:1016DC00002B06D0234BDA682249BB691343CB603D
:1016EC0006E0204BDA68BB69DB431E491340CB6034
:1016FC003B685B6803F40033002B06D0194B5A6827
:10170C001849BB6913434B6006E0164B5A68BB691A
:10171C00DB43144913404B603B685B6803F4803334
:10172C00002B21D00F4B1A680E49BB6913430B6079
:10173C0021E000BF00003210000031100000221028
:10174C0000002110000012100000111000100240C7
:10175C000000014000080140000C01400010014055
:10176C0000140140000401400B4B1A68BB69DB43B9
:10177C00094913400B607B6A01337B623B681A6832
:10178C007B6A22FA03F3002B7FF48EAE00BF00BFFE
:10179C002C37BD4680BC70470004014080B485B036
:1017AC0000AF78600023FB607B68002B01D1012324
:1017BC0043E07B681B681A46224B1344224AA2FB67
:1017CC0003231B099A007B681A647B681F4ADA633F
:1017DC007B68022283F821207B681B681B68FB60F6
:1017EC00FB6823F47F5323F03003FB607B685A685B
:1017FC007B689B681A437B68DB681A437B681B69B0
:10180C001A437B685B691A437B689B691A437B6844
:10181C00DB691343FA681343FB607B681B68FA6847
:10182C001A607B6800229A637B68012283F821206E
:10183C007B68002283F82020002318461437BD460D
:10184C0080BC7047F8FFFDBFCDCCCCCC0000024073
:10185C0080B485B000AF78600023FB737B6893F88D
:10186C002130DBB2022B08D07B6804229A637B68A0
:10187C00002283F82020012320E07B681B681A6873
:10188C007B681B6822F00E021A607B681B681A6862
:10189C007B681B6822F001021A607B681A6C7B68FB
:1018AC00DB6B012101FA02F25A607B68012283F89A
:1018BC0021207B68002283F82020FB7B18461437FC
:1018CC00BD4680BC7047000080B584B000AF786026
:1018DC000023FB737B6893F82130DBB2022B05D01D
:1018EC007B6804229A630123FB7351E07B681B68BD
:1018FC001A687B681B6822F00E021A607B681B68F2
:10190C001A687B681B6822F001021A607B681B68EE
:10191C00224A934229D07B681B68214A934222D0E9
:10192C007B681B681F4A93421AD07B681B681E4A4F
:10193C00934212D07B681B681C4A93420AD07B6886
:10194C001B681B4A934202D14FF480130EE04FF0F8
:10195C0080730BE04FF4803308E04FF4805305E0C4
:10196C004FF4807302E0102300E00123114A53600E
:10197C007B68012283F821207B68002283F82020D9
:10198C007B685B6B002B03D07B685B6B786898473C
:10199C00FB7B18461037BD4680BD00BF08000240D7
:1019AC001C0002403000024044000240580002403B
:1019BC006C0002400000024080B584B000AF78603B
:1019CC007B68DB6B1B68FB607B681B681B68BB6000
:1019DC007B681B6C04229A40FB681340002B4FD091
:1019EC00BB6803F00403002B4AD07B681B681B68A0
:1019FC0003F02003002B07D17B681B681A687B68F7
:101A0C001B6822F004021A607B681B68664A9342CA
:101A1C0029D07B681B68654A934222D07B681B687F
:101A2C00634A93421AD07B681B68624A934212D075
:101A3C007B681B68604A93420AD07B681B685F4ACC
:101A4C00934202D14FF480030EE04FF080630BE021
:101A5C004FF4802308E04FF4804305E04FF480639B
:101A6C0002E0402300E00423554A53607B68DB6AA4
:101A7C00002B00F094807B68DB6A786898478EE0D6
:101A8C007B681B6C02229A40FB681340002B56D0DB
:101A9C00BB6803F00203002B51D07B681B681B68EA
:101AAC0003F02003002B0BD17B681B681A687B6842
:101ABC001B6822F00A021A607B68012283F821203D
:101ACC007B681B68384A934229D07B681B68374A6D
:101ADC00934222D07B681B68354A93421AD07B68AC
:101AEC001B68344A934212D07B681B68324A93427B
:101AFC000AD07B681B68314A934202D14FF4001321
:101B0C000EE04FF000730BE04FF4003308E04FF49D
:101B1C00005305E04FF4007302E0202300E00223A1
:101B2C00274A53607B68002283F820207B689B6ADD
:101B3C00002B34D07B689B6A786898472FE07B68D1
:101B4C001B6C08229A40FB681340002B28D0BB6802
:101B5C0003F00803002B23D07B681B681A687B6892
:101B6C001B6822F00E021A607B681A6C7B68DB6BB8
:101B7C00012101FA02F25A607B6801229A637B68A8
:101B8C00012283F821207B68002283F820207B68C7
:101B9C001B6B002B04D07B681B6B7868984700BFCD
:101BAC0000BF1037BD4680BD080002401C0002403B
:101BBC003000024044000240580002406C000240D9
:101BCC000000024080B485B000AF78607B6803F001
:101BDC000703FB600C4BDB68BB60BA684FF6FF0376
:101BEC001340BB60FB681A02BB68134343F0BF632E
:101BFC0043F40033BB60044ABB68D36000BF1437A6
:101C0C00BD4680BC704700BF00ED00E080B400AF63
:101C1C00044BDB681B0A03F007031846BD4680BC67
:101C2C00704700BF00ED00E080B483B000AF034606
:101C3C00FB7197F90730002B0BDBFB7903F01F02CC
:101C4C00064997F907305B09012000FA02F241F8C6
:101C5C00232000BF0C37BD4680BC704700E100E07C
:101C6C0080B483B000AF03463960FB7197F907303D
:101C7C00002B0ADB3B68DAB20C4997F907301201EA
:101C8C00D2B20B4483F800230AE03B68DAB208496D
:101C9C00FB7903F00F03043B1201D2B20B441A760A
:101CAC0000BF0C37BD4680BC704700BF00E100E0B0
:101CBC0000ED00E080B489B000AFF860B9607A60E4
:101CCC00FB6803F00703FB61FB69C3F10703042BFB
:101CDC0028BF0423BB61FB690433062B02D9FB69C3
:101CEC00033B00E000237B614FF0FF32BB6902FA3B
:101CFC0003F3DA43BB681A407B699A404FF0FF311B
:101D0C007B6901FA03F3D9437B680B4013431846F4
:101D1C002437BD4680BC704780B582B000AF786078
:101D2C007B68013BB3F1807F01D301230FE00A4AAA
:101D3C007B68013B53600F214FF0FF30FFF790FFA2
:101D4C00054B00229A60044B07221A6000231846A8
:101D5C000837BD4680BD00BF10E000E080B582B002
:101D6C0000AF78607868FFF72DFF00BF0837BD46DD
:101D7C0080BD80B586B000AF0346B9607A60FB7356
:101D8C0000237B61FFF742FF78617A68B968786954
:101D9C00FFF790FF024697F90F3011461846FFF7F0
:101DAC005FFF00BF1837BD4680BD80B582B000AF65
:101DBC000346FB7197F907301846FFF735FF00BF54
:101DCC000837BD4680BD80B582B000AF78607868BA
:101DDC00FFF7A2FF034618460837BD4680BD80B505
:101DEC0082B000AF78607B68002B01D1012342E008
:101DFC007B6893F84130DBB2002B06D17B68002264
:101E0C0083F840207868FEF73BFD7B68242283F83A
:101E1C0041207B681B68DA687B681B6822F40052DF
:101E2C00DA60786800F0FAFD7B681B681A697B68D9
:101E3C001B6822F490421A617B681B685A697B68A4
:101E4C001B6822F02A025A617B681B68DA687B687F
:101E5C001B6842F40052DA607B6800225A647B688B
:101E6C00202283F841207B68202283F842207B6863
:101E7C0000225A63002318460837BD4680BD80B542
:101E8C008AB002AFF860B9603B601346FB80002358
:101E9C007B61FB6893F84130DBB2202B75D1BB68BA
:101EAC00002B02D0FB88002B01D101236EE0FB68D4
:101EBC0000225A64FB68212283F84120FEF7ACFE15
:101ECC007861FB68FA889A84FB68FA88DA84FB6884
:101EDC009B68B3F5805F08D1FB681B69002B04D1AC
:101EEC000023FB61BB68BB6103E0BB68FB610023A3
:101EFC00BB612EE03B6800937B6900228021F8686F
:101F0C0000F098FB0346002B05D0FB68202283F8D9
:101F1C00412003233AE0FB69002B0BD1BB691B88E2
:101F2C001A46FB681B68C2F308025A60BB6902338D
:101F3C00BB6107E0FB691A78FB681B685A60FB6998
:101F4C000133FB61FB68DB8C9BB2013B9AB2FB68F3
:101F5C00DA84FB68DB8C9BB2002BCBD13B68009303
:101F6C007B6900224021F86800F064FB0346002BDB
:101F7C0005D0FB68202283F84120032306E0FB6890
:101F8C00202283F84120002300E00223184620374A
:101F9C00BD4680BD80B58AB002AFF860B9603B60C9
:101FAC001346FB8000237B61FB6893F84230DBB265
:101FBC00202B40F08180BB68002B02D0FB88002BCB
:101FCC0001D1012379E0FB6800225A64FB682222CC
:101FDC0083F84220FB6800221A63FEF71DFE78612D
:101FEC00FB68FA889A85FB68FA88DA85FB689B6837
:101FFC00B3F5805F08D1FB681B69002B04D100236B
:10200C00FB61BB68BB6103E0BB68FB610023BB6188
:10201C0047E03B6800937B6900222021F86800F0C0
:10202C0009FB0346002B05D0FB68202283F84220D5
:10203C00032342E0FB69002B0CD1FB681B685B6837
:10204C009BB2C3F308039AB2BB691A80BB69023313
:10205C00BB611FE0FB689B68B3F5805F07D0FB6832
:10206C009B68002B0AD1FB681B69002B06D1FB680F
:10207C001B685B68DAB2FB691A7008E0FB681B68C6
:10208C005B68DBB203F07F03DAB2FB691A70FB69A1
:10209C000133FB61FB68DB8D9BB2013B9AB2FB68A1
:1020AC00DA85FB68DB8D9BB2002BB2D1FB6820225A
:1020BC0083F84220002300E0022318462037BD4657
:1020CC0080BD000080B5BAB000AF78607B681B683B
:1020DC001B68C7F8E4307B681B68DB68C7F8E03026
:1020EC007B681B685B69C7F8DC300023C7F8D83005
:1020FC000023C7F8D430D7F8E43003F00F03C7F847
:10210C00D830D7F8D830002B0FD1D7F8E43003F003
:10211C002003002B09D0D7F8E03003F02003002B6C
:10212C0003D0786800F0BCFB5BE2D7F8D830002B0A
:10213C0000F0DE80D7F8DC3003F00103002B06D171
:10214C00D7F8E03003F49073002B00F0D180D7F86F
:10215C00E43003F00103002B0BD0D7F8E03003F48C
:10216C008073002B05D07B685B6C43F001027B68AD
:10217C005A64D7F8E43003F00403002B0BD0D7F8E3
:10218C00DC3003F00103002B05D07B685B6C43F063
:10219C0002027B685A64D7F8E43003F00203002B88
:1021AC000BD0D7F8DC3003F00103002B05D07B6893
:1021BC005B6C43F004027B685A64D7F8E43003F09C
:1021CC000803002B11D0D7F8E03003F02003002BCC
:1021DC0005D1D7F8DC3003F00103002B05D07B6868
:1021EC005B6C43F008027B685A647B685B6C002B69
:1021FC0000F0F281D7F8E43003F02003002B08D074
:10220C00D7F8E03003F02003002B02D0786800F000
:10221C0047FB7B681B685B6903F04003002B14BF12
:10222C0001230023DBB2C7F8D4307B685B6C03F06E
:10223C000803002B03D1D7F8D430002B4FD078688B
:10224C0000F051FA7B681B685B6903F04003002BBC
:10225C0041D07B681B681433C7F89C30D7F89C308E
:10226C0053E8003FC7F89830D7F8983023F0400374
:10227C00C7F8D0307B681B681433D7F8D020C7F868
:10228C00A820C7F8A430D7F8A410D7F8A82041E8A4
:10229C000023C7F8A030D7F8A030002BD9D17B6829
:1022AC00DB6B002B13D07B68DB6B7E4A5A637B683D
:1022BC00DB6B1846FFF708FB0346002B16D07B6838
:1022CC00DB6B5B6B7A68D26B104698470EE07868D4
:1022DC0000F09CF90AE0786800F098F906E078685C
:1022EC0000F094F97B6800225A6475E100BF73E139
:1022FC007B681B6B012B40F04F81D7F8E43003F067
:10230C001003002B00F04881D7F8E03003F01003E5
:10231C00002B00F041810023BB607B681B681B68AD
:10232C00BB607B681B685B68BB60BB687B681B68B9
:10233C005B6903F04003002B00F0B6807B68DB6B1D
:10234C001B685B68A7F8BE30B7F8BE30002B00F0F6
:10235C0045817B689B8DB7F8BE209A4280F03E8108
:10236C007B68B7F8BE20DA857B68DB6B9B69202B1A
:10237C0000F088807B681B680C33C7F88830D7F86E
:10238C00883053E8003FC7F88430D7F8843023F402
:10239C008073C7F8B8307B681B680C33D7F8B8204B
:1023AC00C7F89420C7F89030D7F89010D7F894203D
:1023BC0041E80023C7F88C30D7F88C30002BD9D1EA
:1023CC007B681B6814337B677B6F53E8003F3B676C
:1023DC003B6F23F00103C7F8B4307B681B681433E0
:1023EC00D7F8B420C7F88020FB67F96FD7F88020A6
:1023FC0041E80023BB67BB6F002BE1D17B681B68F6
:10240C0014333B663B6E53E8003FFB65FB6D23F0DA
:10241C004003C7F8B0307B681B681433D7F8B02082
:10242C00FA66BB66B96EFA6E41E800237B667B6E7A
:10243C00002BE3D17B68202283F842207B680022AA
:10244C001A637B681B680C33FB64FB6C53E8003F1E
:10245C00BB64BB6C23F01003C7F8AC307B681B6803
:10246C000C33D7F8AC20BA657B65796DBA6D41E851
:10247C0000233B653B6D002BE3D17B68DB6B18467F
:10248C00FFF7E6F97B6802225A637B689A8D7B68BA
:10249C00DB8D9BB2D31A9BB21946786800F0BFF85B
:1024AC009CE000BFB72700087B689A8D7B68DB8DAA
:1024BC009BB2D31AA7F8CE307B68DB8D9BB2002B76
:1024CC0000F08E80B7F8CE30002B00F089807B684E
:1024DC001B680C33BB63BB6B53E8003F7B637B6BAC
:1024EC0023F49073C7F8C8307B681B680C33D7F89B
:1024FC00C8207A643B64396C7A6C41E80023FB6336
:10250C00FB6B002BE3D17B681B6814337B627B6A0B
:10251C0053E8003F3B623B6A23F00103C7F8C43029
:10252C007B681B681433D7F8C4203A63FB62F96AE2
:10253C003A6B41E80023BB62BB6A002BE3D17B689A
:10254C00202283F842207B6800221A637B681B6878
:10255C000C333B613B6953E8003FFB60FB6823F0A5
:10256C001003C7F8C0307B681B680C33D7F8C02049
:10257C00FA61BB61B969FA6941E800237B617B6947
:10258C00002BE3D17B6802225A63B7F8CE30194690
:10259C00786800F044F823E0D7F8E43003F08003C7
:1025AC00002B09D0D7F8E03003F08003002B03D0C8
:1025BC00786800F00EF914E0D7F8E43003F040032B
:1025CC00002B0ED0D7F8E03003F04003002B08D0DE
:1025DC00786800F04DF904E000BF02E000BF00E0B5
:1025EC0000BFE837BD4680BD80B483B000AF7860D3
:1025FC0000BF0C37BD4680BC704780B483B000AFC1
:10260C00786000BF0C37BD4680BC704780B483B087
:10261C0000AF786000BF0C37BD4680BC704780B4FB
:10262C0083B000AF78600B467B8000BF0C37BD4693
:10263C0080BC704780B586B000AFF860B9603B6075
:10264C001346FB713BE03B6AB3F1FF3F37D0FEF71B
:10265C00E3FA02463B68D31A3A6A9A4202D33B6ABF
:10266C00002B01D103233AE0FB681B68DB6803F005
:10267C000403002B23D0BB68802B20D0BB68402BDD
:10268C001DD0FB681B681B6803F00803082B16D1D0
:10269C0000237B61FB681B681B687B61FB681B6804
:1026AC005B687B617B69F86800F01DF8FB680822A9
:1026BC005A64FB68002283F8402001230FE0FB687A
:1026CC001B681A68BB681340BA689A420CBF012396
:1026DC000023DBB21A46FB799A42B4D00023184689
:1026EC001837BD4680BD80B495B000AF78607B686C
:1026FC001B680C337B637B6B53E8003F3B633B6B8A
:10270C0023F49073FB647B681B680C33FA6C3A649B
:10271C00FB63F96B3A6C41E80023BB63BB6B002B8A
:10272C00E5D17B681B6814333B623B6A53E8003F7E
:10273C00FB61FB6923F00103BB647B681B681433EA
:10274C00BA6CFA62BB62B96AFA6A41E800237B622E
:10275C007B6A002BE5D17B681B6B012B19D17B6845
:10276C001B680C33FB60FB6853E8003FBB60BB6825
:10277C0023F010037B647B681B680C337A6CBA61A2
:10278C007B617969BA6941E800233B613B69002BA5
:10279C00E5D17B68202283F842207B6800221A63F3
:1027AC0000BF5437BD4680BC704780B584B000AFC5
:1027BC0078607B685B6AFB60FB680022DA85FB68EB
:1027CC000022DA84F868FFF721FF00BF1037BD46FE
:1027DC0080BD80B485B000AF78607B6893F84130E1
:1027EC00DBB2212B3ED17B689B68B3F5805F14D1A3
:1027FC007B681B69002B10D17B681B6AFB60FB6834
:10280C001B881A467B681B68C2F308025A607B68F7
:10281C001B6A9A1C7B681A6208E07B681B6A591C4D
:10282C007A6811621A787B681B685A607B68DB8C4B
:10283C009BB2013B9BB27A681946D184002B0FD115
:10284C007B681B68DA687B681B6822F08002DA60A0
:10285C007B681B68DA687B681B6842F04002DA60B0
:10286C00002300E0022318461437BD4680BC704795
:10287C0080B582B000AF78607B681B68DA687B68D3
:10288C001B6822F04002DA607B68202283F841202A
:10289C007868FFF7A9FE002318460837BD4680BDAF
:1028AC0080B58CB000AF78607B6893F84230DBB2B7
:1028BC00222B40F0AE807B689B68B3F5805F17D10C
:1028CC007B681B69002B13D10023FB627B689B6A1E
:1028DC00BB627B681B685B689BB2C3F308039AB24C
:1028EC00BB6A1A807B689B6A9A1C7B689A6226E09A
:1028FC007B689B6AFB620023BB627B689B68B3F5B9
:10290C00805F07D07B689B68002B0AD17B681B69B2
:10291C00002B06D17B681B685B68DAB2FB6A1A7005
:10292C0008E07B681B685B68DBB203F07F03DAB2FC
:10293C00FB6A1A707B689B6A5A1C7B689A627B687C
:10294C00DB8D9BB2013B9BB27A681946D185002B7B
:10295C005DD17B681B68DA687B681B6822F02002FB
:10296C00DA607B681B68DA687B681B6822F480720B
:10297C00DA607B681B685A697B681B6822F001026D
:10298C005A617B68202283F842207B6800225A63BC
:10299C007B681B6B012B35D17B6800221A637B682B
:1029AC001B680C337B617B6953E8003F3B613B69DF
:1029BC0023F010037B627B681B680C337A6A3A62E3
:1029CC00FB61F9693A6A41E80023BB61BB69002BE2
:1029DC00E5D17B681B681B6803F01003102B0AD130
:1029EC000023FB607B681B681B68FB607B681B68B3
:1029FC005B68FB60FB687B689B8D19467868FFF70A
:102A0C000EFE02E07868FFF7F8FD002302E00023D9
:102A1C0000E0022318463037BD4680BD80B584B037
:102A2C0000AF78607B681B681B6923F440517B689E
:102A3C00DA687B681B680A431A617B689A687B6852
:102A4C001B691A437B685B691343BB607B681B681B
:102A5C00DB6823F4B05323F00C037A681268B9686E
:102A6C000B43D3607B681B685B6923F440717B6804
:102A7C009A697B681B680A435A617B681B682C4AFD
:102A8C00934203D1FEF7D4FCF86002E0FEF7BCFCE5
:102A9C00F860FA6813469B0013449A001A447B684A
:102AAC005B689B00B2FBF3F3224AA2FB03235B0996
:102ABC001901FA6813469B0013449A001A447B6868
:102ACC005B689B00B2FBF3F21A4BA3FB02035B099E
:102ADC00642000FB03F3D31A1B013233154AA2FB0B
:102AEC0003235B0903F0F0031944FA6813469B00B7
:102AFC0013449A001A447B685B689B00B2FBF3F2A8
:102B0C000C4BA3FB02035B09642000FB03F3D31AF9
:102B1C001B013233074AA2FB03235B0903F00F02AC
:102B2C007B681B680A449A6000BF1037BD4680BDA5
:102B3C00003801401F85EB5180B500AF174B184A88
:102B4C001A60164B04225A60144B00229A60134BE5
:102B5C000022DA60114B4FF440321A610F4B4FF4E4
:102B6C0040125A610D4B00221A760C4B01225A76F8
:102B7C000A4B01229A76094B0122DA76074B002286
:102B8C001A77064B00225A77044800F07BF803466C
:102B9C00002B01D0FDF7C7FD00BF80BD60010020F8
:102BAC000064004080B58AB000AF786007F1140370
:102BBC0000221A605A609A60DA607B681B682D4AA2
:102BCC00934253D12C4BDB692B4A43F00073D361F6
:102BDC00294BDB6903F000733B613B69264B9B6916
:102BEC00254A43F008039361234B9B6903F00803C8
:102BFC00FB60FB684FF480737B610023BB61002397
:102C0C00FB6107F1140319461C48FEF743FC4FF413
:102C1C0000737B610223BB6103233B6207F1140346
:102C2C0019461648FEF736FC154B5B687B627B6ACF
:102C3C0023F4C0437B627B6A43F0E0637B627B6A74
:102C4C0043F480437B620E4A7B6A5360002200216E
:102C5C001420FFF78EF81420FFF7A7F800220021AC
:102C6C001520FFF786F81520FFF79FF800BF2837CF
:102C7C00BD4680BD0064004000100240000C0140C5
:102C8C000000014080B584B000AF78607B68002BF9
:102C9C0001D10123EDE07B6893F82030DBB2002BEF
:102CAC0002D17868FFF77EFF7B681B681A687B6827
:102CBC001B6842F001021A60FDF7AEFFF86012E0EB
:102CCC00FDF7AAFF0246FB68D31A0A2B0BD97B68C7
:102CDC005B6A43F400327B685A627B68052283F896
:102CEC0020200123C5E07B681B685B6803F00103AF
:102CFC00002BE5D07B681B681A687B681B6822F088
:102D0C0002021A60FDF788FFF86012E0FDF784FFFD
:102D1C000246FB68D31A0A2B0BD97B685B6A43F417
:102D2C0000327B685A627B68052283F820200123DD
:102D3C009FE07B681B685B6803F00203002BE5D106
:102D4C007B681B7E012B08D17B681B681A687B682B
:102D5C001B6842F080021A6007E07B681B681A68E7
:102D6C007B681B6822F080021A607B685B7E012BFB
:102D7C0008D17B681B681A687B681B6842F04002AC
:102D8C001A6007E07B681B681A687B681B6822F076
:102D9C0040021A607B689B7E012B08D17B681B6804
:102DAC001A687B681B6842F020021A6007E07B6897
:102DBC001B681A687B681B6822F020021A607B680B
:102DCC00DB7E012B08D17B681B681A687B681B684B
:102DDC0022F010021A6007E07B681B681A687B6897
:102DEC001B6842F010021A607B681B7F012B08D114
:102DFC007B681B681A687B681B6842F008021A60C3
:102E0C0007E07B681B681A687B681B6822F0080265
:102E1C001A607B685B7F012B08D17B681B681A6882
:102E2C007B681B6842F004021A6007E07B681B6831
:102E3C001A687B681B6822F004021A607B689A6827
:102E4C007B68DB681A437B681B691A437B685B6988
:102E5C0042EA03017B685B685A1E7B681B680A4365
:102E6C00DA617B6800225A627B68012283F8202099
:102E7C00002318461037BD4680BD80B487B000AF24
:102E8C00786039607B681B687B617B6893F82030C5
:102E9C00FB74FB7C012B03D0FB7C022B40F0AA8043
:102EAC007B69D3F8003243F001027B69C3F800223E
:102EBC003B685B6903F01F03012202FA03F3FB601A
:102ECC007B69D3F81C22FB68DB431A407B69C3F88F
:102EDC001C223B68DB69002B23D17B69D3F80C22C5
:102EEC00FB68DB431A407B69C3F80C223B68DB6848
:102EFC0019043B685B689BB23A68526919437B6959
:102F0C00483243F832103B689B6819043B681B68D5
:102F1C009AB23B685B690A4379694833DB000B441E
:102F2C005A603B68DB69012B22D17B69D3F80C22F8
:102F3C00FB681A437B69C3F80C223B681B681904B5
:102F4C003B685B689BB23A68526919437B694832AB
:102F5C0043F832103B689B6819043B68DB689AB2F3
:102F6C003B685B690A4379694833DB000B445A6060
:102F7C003B689B69002B09D17B69D3F80422FB6861
:102F8C00DB431A407B69C3F8042207E07B69D3F862
:102F9C000422FB681A437B69C3F804223B681B6953
:102FAC00002B09D17B69D3F81422FB68DB431A4050
:102FBC007B69C3F8142207E07B69D3F81422FB6801
:102FCC001A437B69C3F814223B681B6A012B07D197
:102FDC007B69D3F81C22FB681A437B69C3F81C225B
:102FEC007B69D3F8003223F001027B69C3F800221D
:102FFC00002306E07B685B6A43F480227B685A629C
:10300C00012318461C37BD4680BC704780B584B080
:10301C0000AF78607B6893F82030DBB2012B2ED1A7
:10302C007B68022283F820207B681B681A687B6807
:10303C001B6822F001021A60FDF7EEFDF86012E049
:10304C00FDF7EAFD0246FB68D31A0A2B0BD97B6805
:10305C005B6A43F400327B685A627B68052283F812
:10306C002020012312E07B681B685B6803F00103DE
:10307C00002BE5D17B6800225A62002306E07B68B6
:10308C005B6A43F400227B685A62012318461037AE
:10309C00BD4680BD80B485B000AF786039607B6878
:1030AC0093F82030FB73FB7B012B02D0FB7B022BB4
:1030BC0009D17B681B6859697B681B683A680A43AD
:1030CC005A61002306E07B685B6A43F480227B68CC
:1030DC005A62012318461437BD4680BC704780B530
:1030EC008AB000AF786000237B627B681B685B69E9
:1030FC003B627B681B685B68FB617B681B689B6839
:10310C00BB617B681B68DB687B617B681B681B6928
:10311C003B617B681B689B69FB603B6A03F00103A6
:10312C00002B7CD0BB6903F00103002B23D07B6800
:10313C001B6801229A60BB6903F00203002B03D0C9
:10314C00786800F083F916E0BB6903F00403002BE8
:10315C0004D07B6A43F400637B620CE0BB6903F030
:10316C000803002B04D07B6A43F480537B6202E09B
:10317C00786800F086F9BB6903F48073002B24D0C7
:10318C007B681B684FF480729A60BB6903F4007310
:10319C00002B03D0786800F062F916E0BB6903F4E9
:1031AC008063002B04D07B6A43F400537B620CE0F9
:1031BC00BB6903F40063002B04D07B6A43F48043A7
:1031CC007B6202E0786800F065F9BB6903F4803338
:1031DC00002B24D07B681B684FF480329A60BB694B
:1031EC0003F40033002B03D0786800F041F916E0AB
:1031FC00BB6903F48023002B04D07B6A43F40043A7
:10320C007B620CE0BB6903F40023002B04D07B6AC7
:10321C0043F480337B6202E0786800F044F93B6A47
:10322C0003F00803002B0CD07B6903F01003002B78
:10323C0007D07B6A43F400737B627B681B681022A7
:10324C00DA603B6A03F00403002B0BD07B6903F0BC
:10325C000803002B06D07B681B680822DA607868AC
:10326C0000F033F93B6A03F00203002B09D07B68B2
:10327C001B68DB6803F00303002B02D0786800F0B6
:10328C001BF93B6A03F04003002B0CD03B6903F0A5
:10329C001003002B07D07B6A43F480637B627B684E
:1032AC001B6810221A613B6A03F02003002B0BD021
:1032BC003B6903F00803002B06D07B681B680822CF
:1032CC001A61786800F013F93B6A03F01003002BC5
:1032DC0009D07B681B681B6903F00303002B02D029
:1032EC00786800F0FBF83B6A03F40033002B0BD03A
:1032FC00FB6903F01003002B06D07B681B681022BF
:10330C005A60786800F0FCF83B6A03F48033002BB9
:10331C000BD0FB6903F00803002B06D07B681B68FD
:10332C0008225A60786800F0F4F83B6A03F4004312
:10333C00002B7BD0FB6903F00403002B72D03B6A9B
:10334C0003F48073002B08D0FB6803F00103002BFF
:10335C0003D07B6A43F001037B623B6A03F4007386
:10336C00002B08D0FB6803F00203002B03D07B6A10
:10337C0043F002037B623B6A03F48063002B08D0AA
:10338C00FB6803F00403002B03D07B6A43F00403B7
:10339C007B623B6A03F40063002B43D0FB6803F0B1
:1033AC007003002B3ED0FB6803F07003602B2BD016
:1033BC00602B2ED8502B22D0502B2AD8402B19D032
:1033CC00402B26D8302B10D0302B22D8102B02D0EB
:1033DC00202B05D01DE07B6A43F008037B6219E0CB
:1033EC007B6A43F010037B6214E07B6A43F020039A
:1033FC007B620FE07B6A43F040037B620AE07B6AEE
:10340C0043F080037B6205E07B6A43F480737B624C
:10341C0000E000BF7B681B689A697B681B6822F020
:10342C0070029A617B681B6804225A607B6A002BCD
:10343C0008D07B685A6A7B6A1A437B685A62786840
:10344C0000F070F800BF2837BD4680BD80B483B053
:10345C0000AF786000BF0C37BD4680BC704780B4AD
:10346C0083B000AF786000BF0C37BD4680BC70479E
:10347C0080B483B000AF786000BF0C37BD4680BC11
:10348C00704780B483B000AF786000BF0C37BD4686
:10349C0080BC704780B483B000AF786000BF0C373D
:1034AC00BD4680BC704780B483B000AF786000BF6D
:1034BC000C37BD4680BC704780B483B000AF7860D9
:1034CC0000BF0C37BD4680BC704780B483B000AFE2
:1034DC00786000BF0C37BD4680BC704780B483B0A9
:1034EC0000AF786000BF0C37BD4680BC704780B41D
:1034FC0083B000AF786000BF0C37BD4680BC70470E
:10350C0080B483B000AF786000BF0C37BD4680BC80
:10351C00704780B483B000AF786000BF0C37BD46F5
:10352C0080BC704780B483B000AF786000BF0C37AC
:10353C00BD4680BC70470000FDF710FB0B480C49E2
:10354C000C4A002302E0D458C4500433C4188C42F3
:10355C00F9D3094A094C002301E013600432A2425A
:10356C00FBD300F00FF8FCF70BFE704700000020B7
:10357C001000002084360008100000208801002074
:10358C00FEE7000070B500260C4D0D4C641BA4101A
:10359C00A64209D100F022F800260A4D0A4C641B01
:1035AC00A410A64205D170BD55F8043B98470136CE
:1035BC00EEE755F8043B98470136F2E77C360008F5
:1035CC007C3600087C36000880360008034602442E
:1035DC00934200D1704703F8011BF9E7F8B500BF1F
:1035EC00F8BC08BC9E467047F8B500BFF8BC08BCD8
:0435FC009E46704730
:10360000FFFF0104032801CE010203040506070899
:10361000000A000100000100000000000009000194
:103620000000010000000000FFFF0104032800CF9C
:10363000FFFF01040328804FFFFF0104023802BE90
:10364000FFFF0109032A0000000000000000000045
:103650000000000000000000010203040607080942
:103660000000000001020304020304050607080924
:0C3670000A0B0C0D0E0F101001020000E0
:04367C003101000810
:043680000D01000830
:103684000100000000127A00100000000100000098
:040000050800354575
:00000001FF
