:020000040800F2
:1000000000500020298E00087D06000883060008A5
:10001000890600088F060008950600080000000009
:100020000000000000000000000000009B06000827
:10003000A706000800000000B3060008BF0600087D
:10004000718E0008718E0008718E0008718E000894
:10005000718E0008718E0008718E0008718E000884
:10006000718E0008718E0008718E0008718E000874
:10007000718E0008718E0008718E0008718E000864
:10008000CD060008E1060008718E0008718E000898
:10009000F506000809070008718E0008718E000837
:1000A000718E0008718E0008718E0008718E000834
:1000B000718E0008718E0008718E0008718E000824
:1000C000718E0008718E0008718E0008718E000814
:1000D000718E0008718E00081D070008718E0008DF
:1000E000718E0008718E0008718E000800000000FB
:1000F0000000000000000000000000000000000000
:0C01000000000000000000005FF808F1A3
:10010C0010B5054C237833B9044B13B10448AFF345
:10011C0000800123237010BD780000200000000037
:10012C00C8A1000808B5034B1BB103490348AFF342
:10013C00008008BD000000007C000020C8A1000861
:10014C0080B598B000AF01F08BF800F00BF900F01F
:10015C0069F900F095F900F0B9F903F01FF900F016
:10016C0011FF0023BB6500237B6501237B64002307
:10017C00BB6301237B6300237B620023BB620023F0
:10018C00FB6200233B630023FB6301233B6407F109
:10019C0024031946694803F09AFA684803F060FB97
:1001AC001021664803F090FD654A3B1D92E8030060
:1001BC0083E803000023FB600023BB6100237B6109
:1001CC000823FB615F4B1B78012B50D100F004FF1F
:1001DC00002387F85F3037E097F85F305A4A32F8DF
:1001EC0013301B0A9AB297F85F309B00D1B2574A72
:1001FC00D15497F85F30544A32F8132097F85F3097
:10020C009B000133D1B2514AD15497F85F30504A18
:10021C0032F813301B0A9AB297F85F309B00023306
:10022C00D1B24A4AD15497F85F30494A32F8132078
:10023C0097F85F309B000333D1B2444AD15497F8FE
:10024C005F30013387F85F3097F85F30012BC3D9EB
:10025C003B4607F10C013D4A384803F045FB034689
:10026C00002B01D000233B65364B00221A70394B12
:10027C001B78012B34D100F0AFFE334B9B881B0A4B
:10028C009BB2DAB2314B1A702F4B9B88DAB22F4BE0
:10029C005A702F4B9B881B0A9BB2DAB22B4B9A706D
:1002AC002B4B9B88DAB2294BDA70284B00221A713F
:1002BC00264B00225A71254B00229A71234B0022A7
:1002CC00DA713B4607F10C01204A1C4803F00CFB89
:1002DC000346002B01D00023FB641E4B00221A7036
:1002EC001D4B1B78012B7FF46DAF002387F85E301C
:1002FC001AE097F85E305B00184AD35C1B021AB206
:10030C0097F85E305B0001331449CB5C1BB213438E
:10031C001AB297F85E3091B2114A22F8131097F87E
:10032C005E30013387F85E3097F85E30022BE0D9EF
:10033C0000F0B0FE084B00221A7043E78802002040
:10034C00E0A100085C0200202002002054020020E2
:10035C00280200205D0200205E0200204C020020DA
:10036C003402002080B594B000AF07F12803282296
:10037C000021184608F0B8FD07F1140300221A609A
:10038C005A609A60DA601A613B1D00221A605A604A
:10039C009A60DA600123BB624FF48033FB62002366
:1003AC003B630123BB6302237B644FF48033BB6448
:1003BC004FF4E013FB6407F12803184600F0D6FF56
:1003CC000346002B01D000F027F80F237B6102239A
:1003DC00BB610023FB614FF480633B6200237B62B3
:1003EC0007F114030221184601F042FA0346002BD0
:1003FC0001D000F011F810237B6000233B613B1D02
:10040C00184601F0C3FB0346002B01D000F004F8A2
:10041C0000BF5037BD4680BD80B400AF72B600BF80
:10042C00FEE7000080B485B000AF144B9B69134A03
:10043C0043F020039361114B9B6903F02003FB6095
:10044C00FB680E4B9B690D4A43F0040393610B4B05
:10045C009B6903F00403BB60BB68084B9B69074AAC
:10046C0043F008039361054B9B6903F008037B6021
:10047C007B6800BF1437BD4680BC7047001002403B
:10048C0080B582B000AF104B5B690F4A43F001039B
:10049C0053610D4B5B6903F001037B607B680022A9
:1004AC000021102002F097F8102002F0B0F8002282
:1004BC000021112002F08FF8112002F0A8F800BFE3
:1004CC000837BD4680BD00BF0010024080B500AFAC
:1004DC00104B114A1A600F4B104A5A600D4B0022F8
:1004EC009A600C4B0022DA600A4B00221A61094B0D
:1004FC000C225A61074B00229A61064B0022DA61EA
:10050C00044802F09EF80346002B01D0FFF784FF4D
:10051C0000BF80BD940000200044004040420F000A
:10052C0080B588B000AF786007F1100300221A6024
:10053C005A609A60DA607B681B68464A934240F0C6
:10054C008480454BDB69444A43F40033D361424B0E
:10055C00DB6903F40033FB60FB683F4B9B693E4A4D
:10056C0043F0040393613C4B9B6903F00403BB60B1
:10057C00BB6804233B6102237B610323FB6107F10E
:10058C0010031946354801F0B7FB08233B610023E3
:10059C007B610023BB6107F1100319462F4801F062
:1005AC00ABFB2F4B2F4A1A602D4B00225A602C4B61
:1005BC0000229A602A4B8022DA60294B00221A61B1
:1005CC00274B00225A61264B00229A61244B0022B1
:1005DC00DA61234801F014FD0346002B01D0FFF72C
:1005EC001BFF7B681E4ADA631D4A7B6853621E4BF5
:1005FC001E4A1A601C4B10225A601B4B00229A6038
:10060C00194B8022DA60184B00221A61164B00221B
:10061C005A61154B00229A61134B0022DA61124881
:10062C0001F0EEFC0346002B01D0FFF7F5FE7B68D2
:10063C000D4A9A630C4A7B685362002200212620E3
:10064C0001F0C9FF262001F0E2FF00BF2037BD46B4
:10065C0080BD00BF00440040001002400008014073
:10066C00DC0000206C0002402001002080000240D1
:10067C0080B400AFFEE780B400AFFEE780B400AFFB
:10068C00FEE780B400AFFEE780B400AFFEE780B4B5
:10069C0000AF00BFBD4680BC704780B400AF00BF48
:1006AC00BD4680BC704780B400AF00BFBD4680BC67
:1006BC00704780B500AF00F019FE00BF80BD000090
:1006CC0080B500AF024801F0A9FD00BF80BD00BF9E
:1006DC00DC00002080B500AF024801F09FFD00BF98
:1006EC0080BD00BF2001002080B500AF024803F0A0
:1006FC00EFFE00BF80BD00BFB002002080B500AF90
:10070C00024803F006FB00BF80BD00BF880200203A
:10071C0080B500AF024802F007F900BF80BD00BFF2
:10072C009400002080B582B000AF78607B681B68B5
:10073C001B4A93422FD11B4B1B4A0121786803F0B3
:10074C00A2F9194B1B68062B16D1174BDB68002B33
:10075C000AD1154B1B691A461249144808F0B6FB0E
:10076C00134B01221A7016E00F4BDB68022B12D1CF
:10077C00104B01221A700EE00B4B1B68072B03D198
:10078C000C4B01221A7006E0074B1B68082B02D198
:10079C00094B01221A7000BF0837BD4680BD00BF4F
:1007AC000064004080010020640100204C02002005
:1007BC005E0200205C0200205D02002080B485B047
:1007CC0000AF154B9B69144A43F001039361124B24
:1007DC009B6903F00103BB60BB680F4BDB690E4ADE
:1007EC0043F08053D3610C4BDB6903F080537B6087
:1007FC007B680A4B5B68FB60FB6823F0E063FB6083
:10080C00FB6843F00073FB60044AFB68536000BF55
:10081C001437BD4680BC70470010024000000140F8
:10082C0080B400AF00BFBD4680BC704780B485B0BB
:10083C0000AFF860B9607A600D4B1B78002B09D0C3
:10084C007B681B12DAB2FB681A707B68DAB2BB6881
:10085C001A7008E07B681B12DAB2BB681A707B68EE
:10086C00DAB2FB681A7000BF1437BD4680BC704703
:10087C008801002080B485B000AF03460A46FB71A6
:10088C001346BB710E4B1B78002B09D0FB79FB6018
:10089C00FB681B02FB60BB79FA681343FB6008E042
:1008AC00BB79FB60FB681B02FB60FB79FA681343A6
:1008BC00FB60FB6818461437BD4680BC704700BF10
:1008CC008801002080B588B000AFF8607B600B46D3
:1008DC00FB721346BB7297F828300133DBB2FA7AFD
:1008EC0002FB03F3DBB204337B7700233B77FF235C
:1008FC003B75FF237B75FE23BB757B7FFB758323C9
:10090C003B76BB7A7B7697F82830BB7600F058FAAA
:10091C0007F114030721184600F004FA7A7FBB7A1A
:10092C001344DAB297F828301344DBB27F3BDBB2C6
:10093C003B770023FB7739E0FB7FFA6813440121F6
:10094C00184600F0EFF9FB7F97F8282002FB03F321
:10095C001A467B68134497F828201146184600F075
:10096C00E1F9FB7FFA6813441A783B7F1344DBB23E
:10097C003B770023BB7711E0FB7F97F8282003FB24
:10098C0002F2BB7F13441A467B6813441A783B7FF0
:10099C001344DBB23B77BB7F0133BB77BA7F97F84D
:1009AC0028309A42E8D3FB7F0133FB77FA7FFB7A3E
:1009BC009A42C1D33B7FDB43DBB23B7707F11C038D
:1009CC000121184600F0AEF900F000FA00BF203704
:1009DC00BD4680BD80B584B000AF78600846114636
:1009EC001A460346FB700B46BB7013467B7000F037
:1009FC00E7F900F0EBF92D4A7B781370FA78BB78A5
:100A0C001344DAB27B781344DBB27C3BFB73FF20DC
:100A1C0000F0B4F9FF2000F0B1F9FE2000F0AEF9BF
:100A2C00FB780433DBB2184600F0A8F9822000F002
:100A3C00A5F9BB78184600F0A1F97B78184600F0B0
:100A4C009DF90023BB7310E0BB7B7A6813441B78C1
:100A5C00184600F093F9BB7B7A6813441A78FB7B39
:100A6C001344FB73BB7B0133BB73BA7BFB789A4299
:100A7C00EAD3FB7BDB43FB73FB7B184600F07EF970
:100A8C0000F0A4F90023BB60094B1B68094A1288CB
:100A9C001146184600F038F903469AB2064B1A80F4
:100AAC00054B1B8818461037BD4680BD8C010020B5
:100ABC00940100209A0100209801002080B582B09A
:100ACC0000AF03460A46FB711346BB71FB799BB220
:100ADC00BA79063292B202FB03F39AB2074B1A8030
:100AEC00064B1B88184608F0E9F903461A46044BD6
:100AFC001A6000BF0837BD4680BD00BF9A010020B8
:100B0C009401002080B487B000AF03463960FB71BC
:100B1C000023FB82514A3B681360514B00221A7030
:100B2C00504B00221A7089E04F4A07F10C031268EF
:100B3C00114619800233120C1A7000237B7518E0D1
:100B4C007B7B3B73BB7B7B73484B1A68FB8A591CC2
:100B5C00F98213441B78BB733B7BFF2B09D17B7B46
:100B6C00FF2B06D1BB7BFF2B03D0414B01221A700C
:100B7C0004E0404B1B88FA8A9A42E1D3BB7BFA799A
:100B8C009A4203D03A4B03221A7057E0374B1A683B
:100B9C00FB8A591CF98213441B781A46364B1B7876
:100BAC0002339A4202D001233B6147E02F4B1A6873
:100BBC00FB8A591CF98213441A782A4B1A702E4B53
:100BCC001A78FB791344DAB2264B1B781344DBB248
:100BDC0002337B7500233B7516E0244B1A68FB8AA5
:100BEC00591CF9821A441D4B19683B7D0B44127831
:100BFC001A701A4B1A683B7D13441A787B7D134488
:100C0C007B753B7D01333B751B4B1B783A7D9A42C0
:100C1C00E3D37B7DDB437B75144B1A68FB8A591C31
:100C2C00F98213441B787A7D9A4204D0104B02222D
:100C3C001A7000230DE0104B1B780AE0FB8A063378
:100C4C000D4A127813440B4A128893427FF76CAF0B
:100C5C00002318461C37BD4680BC7047900100200D
:100C6C008B01002089010020E8A1000894010020DC
:100C7C008A010020980100208C01002080B584B0EE
:100C8C0000AF0346FB711D4B1B7801331C4A1278D5
:100C9C00934202DB4FF0FF332BE01A4B1B68174AD1
:100CAC00127813441878174B1A68144B1B780133BD
:100CBC0013441B781946FFF7DDFDF8600F4B1B78CA
:100CCC000233DAB20D4B1A70FB79002B10D0FB7982
:100CDC00FA6842FA03F303F00103002B08D0FB7906
:100CEC00012202FA03F3DA43FB6813405B42FB6018
:100CFC00FB6818461037BD4680BD00BF8B01002035
:100D0C008C0100209001002080B582B000AF78608B
:100D1C0039603968786800F0E5F9034618460837F9
:100D2C00BD4680BD80B483B000AF7860396014E0FC
:100D3C00104B1B785BB2002B0FDB0E4B1B781A464B
:100D4C007B6819780C4B99540A4B1B780133DAB237
:100D5C00084B1A707B6801337B603B685A1E3A6003
:100D6C00002BE5D1034B1B7818460C37BD4680BCD5
:100D7C00704700BF1C0200209C01002080B483B08F
:100D8C0000AF0346FB710C4B1B785BB2002B0BDBEB
:100D9C00094B1B781946094AFB795354064B1B78AF
:100DAC000133DAB2044B1A70034B1B7818460C371C
:100DBC00BD4680BC704700BF1C0200209C01002077
:100DCC0080B500AF00F0A6F900BF80BD80B500AFC4
:100DDC00074B1B78002B08D0054B1B781946054890
:100DEC0000F06EF9024B00221A7000BF80BD00BFEC
:100DFC001C0200209C01002080B5C0B002AFF8603E
:100E0C007A603B600B46FB72002387F8F730A6E054
:100E1C0097F8F7305B007A681344B3F90030002B75
:100E2C0022DA97F8F7305B007A681344B3F9003094
:100E3C009BB25B4299B297F8F7305B007A68134427
:100E4C000AB21A8097F8F7305B007A681344B3F94A
:100E5C00003097F8F720520079680A446FEA434350
:100E6C006FEA53431BB213803B68002B08D097F8F2
:100E7C00F7305B003A6813441B88A7F8F43002E0A3
:100E8C000023A7F8F430D7F80031002B0FD097F8D7
:100E9C00F730D7F80021D11897F8F7201346DB006C
:100EAC009B1A0A78F8333B4403F8E42C09E097F8D2
:100EBC00F7201346DB009B1AF8333B44002203F85F
:100ECC00E42C97F8F7201346DB009B1A013307F14B
:100EDC001402D01897F8F7201346DB009B1A023344
:100EEC0007F11402D11897F8F7305B007A681344B5
:100EFC00B3F900301A46FFF799FC97F8F720134620
:100F0C00DB009B1A033307F11402D01897F8F72073
:100F1C001346DB009B1A043307F11402134400221E
:100F2C001946FFF783FC97F8F7201346DB009B1A52
:100F3C00053307F11402D01897F8F7201346DB009D
:100F4C009B1A063307F114021344B7F8F420194620
:100F5C00FFF76CFC97F8F730013387F8F73097F808
:100F6C00F720FB7A9A42FFF453AF07F11403F97A96
:100F7C00072200922922F868FFF7A4FC00BFF8377B
:100F8C00BD4680BD80B582B000AF04210320FFF7C1
:100F9C0095FD0023FB710EE0FB790B4A11880B4A7F
:100FAC0022F81310FB790A4A11880A4A22F8131006
:100FBC00FB790133FB71FB79022BEDD900BF00BF2C
:100FCC000837BD4680BD00BF080000203C02002051
:100FDC004A0200204402002080B584B002AF0423F2
:100FEC00382203212448FFF7F5FC0023FB713AE07B
:100FFC00FB79214AD35C21491846FFF783FD034650
:10100C00002B07D1FB791C4AD35C19461C4808F00D
:10101C004FF825E00F20FFF731FE0246FB7991B225
:10102C00184A22F813100F20FFF728FE0246FB790E
:10103C0091B2154A22F81310FB790F4AD35C19466A
:10104C00FB79104A32F813301846FB790E4A32F805
:10105C001330009303460A460C490D4808F050F82B
:10106C00FB790133FB71FB79022BC1D900BF00BFA7
:10107C000837BD4680BD00BF0400002030020020B0
:10108C00ECA10008200200202802002004A2000885
:10109C006002002080B582B002AF054B0093054B77
:1010AC00054A03210548FFF7A7FE00BFBD4680BDDA
:1010BC00440200203C0200203402002004000020E6
:1010CC0080B582B000AF786039603B689AB2642317
:1010DC007968034801F005FB00BF0837BD4680BDA9
:1010EC009400002080B582B000AF786039603B6816
:1010FC009AB264237968064801F07EFB0346002B04
:10110C0001D0002300E03B6818460837BD4680BD7F
:10111C009400002080B500AF012000F003F900BF5F
:10112C0080BD80B586B000AFF860B9607A600023EE
:10113C007B610AE0AFF300800146BB685A1CBA60C1
:10114C00CAB21A707B6901337B617A697B689A42F7
:10115C00F0DB7B6818461837BD4680BD80B586B07D
:10116C0000AFF860B9607A6000237B6109E0BB686E
:10117C005A1CBA601B781846AFF300807B690133A8
:10118C007B617A697B689A42F1DB7B681846183779
:10119C00BD4680BD80B483B000AF78604FF0FF33A4
:1011AC0018460C37BD4680BC704780B483B000AF86
:1011BC00786039603B684FF400525A60002318463F
:1011CC000C37BD4680BC704780B483B000AF7860EC
:1011DC00012318460C37BD4680BC704780B485B0DF
:1011EC0000AFF860B9607A60002318461437BD462A
:1011FC0080BC704780B586B000AF7860144A154B40
:10120C00D31A7B617B693B61134B1B68002B02D1AA
:10121C00114B124A1A60104B1A687B6813443A69D6
:10122C009A4207D207F020FE03460C221A604FF0B8
:10123C00FF3309E0084B1B68FB60074B1A687B689F
:10124C001344054A1360FB6818461837BD4680BD29
:10125C00005000200004000080020020A0050020A7
:10126C0080B500AF084B1B68074A43F010031360AE
:10127C00032001F0A5F90F2000F008F8FFF79EFA03
:10128C000023184680BD00BF0020024080B582B00C
:10129C0000AF7860124B1A68124B1B7819464FF44A
:1012AC007A73B3FBF1F3B2FBF3F3184601F0BDF91B
:1012BC000346002B01D001230EE07B680F2B0AD8CC
:1012CC00002279684FF0FF3001F085F9064A7B68FF
:1012DC001360002300E0012318460837BD4680BD8B
:1012EC0000000020100000200C00002080B400AF93
:1012FC00054B1B781A46054B1B681344034A1360B5
:10130C0000BFBD4680BC7047100000208402002046
:10131C0080B400AF024B1B681846BD4680BC7047BA
:10132C008402002080B584B000AF7860FFF7F0FF36
:10133C00B8607B68FB60FB68B3F1FF3F05D00A4BDC
:10134C001B781A46FB681344FB6000BFFFF7E0FFF5
:10135C000246BB68D31AFA689A42F7D800BF00BF9E
:10136C001037BD4680BD00BF1000002080B586B090
:10137C0000AF78607B68002B01D1012372E27B689F
:10138C001B6803F00103002B00F08780924B5B6815
:10139C0003F00C03042B0CD08F4B5B6803F00C0395
:1013AC00082B12D18C4B5B6803F48033B3F5803F70
:1013BC000BD1894B1B6803F40033002B6CD07B687A
:1013CC005B68002B68D101234CE27B685B68B3F54A
:1013DC00803F06D1804B1B687F4A43F480331360F7
:1013EC002EE07B685B68002B0CD17B4B1B687A4A28
:1013FC0023F480331360784B1B68774A23F48023E3
:10140C0013601DE07B685B68B3F5A02F0CD1724BA9
:10141C001B68714A43F4802313606F4B1B686E4A40
:10142C0043F4803313600BE06B4B1B686A4A23F464
:10143C0080331360684B1B68674A23F48023136066
:10144C007B685B68002B13D0FFF762FF386108E004
:10145C00FFF75EFF02463B69D31A642B01D90323C5
:10146C0000E25D4B1B6803F40033002BF0D014E05A
:10147C00FFF74EFF386108E0FFF74AFF02463B6971
:10148C00D31A642B01D90323ECE1534B1B6803F4EF
:10149C000033002BF0D100E000BF7B681B6803F029
:1014AC000203002B63D04C4B5B6803F00C03002B46
:1014BC000BD0494B5B6803F00C03082B1CD1464B3B
:1014CC005B6803F48033002B16D1434B1B6803F08D
:1014DC000203002B05D07B681B69012B01D0012373
:1014EC00C0E13D4B1B6823F0F8027B685B69DB00B5
:1014FC00394913430B603AE07B681B69002B20D001
:10150C00364B01221A60FFF703FF386108E0FFF742
:10151C00FFFE02463B69D31A022B01D90323A1E13A
:10152C002D4B1B6803F00203002BF0D02A4B1B68D9
:10153C0023F0F8027B685B69DB00274913430B60DF
:10154C0015E0264B00221A60FFF7E2FE386108E036
:10155C00FFF7DEFE02463B69D31A022B01D90323A7
:10156C0080E11D4B1B6803F00203002BF0D17B685C
:10157C001B6803F00803002B3AD07B689B69002B97
:10158C0019D0174B01221A60FFF7C2FE386108E030
:10159C00FFF7BEFE02463B69D31A022B01D9032387
:1015AC0060E10D4B5B6A03F00203002BF0D00120CD
:1015BC0000F0CEFA1CE00A4B00221A60FFF7A8FEDE
:1015CC0038610FE0FFF7A4FE02463B69D31A022BE9
:1015DC0008D9032346E100BF00100240000042423C
:1015EC0080044242924B5B6A03F00203002BE9D168
:1015FC007B681B6803F00403002B00F0A68000231B
:10160C00FB758B4BDB6903F08053002B0DD1884BA2
:10161C00DB69874A43F08053D361854BDB6903F068
:10162C008053BB60BB680123FB75824B1B6803F4C2
:10163C008073002B18D17F4B1B687E4A43F4807358
:10164C001360FFF765FE386108E0FFF761FE0246A4
:10165C003B69D31A642B01D9032303E1754B1B6837
:10166C0003F48073002BF0D07B68DB68012B06D170
:10167C006F4B1B6A6E4A43F0010313622DE07B68CB
:10168C00DB68002B0CD16A4B1B6A694A23F00103FF
:10169C001362674B1B6A664A23F0040313621CE057
:1016AC007B68DB68052B0CD1614B1B6A604A43F0ED
:1016BC00040313625E4B1B6A5D4A43F00103136221
:1016CC000BE05B4B1B6A5A4A23F001031362584B25
:1016DC001B6A574A23F0040313627B68DB68002BF8
:1016EC0015D0FFF715FE38610AE0FFF711FE024630
:1016FC003B69D31A41F28832934201D90323B1E0FA
:10170C004B4B1B6A03F00203002BEED014E0FFF7E7
:10171C00FFFD38610AE0FFF7FBFD02463B69D31A77
:10172C0041F28832934201D903239BE0404B1B6A60
:10173C0003F00203002BEED1FB7D012B05D13C4BBA
:10174C00DB693B4A23F08053D3617B68DB69002B58
:10175C0000F08780364B5B6803F00C03082B61D0DC
:10176C007B68DB69022B46D1334B00221A60FFF7F2
:10177C00CFFD386108E0FFF7CBFD02463B69D31A79
:10178C00022B01D903236DE0294B1B6803F0007376
:10179C00002BF0D17B681B6AB3F5803F08D1244B3A
:1017AC005B6823F400327B689B68214913434B60D0
:1017BC001F4B5B6823F474127B68196A7B685B6A45
:1017CC000B431B4913434B601B4B01221A60FFF761
:1017DC009FFD386108E0FFF79BFD02463B69D31A79
:1017EC00022B01D903233DE0114B1B6803F000735E
:1017FC00002BF0D035E0104B00221A60FFF788FD6B
:10180C00386108E0FFF784FD02463B69D31A022BCE
:10181C0001D9032326E0064B1B6803F00073002B51
:10182C00F0D11EE07B68DB69012B07D1012319E0A5
:10183C000010024000700040600042420B4B5B689D
:10184C00FB60FB6803F480327B681B6A9A4206D10A
:10185C00FB6803F470127B685B6A9A4201D0012327
:10186C0000E0002318461837BD4680BD001002402A
:10187C0080B584B000AF786039607B68002B01D1F3
:10188C000123D0E06A4B1B6803F007033A689A42C5
:10189C0010D9674B1B6823F0070265493B6813435B
:1018AC000B60634B1B6803F007033A689A4201D044
:1018BC000123B8E07B681B6803F00203002B20D0E7
:1018CC007B681B6803F00403002B05D0594B5B6845
:1018DC00584A43F4E06353607B681B6803F00803C9
:1018EC00002B05D0534B5B68524A43F46053536052
:1018FC00504B5B6823F0F0027B689B684D491343A7
:10190C004B607B681B6803F00103002B40D07B68A5
:10191C005B68012B07D1474B1B6803F40033002B8A
:10192C0015D101237FE07B685B68022B07D1414B0B
:10193C001B6803F00073002B09D1012373E03D4BAE
:10194C001B6803F00203002B01D101236BE0394B20
:10195C005B6823F003027B685B68364913434B607A
:10196C00FFF7D6FCF8600AE0FFF7D2FC0246FB68F2
:10197C00D31A41F28832934201D9032353E02D4B01
:10198C005B6803F00C027B685B689B009A42EBD1AE
:10199C00274B1B6803F007033A689A4210D2244B7A
:1019AC001B6823F0070222493B6813430B60204B52
:1019BC001B6803F007033A689A4201D0012332E016
:1019CC007B681B6803F00403002B08D0194B5B6881
:1019DC0023F4E0627B68DB68164913434B607B6839
:1019EC001B6803F00803002B09D0124B5B6823F42F
:1019FC0060527B681B69DB000E4913434B6000F09F
:101A0C0021F802460B4B5B681B0903F00F030A49D4
:101A1C00CB5C22FA03F3094A1360094B1B68184686
:101A2C00FFF734FC002318461037BD4680BD00BFBD
:101A3C00002002400010024020A2000800000020FC
:101A4C000C00002080B487B000AF0023FB600023A3
:101A5C00BB6000237B6100237B6000233B611E4B3A
:101A6C005B68FB60FB6803F00C03042B02D0082BB3
:101A7C0003D027E0194B3B6127E0FB689B0C03F07C
:101A8C000F03174AD35C7B60FB6803F48033002B95
:101A9C0010D0114B5B685B0C03F00103114AD35C53
:101AAC00BB607B680D4A03FB02F2BB68B2FBF3F32D
:101ABC007B6104E07B680C4A02FB03F37B617B696E
:101ACC003B6102E0054B3B6100BF3B6918461C378C
:101ADC00BD4680BC704700BF0010024000127A0067
:101AEC0038A2000848A2000800093D0080B400AFED
:101AFC00024B1B681846BD4680BC70470000002096
:101B0C0080B500AFFFF7F2FF0246054B5B681B0A7E
:101B1C0003F007030349CB5C22FA03F3184680BD9C
:101B2C000010024030A2000880B500AFFFF7DEFFC6
:101B3C000246054B5B68DB0A03F007030349CB5CE9
:101B4C0022FA03F3184680BD0010024030A20008B0
:101B5C0080B485B000AF78600A4B1B680A4AA2FBC0
:101B6C0003235B0A7A6802FB03F3FB6000BFFB688C
:101B7C005A1EFA60002BF9D100BF00BF1437BD46C6
:101B8C0080BC704700000020D34D621080B586B039
:101B9C0000AF786000233B610023FB607B681B680F
:101BAC0003F00103002B7DD00023FB754F4BDB6949
:101BBC0003F08053002B0DD14C4BDB694B4A43F0A7
:101BCC008053D361494BDB6903F08053BB60BB6826
:101BDC000123FB75464B1B6803F48073002B18D153
:101BEC00434B1B68424A43F480731360FFF790FB2E
:101BFC00386108E0FFF78CFB02463B69D31A642B73
:101C0C0001D903236DE03A4B1B6803F48073002B5E
:101C1C00F0D0364B1B6A03F44073FB60FB68002B5F
:101C2C002ED07B685B6803F44073FA689A4227D025
:101C3C002E4B1B6A23F44073FB602E4B01221A605F
:101C4C002C4B00221A60294AFB681362FB6803F0D4
:101C5C000103002B14D0FFF75BFB38610AE0FFF7A0
:101C6C0057FB02463B69D31A41F28832934201D9A1
:101C7C00032336E01D4B1B6A03F00203002BEED04E
:101C8C001A4B1B6A23F440727B685B681749134339
:101C9C000B62FB7D012B05D1144BDB69134A23F03E
:101CAC008053D3617B681B6803F00203002B08D0C0
:101CBC000E4B5B6823F440427B689B680B491343D3
:101CCC004B607B681B6803F01003002B08D0074B9C
:101CDC005B6823F480027B68DB68044913434B6028
:101CEC00002318461837BD4680BD00BF00100240C7
:101CFC00007000404004424280B48BB000AF78606A
:101D0C00396000237B6200233B6269E101227B6A1C
:101D1C0002FA03F3FB613B681B68FA691340BB6171
:101D2C00BA69FB699A4240F058813B685B689A4AF1
:101D3C0093425ED0984A934275D8984A934258D0B1
:101D4C00964A93426FD8964A934252D0944A934201
:101D5C0069D8944A93424CD0924A934263D8924A9F
:101D6C00934246D0904A93425DD8122B2AD8122B1C
:101D7C0059D801A252F823F0FF1D0008D91D000804
:101D8C00EB1D00082D1E0008331E0008331E000832
:101D9C00331E0008331E0008331E0008331E0008D3
:101DAC00331E0008331E0008331E0008331E0008C3
:101DBC00331E0008331E0008331E0008E11D000806
:101DCC00F51D0008794A934213D02CE03B68DB6880
:101DDC003B6229E03B68DB6804333B6224E03B68F0
:101DEC00DB6808333B621FE03B68DB680C333B620B
:101DFC001AE03B689B68002B02D104233B6213E082
:101E0C003B689B68012B05D108233B627B68FA6910
:101E1C001A6109E008233B627B68FA695A6103E0A6
:101E2C0000233B6200E000BFBB69FF2B01D87B683D
:101E3C0001E07B6804337B61BB69FF2B02D87B6AB2
:101E4C009B0002E07B6A083B9B003B617B691A6844
:101E5C000F213B6901FA03F3DB431A40396A3B69F2
:101E6C0001FA03F31A437B691A603B685B6803F061
:101E7C008053002B00F0B1804D4B9B694C4A43F0D2
:101E8C00010393614A4B9B6903F00103BB60BB6880
:101E9C00484A7B6A9B08023352F82330FB607B6A0A
:101EAC0003F003039B000F2202FA03F3DB43FA68EF
:101EBC001340FB607B68404A934213D07B683F4AD7
:101ECC0093420DD07B683E4A934207D07B683D4AD3
:101EDC00934201D1032306E0042304E0022302E031
:101EEC00012300E000237A6A02F00302920093407F
:101EFC00FA681343FB602F497B6A9B080233FA682C
:101F0C0041F823203B685B6803F48013002B06D058
:101F1C002D4B9A682C49BB6913438B6006E02A4B06
:101F2C009A68BB69DB43284913408B603B685B684C
:101F3C0003F40013002B06D0234BDA682249BB694B
:101F4C001343CB6006E0204BDA68BB69DB431E49C8
:101F5C001340CB603B685B6803F40033002B06D066
:101F6C00194B5A681849BB6913434B6006E0164B72
:101F7C005A68BB69DB43144913404B603B685B6890
:101F8C0003F48033002B21D00F4B1A680E49BB6928
:101F9C0013430B6021E000BF000032100000311031
:101FAC00000022100000211000001210000011107F
:101FBC00001002400000014000080140000C0140EC
:101FCC000010014000140140000401400B4B1A6842
:101FDC00BB69DB43094913400B607B6A01337B62AD
:101FEC003B681A687B6A22FA03F3002B7FF48EAEEF
:101FFC0000BF00BF2C37BD4680BC704700040140B9
:10200C0080B485B000AF78600023FB607B68002B48
:10201C0001D1012343E07B681B681A46224B134411
:10202C00224AA2FB03231B099A007B681A647B6873
:10203C001F4ADA637B68022283F821207B681B68C5
:10204C001B68FB60FB6823F47F5323F03003FB60B9
:10205C007B685A687B689B681A437B68DB681A4309
:10206C007B681B691A437B685B691A437B689B69B5
:10207C001A437B68DB691343FA681343FB607B6884
:10208C001B68FA681A607B6800229A637B680122DD
:10209C0083F821207B68002283F820200023184637
:1020AC001437BD4680BC7047F8FFFDBFCDCCCCCCFF
:1020BC000000024080B485B000AF78600023FB7351
:1020CC007B6893F82130DBB2022B08D07B680422AA
:1020DC009A637B68002283F82020012320E07B6830
:1020EC001B681A687B681B6822F00E021A607B68FA
:1020FC001B681A687B681B6822F001021A607B68F7
:10210C001A6C7B68DB6B012101FA02F25A607B6866
:10211C00012283F821207B68002283F82020FB7B9E
:10212C0018461437BD4680BC7047000080B584B09B
:10213C0000AF78600023FB737B6893F82130DBB22F
:10214C00022B05D07B6804229A630123FB7351E0B8
:10215C007B681B681A687B681B6822F00E021A6089
:10216C007B681B681A687B681B6822F001021A6086
:10217C007B681B68224A934229D07B681B68214AE2
:10218C00934222D07B681B681F4A93421AD07B680B
:10219C001B681E4A934212D07B681B681C4A9342F0
:1021AC000AD07B681B681B4A934202D14FF4801300
:1021BC000EE04FF080730BE04FF4803308E04FF4E7
:1021CC00805305E04FF4807302E0102300E00123FC
:1021DC00114A53607B68012283F821207B6800221E
:1021EC0083F820207B685B6B002B03D07B685B6BD8
:1021FC0078689847FB7B18461037BD4680BD00BFFA
:10220C00080002401C000240300002404400024022
:10221C00580002406C0002400000024080B584B0BF
:10222C0000AF78607B68DB6B1B68FB607B681B68AE
:10223C001B68BB607B681B6C04229A40FB681340D4
:10224C00002B4FD0BB6803F00403002B4AD07B68F3
:10225C001B681B6803F02003002B07D17B681B68ED
:10226C001A687B681B6822F004021A607B681B6882
:10227C00664A934229D07B681B68654A934222D0F8
:10228C007B681B68634A93421AD07B681B68624A5E
:10229C00934212D07B681B68604A93420AD07B68D9
:1022AC001B685F4A934202D14FF480030EE04FF05B
:1022BC0080630BE04FF4802308E04FF4804305E08B
:1022CC004FF4806302E0402300E00423554A53603E
:1022DC007B68DB6A002B00F094807B68DB6A786893
:1022EC0098478EE07B681B6C02229A40FB68134077
:1022FC00002B56D0BB6803F00203002B51D07B6837
:10230C001B681B6803F02003002B0BD17B681B6838
:10231C001A687B681B6822F00A021A607B6801222B
:10232C0083F821207B681B68384A934229D07B684C
:10233C001B68374A934222D07B681B68354A93420C
:10234C001AD07B681B68344A934212D07B681B6896
:10235C00324A93420AD07B681B68314A934202D1BD
:10236C004FF400130EE04FF000730BE04FF400330A
:10237C0008E04FF4005305E04FF4007302E0202313
:10238C0000E00223274A53607B68002283F8202058
:10239C007B689B6A002B34D07B689B6A7868984773
:1023AC002FE07B681B6C08229A40FB681340002BC3
:1023BC0028D0BB6803F00803002B23D07B681B6874
:1023CC001A687B681B6822F00E021A607B681A6C14
:1023DC007B68DB6B012101FA02F25A607B680122F7
:1023EC009A637B68012283F821207B68002283F8A2
:1023FC0020207B681B6B002B04D07B681B6B7868E0
:10240C00984700BF00BF1037BD4680BD0800024092
:10241C001C000240300002404400024058000240C0
:10242C006C0002400000024080B485B000AF7860C0
:10243C007B6803F00703FB600C4BDB68BB60BA687E
:10244C004FF6FF031340BB60FB681A02BB681343D3
:10245C0043F0BF6343F40033BB60044ABB68D360F2
:10246C0000BF1437BD4680BC704700BF00ED00E0D4
:10247C0080B400AF044BDB681B0A03F0070318465B
:10248C00BD4680BC704700BF00ED00E080B483B057
:10249C0000AF0346FB7197F90730002B0BDBFB7980
:1024AC0003F01F02064997F907305B09012000FA77
:1024BC0002F241F8232000BF0C37BD4680BC7047A8
:1024CC0000E100E080B483B000AF03463960FB71DB
:1024DC0097F90730002B0ADB3B68DAB20C4997F905
:1024EC0007301201D2B20B4483F800230AE03B6898
:1024FC00DAB20849FB7903F00F03043B1201D2B2A4
:10250C000B441A7600BF0C37BD4680BC704700BF29
:10251C0000E100E000ED00E080B489B000AFF860AD
:10252C00B9607A60FB6803F00703FB61FB69C3F1D8
:10253C000703042B28BF0423BB61FB690433062B60
:10254C0002D9FB69033B00E000237B614FF0FF32B3
:10255C00BB6902FA03F3DA43BB681A407B699A4001
:10256C004FF0FF317B6901FA03F3D9437B680B40D1
:10257C00134318462437BD4680BC704780B582B0E3
:10258C0000AF78607B68013BB3F1807F01D30123FE
:10259C000FE00A4A7B68013B53600F214FF0FF307C
:1025AC00FFF790FF054B00229A60044B07221A603C
:1025BC00002318460837BD4680BD00BF10E000E080
:1025CC0080B582B000AF78607868FFF72DFF00BF50
:1025DC000837BD4680BD80B586B000AF0346B960F4
:1025EC007A60FB7300237B61FFF742FF78617A68A6
:1025FC00B9687869FFF790FF024697F90F301146DA
:10260C001846FFF75FFF00BF1837BD4680BD80B589
:10261C0082B000AF0346FB7197F907301846FFF7FD
:10262C0035FF00BF0837BD4680BD80B582B000AF16
:10263C0078607868FFF7A2FF034618460837BD4656
:10264C0080BD80B582B000AF78607B68002B01D173
:10265C00012342E07B6893F84130DBB2002B06D1BA
:10266C007B68002283F840207868FDF759FF7B686F
:10267C00242283F841207B681B68DA687B681B681E
:10268C0022F40052DA60786800F0FAFD7B681B686F
:10269C001A697B681B6822F490421A617B681B687C
:1026AC005A697B681B6822F02A025A617B681B6896
:1026BC00DA687B681B6842F40052DA607B6800229F
:1026CC005A647B68202283F841207B68202283F89F
:1026DC0042207B6800225A63002318460837BD4607
:1026EC0080BD80B58AB002AFF860B9603B6013461C
:1026FC00FB8000237B61FB6893F84130DBB2202B1D
:10270C0075D1BB68002B02D0FB88002B01D10123B3
:10271C006EE0FB6800225A64FB68212283F841209A
:10272C00FEF7F6FD7861FB68FA889A84FB68FA88F4
:10273C00DA84FB689B68B3F5805F08D1FB681B6982
:10274C00002B04D10023FB61BB68BB6103E0BB68B9
:10275C00FB610023BB612EE03B6800937B69002288
:10276C008021F86800F098FB0346002B05D0FB682D
:10277C00202283F8412003233AE0FB69002B0BD184
:10278C00BB691B881A46FB681B68C2F308025A60B7
:10279C00BB690233BB6107E0FB691A78FB681B68F5
:1027AC005A60FB690133FB61FB68DB8C9BB2013B1C
:1027BC009AB2FB68DA84FB68DB8C9BB2002BCBD122
:1027CC003B6800937B6900224021F86800F064FBB1
:1027DC000346002B05D0FB68202283F841200323FD
:1027EC0006E0FB68202283F84120002300E002234E
:1027FC0018462037BD4680BD80B58AB002AFF86060
:10280C00B9603B601346FB8000237B61FB6893F847
:10281C004230DBB2202B40F08180BB68002B02D011
:10282C00FB88002B01D1012379E0FB6800225A645C
:10283C00FB68222283F84220FB6800221A63FEF711
:10284C0067FD7861FB68FA889A85FB68FA88DA85F7
:10285C00FB689B68B3F5805F08D1FB681B69002B94
:10286C0004D10023FB61BB68BB6103E0BB68FB6167
:10287C000023BB6147E03B6800937B690022202169
:10288C00F86800F009FB0346002B05D0FB682022FA
:10289C0083F84220032342E0FB69002B0CD1FB6838
:1028AC001B685B689BB2C3F308039AB2BB691A80BE
:1028BC00BB690233BB611FE0FB689B68B3F5805FAB
:1028CC0007D0FB689B68002B0AD1FB681B69002BA7
:1028DC0006D1FB681B685B68DAB2FB691A7008E00A
:1028EC00FB681B685B68DBB203F07F03DAB2FB6941
:1028FC001A70FB690133FB61FB68DB8D9BB2013BFA
:10290C009AB2FB68DA85FB68DB8D9BB2002BB2D1E7
:10291C00FB68202283F84220002300E002231846A3
:10292C002037BD4680BD000080B5BAB000AF7860DE
:10293C007B681B681B68C7F8E4307B681B68DB6826
:10294C00C7F8E0307B681B685B69C7F8DC30002394
:10295C00C7F8D8300023C7F8D430D7F8E43003F0E8
:10296C000F03C7F8D830D7F8D830002B0FD1D7F8D1
:10297C00E43003F02003002B09D0D7F8E03003F04B
:10298C002003002B03D0786800F0BCFB5BE2D7F887
:10299C00D830002B00F0DE80D7F8DC3003F00103D8
:1029AC00002B06D1D7F8E03003F49073002B00F025
:1029BC00D180D7F8E43003F00103002B0BD0D7F80B
:1029CC00E03003F48073002B05D07B685B6C43F024
:1029DC0001027B685A64D7F8E43003F00403002B3F
:1029EC000BD0D7F8DC3003F00103002B05D07B684B
:1029FC005B6C43F002027B685A64D7F8E43003F056
:102A0C000203002B0BD0D7F8DC3003F00103002BB2
:102A1C0005D07B685B6C43F004027B685A64D7F882
:102A2C00E43003F00803002B11D0D7F8E03003F0AA
:102A3C002003002B05D1D7F8DC3003F00103002B69
:102A4C0005D07B685B6C43F008027B685A647B683A
:102A5C005B6C002B00F0F281D7F8E43003F020031C
:102A6C00002B08D0D7F8E03003F02003002B02D065
:102A7C00786800F047FB7B681B685B6903F04003D8
:102A8C00002B14BF01230023DBB2C7F8D4307B68C2
:102A9C005B6C03F00803002B03D1D7F8D430002B68
:102AAC004FD0786800F051FA7B681B685B6903F0C3
:102ABC004003002B41D07B681B681433C7F89C3053
:102ACC00D7F89C3053E8003FC7F89830D7F89830C7
:102ADC0023F04003C7F8D0307B681B681433D7F859
:102AEC00D020C7F8A820C7F8A430D7F8A410D7F87E
:102AFC00A82041E80023C7F8A030D7F8A030002B5D
:102B0C00D9D17B68DB6B002B13D07B68DB6B7E4AE7
:102B1C005A637B68DB6B1846FFF708FB0346002BF8
:102B2C0016D07B68DB6B5B6B7A68D26B1046984770
:102B3C000EE0786800F09CF90AE0786800F098F9EB
:102B4C0006E0786800F094F97B6800225A6475E11D
:102B5C0000BF73E17B681B6B012B40F04F81D7F8F2
:102B6C00E43003F01003002B00F04881D7F8E0307C
:102B7C0003F01003002B00F041810023BB607B6845
:102B8C001B681B68BB607B681B685B68BB60BB68B1
:102B9C007B681B685B6903F04003002B00F0B68078
:102BAC007B68DB6B1B685B68A7F8BE30B7F8BE3080
:102BBC00002B00F045817B689B8DB7F8BE209A42B4
:102BCC0080F03E817B68B7F8BE20DA857B68DB6BD2
:102BDC009B69202B00F088807B681B680C33C7F83E
:102BEC008830D7F8883053E8003FC7F88430D7F8DE
:102BFC00843023F48073C7F8B8307B681B680C33BF
:102C0C00D7F8B820C7F89420C7F89030D7F89010B0
:102C1C00D7F8942041E80023C7F88C30D7F88C30D3
:102C2C00002BD9D17B681B6814337B677B6F53E80F
:102C3C00003F3B673B6F23F00103C7F8B4307B6860
:102C4C001B681433D7F8B420C7F88020FB67F96FE2
:102C5C00D7F8802041E80023BB67BB6F002BE1D184
:102C6C007B681B6814333B663B6E53E8003FFB6587
:102C7C00FB6D23F04003C7F8B0307B681B6814333E
:102C8C00D7F8B020FA66BB66B96EFA6E41E800233D
:102C9C007B667B6E002BE3D17B68202283F842207D
:102CAC007B6800221A637B681B680C33FB64FB6C2B
:102CBC0053E8003FBB64BB6C23F01003C7F8AC3087
:102CCC007B681B680C33D7F8AC20BA657B65796DD3
:102CDC00BA6D41E800233B653B6D002BE3D17B686B
:102CEC00DB6B1846FFF7E6F97B6802225A637B68B8
:102CFC009A8D7B68DB8D9BB2D31A9BB21946786890
:102D0C0000F0BFF89CE000BF1B3000087B689A8D78
:102D1C007B68DB8D9BB2D31AA7F8CE307B68DB8D3A
:102D2C009BB2002B00F08E80B7F8CE30002B00F059
:102D3C0089807B681B680C33BB63BB6B53E8003F1B
:102D4C007B637B6B23F49073C7F8C8307B681B687C
:102D5C000C33D7F8C8207A643B64396C7A6C41E840
:102D6C000023FB63FB6B002BE3D17B681B681433E4
:102D7C007B627B6A53E8003F3B623B6A23F00103B2
:102D8C00C7F8C4307B681B681433D7F8C4203A6387
:102D9C00FB62F96A3A6B41E80023BB62BB6A002B09
:102DAC00E3D17B68202283F842207B6800221A63DF
:102DBC007B681B680C333B613B6953E8003FFB604D
:102DCC00FB6823F01003C7F8C0307B681B680C331A
:102DDC00D7F8C020FA61BB61B969FA6941E80023F0
:102DEC007B617B69002BE3D17B6802225A63B7F8C5
:102DFC00CE301946786800F044F823E0D7F8E43078
:102E0C0003F08003002B09D0D7F8E03003F08003E7
:102E1C00002B03D0786800F00EF914E0D7F8E430FA
:102E2C0003F04003002B0ED0D7F8E03003F0400342
:102E3C00002B08D0786800F04DF904E000BF02E0E8
:102E4C0000BF00E000BFE837BD4680BD80B483B052
:102E5C0000AF786000BF0C37BD4680BC704780B4B3
:102E6C0083B000AF786000BF0C37BD4680BC7047A4
:102E7C0080B483B000AF786000BF0C37BD4680BC17
:102E8C00704780B483B000AF78600B467B8000BF86
:102E9C000C37BD4680BC704780B586B000AFF8607B
:102EAC00B9603B601346FB713BE03B6AB3F1FF3FFB
:102EBC0037D0FEF72DFA02463B68D31A3A6A9A428B
:102ECC0002D33B6A002B01D103233AE0FB681B6859
:102EDC00DB6803F00403002B23D0BB68802B20D0CD
:102EEC00BB68402B1DD0FB681B681B6803F00803F4
:102EFC00082B16D100237B61FB681B681B687B6168
:102F0C00FB681B685B687B617B69F86800F01DF8E7
:102F1C00FB6808225A64FB68002283F840200123D6
:102F2C000FE0FB681B681A68BB681340BA689A42CA
:102F3C000CBF01230023DBB21A46FB799A42B4D0B2
:102F4C00002318461837BD4680BD80B495B000AF3D
:102F5C0078607B681B680C337B637B6B53E8003FAA
:102F6C003B633B6B23F49073FB647B681B680C33F3
:102F7C00FA6C3A64FB63F96B3A6C41E80023BB636F
:102F8C00BB6B002BE5D17B681B6814333B623B6A3F
:102F9C0053E8003FFB61FB6923F00103BB647B68D2
:102FAC001B681433BA6CFA62BB62B96AFA6A41E8FC
:102FBC0000237B627B6A002BE5D17B681B6B012BAA
:102FCC0019D17B681B680C33FB60FB6853E8003F2E
:102FDC00BB60BB6823F010037B647B681B680C33FD
:102FEC007A6CBA617B617969BA6941E800233B610B
:102FFC003B69002BE5D17B68202283F842207B685B
:10300C0000221A6300BF5437BD4680BC704780B5A0
:10301C0084B000AF78607B685B6AFB60FB68002261
:10302C00DA85FB680022DA84F868FFF721FF00BF1D
:10303C001037BD4680BD80B485B000AF78607B682A
:10304C0093F84130DBB2212B3ED17B689B68B3F502
:10305C00805F14D17B681B69002B10D17B681B6AC5
:10306C00FB60FB681B881A467B681B68C2F308026E
:10307C005A607B681B6A9A1C7B681A6208E07B6842
:10308C001B6A591C7A6811621A787B681B685A6033
:10309C007B68DB8C9BB2013B9BB27A681946D1846E
:1030AC00002B0FD17B681B68DA687B681B6822F0E9
:1030BC008002DA607B681B68DA687B681B6842F008
:1030CC004002DA60002300E0022318461437BD46A4
:1030DC0080BC704780B582B000AF78607B681B689D
:1030EC00DA687B681B6822F04002DA607B68202279
:1030FC0083F841207868FFF7A9FE002318460837AB
:10310C00BD4680BD80B58CB000AF78607B6893F80D
:10311C004230DBB2222B40F0AE807B689B68B3F56B
:10312C00805F17D17B681B69002B13D10023FB62D6
:10313C007B689B6ABB627B681B685B689BB2C3F352
:10314C0008039AB2BB6A1A807B689B6A9A1C7B68DC
:10315C009A6226E07B689B6AFB620023BB627B68F9
:10316C009B68B3F5805F07D07B689B68002B0AD106
:10317C007B681B69002B06D17B681B685B68DAB225
:10318C00FB6A1A7008E07B681B685B68DBB203F0B3
:10319C007F03DAB2FB6A1A707B689B6A5A1C7B68E5
:1031AC009A627B68DB8D9BB2013B9BB27A681946B5
:1031BC00D185002B5DD17B681B68DA687B681B6846
:1031CC0022F02002DA607B681B68DA687B681B6877
:1031DC0022F48072DA607B681B685A697B681B6812
:1031EC0022F001025A617B68202283F842207B681E
:1031FC0000225A637B681B6B012B35D17B68002244
:10320C001A637B681B680C337B617B6953E8003F56
:10321C003B613B6923F010037B627B681B680C33BA
:10322C007A6A3A62FB61F9693A6A41E80023BB6148
:10323C00BB69002BE5D17B681B681B6803F010038E
:10324C00102B0AD10023FB607B681B681B68FB609A
:10325C007B681B685B68FB60FB687B689B8D194611
:10326C007868FFF70EFE02E07868FFF7F8FD0023A0
:10327C0002E0002300E0022318463037BD4680BD33
:10328C0080B584B000AF78607B681B681B6923F441
:10329C0040517B68DA687B681B680A431A617B685B
:1032AC009A687B681B691A437B685B691343BB6034
:1032BC007B681B68DB6823F4B05323F00C037A683B
:1032CC001268B9680B43D3607B681B685B6923F495
:1032DC0040717B689A697B681B680A435A617B68FA
:1032EC001B682C4A934203D1FEF71EFCF86002E0E7
:1032FC00FEF706FCF860FA6813469B0013449A002C
:10330C001A447B685B689B00B2FBF3F3224AA2FB76
:10331C0003235B091901FA6813469B0013449A00B6
:10332C001A447B685B689B00B2FBF3F21A4BA3FB5D
:10333C0002035B09642000FB03F3D31A1B01323335
:10334C00154AA2FB03235B0903F0F0031944FA6846
:10335C0013469B0013449A001A447B685B689B00DD
:10336C00B2FBF3F20C4BA3FB02035B09642000FBE2
:10337C0003F3D31A1B013233074AA2FB03235B0965
:10338C0003F00F027B681B680A449A6000BF103779
:10339C00BD4680BD003801401F85EB5180B500AFA4
:1033AC00174B184A1A60164B04225A60144B002211
:1033BC009A60134B0022DA60114B4FF440321A61C1
:1033CC000F4B4FF440125A610D4B00221A760C4BE6
:1033DC0001225A760A4B01229A76094B0122DA769F
:1033EC00074B00221A77064B00225A77044800F04C
:1033FC0073F80346002B01D0FDF70EF800BF80BD1B
:10340C00880200200064004080B58AB000AF78606C
:10341C0007F1140300221A605A609A60DA607B6824
:10342C001B68294A93424BD1284BDB69274A43F04E
:10343C000073D361254BDB6903F000733B613B697F
:10344C00224B9B69214A43F0080393611F4B9B69F4
:10345C0003F00803FB60FB684FF480737B6100236F
:10346C00BB610023FB6107F1140319461848FEF7F2
:10347C0043FC4FF400737B610223BB6103233B626B
:10348C0007F1140319461248FEF736FC114B5B6822
:10349C007B627B6A23F4C0437B627B6A43F0E0630C
:1034AC007B627B6A43F480437B620A4A7B6A53608B
:1034BC00002200211520FFF78EF81520FFF7A7F842
:1034CC0000BF2837BD4680BD00640040001002409C
:1034DC00000C01400000014080B584B000AF786062
:1034EC007B68002B01D10123EDE07B6893F8203041
:1034FC00DBB2002B02D17868FFF786FF7B681B6874
:10350C001A687B681B6842F001021A60FDF700FF25
:10351C00F86012E0FDF7FCFE0246FB68D31A0A2B9A
:10352C000BD97B685B6A43F400327B685A627B6818
:10353C00052283F820200123C5E07B681B685B68AB
:10354C0003F00103002BE5D07B681B681A687B68CD
:10355C001B6822F002021A60FDF7DAFEF86012E036
:10356C00FDF7D6FE0246FB68D31A0A2B0BD97B68F3
:10357C005B6A43F400327B685A627B68052283F8ED
:10358C00202001239FE07B681B685B6803F002032B
:10359C00002BE5D17B681B7E012B08D17B681B6857
:1035AC001A687B681B6842F080021A6007E07B682F
:1035BC001B681A687B681B6822F080021A607B68A3
:1035CC005B7E012B08D17B681B681A687B681B68C3
:1035DC0042F040021A6007E07B681B681A687B683F
:1035EC001B6822F040021A607B689B7E012B08D17D
:1035FC007B681B681A687B681B6842F020021A60A3
:10360C0007E07B681B681A687B681B6822F0200245
:10361C001A607B68DB7E012B08D17B681B681A68FB
:10362C007B681B6822F010021A6007E07B681B683D
:10363C001A687B681B6842F010021A607B681B7F5B
:10364C00012B08D17B681B681A687B681B6842F0E9
:10365C0008021A6007E07B681B681A687B681B68A5
:10366C0022F008021A607B685B7F012B08D17B6813
:10367C001B681A687B681B6842F004021A6007E03A
:10368C007B681B681A687B681B6822F004021A604E
:10369C007B689A687B68DB681A437B681B691A43F2
:1036AC007B685B6942EA03017B685B685A1E7B6836
:1036BC001B680A43DA617B6800225A627B6801222C
:1036CC0083F82020002318461037BD4680BD80B4F7
:1036DC0087B000AF786039607B681B687B617B6862
:1036EC0093F82030FB74FB7C012B03D0FB7C022B6A
:1036FC0040F0AA807B69D3F8003243F001027B6969
:10370C00C3F800223B685B6903F01F03012202FA35
:10371C0003F3FB607B69D3F81C22FB68DB431A4084
:10372C007B69C3F81C223B68DB69002B23D17B69C6
:10373C00D3F80C22FB68DB431A407B69C3F80C22DC
:10374C003B68DB6819043B685B689BB23A6852695A
:10375C0019437B69483243F832103B689B68190463
:10376C003B681B689AB23B685B690A4379694833CA
:10377C00DB000B445A603B68DB69012B22D17B696F
:10378C00D3F80C22FB681A437B69C3F80C223B6804
:10379C001B6819043B685B689BB23A685269194311
:1037AC007B69483243F832103B689B6819043B68CC
:1037BC00DB689AB23B685B690A4379694833DB0082
:1037CC000B445A603B689B69002B09D17B69D3F889
:1037DC000422FB68DB431A407B69C3F8042207E030
:1037EC007B69D3F80422FB681A437B69C3F8042273
:1037FC003B681B69002B09D17B69D3F81422FB6849
:10380C00DB431A407B69C3F8142207E07B69D3F8C9
:10381C001422FB681A437B69C3F814223B681B6AA9
:10382C00012B07D17B69D3F81C22FB681A437B69F7
:10383C00C3F81C227B69D3F8003223F001027B69A8
:10384C00C3F80022002306E07B685B6A43F4802205
:10385C007B685A62012318461C37BD4680BC7047F2
:10386C0080B584B000AF78607B6893F82030DBB211
:10387C00012B2ED17B68022283F820207B681B68E9
:10388C001A687B681B6822F001021A60FDF740FD84
:10389C00F86012E0FDF73CFD0246FB68D31A0A2BD8
:1038AC000BD97B685B6A43F400327B685A627B6895
:1038BC00052283F82020012312E07B681B685B68DB
:1038CC0003F00103002BE5D17B6800225A62002330
:1038DC0006E07B685B6A43F400227B685A62012332
:1038EC0018461037BD4680BD80B489B000AFF86073
:1038FC00B9607A603B60FB6893F82030FB77FB681B
:10390C001B689B68BB61FB7F012B03D0FB7F022BE9
:10391C0040F0AD80BB6903F08063002B0AD1BB691A
:10392C0003F00063002B05D1BB6903F08053002B1F
:10393C0000F09580BB691B0E03F003037B61012231
:10394C007B699A403B681A60BB689B68002B0DD161
:10395C00BB681B685A05BB68DB68F96809681A43C1
:10396C007B6918331B010B441A600FE0BB685B6862
:10397C00DA00BB689B681A43BB68DB68F9680968A6
:10398C001A437B6918331B010B441A60FB681968D6
:10399C00BB681A697B6918331B010B4404331A602A
:1039AC00BB681B7D012B11D1FB681A687B6918332E
:1039BC001B01134404331B68FA68116843F48072CA
:1039CC007B6918331B010B4404331A607B68073383
:1039DC001B781A067B6806331B781B041A437B681A
:1039EC0005331B781B0213437A6804321278104695
:1039FC00FA68116843EA00027B691B010B4403F56A
:103A0C00C6731A607B6803331B781A067B68023313
:103A1C001B781B041A437B6801331B781B0213436E
:103A2C007A6812781046FA68116843EA00027B69DA
:103A3C001B010B4403F5C4731A60FB681A687B699D
:103A4C0018331B0113441B68FA68116843F0010218
:103A5C007B6918331B010B441A6000230EE0FB68D2
:103A6C005B6A43F40012FB685A62012306E0FB68B0
:103A7C005B6A43F48022FB685A62012318462437A0
:103A8C00BD4680BC704780B487B000AFF860B960A9
:103A9C007A603B60FB6893F82030FB75FB7D012B53
:103AAC0003D0FB7D022B40F00381BB68002B0ED1B1
:103ABC00FB681B68DB6803F00303002B16D1FB6863
:103ACC005B6A43F40012FB685A620123F7E0FB685F
:103ADC001B681B6903F00303002B07D1FB685B6AAF
:103AEC0043F40012FB685A620123E8E0FB681A6891
:103AFC00BB681B331B0113441B6803F004027B6877
:103B0C009A607B689B68002B0CD1FB681A68BB68B9
:103B1C001B331B0113441B685B0DC3F30A027B6848
:103B2C001A600BE0FB681A68BB681B331B0113445B
:103B3C001B68DB0823F060427B685A60FB681A68DC
:103B4C00BB681B331B0113441B6803F002027B6828
:103B5C00DA60FB681A68BB681B331B01134404331F
:103B6C001B6803F00803002B03D07B6808221A6142
:103B7C000BE0FB681A68BB681B331B01134404334E
:103B8C001B6803F00F027B681A61FB681A68BB683C
:103B9C001B331B01134404331B681B0ADAB27B680A
:103BAC009A61FB681A68BB681B331B01134404330E
:103BBC001B681B0C9AB27B685A61FB681A68BB685D
:103BCC001B01134403F5DC731B68DAB23B681A70F3
:103BDC00FB681A68BB681B01134403F5DC731B6894
:103BEC001A0A3B680133D2B21A70FB681A68BB68B8
:103BFC001B01134403F5DC731B681A0C3B6802337E
:103C0C00D2B21A70FB681A68BB681B01134403F527
:103C1C00DC731B681A0E3B680333D2B21A70FB6854
:103C2C001A68BB681B01134403F5DE731A683B6802
:103C3C000433D2B21A70FB681A68BB681B011344B8
:103C4C0003F5DE731B681A0A3B680533D2B21A708F
:103C5C00FB681A68BB681B01134403F5DE731B6811
:103C6C001A0C3B680633D2B21A70FB681A68BB6830
:103C7C001B01134403F5DE731B681A0E3B680733F4
:103C8C00D2B21A70BB68002B08D1FB681B68DA68CB
:103C9C00FB681B6842F02002DA6007E0FB681B68D7
:103CAC001A69FB681B6842F020021A61002306E0C7
:103CBC00FB685B6A43F48022FB685A620123184656
:103CCC001C37BD4680BC704780B485B000AF7860AF
:103CDC0039607B6893F82030FB73FB7B012B02D09F
:103CEC00FB7B022B09D17B681B6859697B681B68BD
:103CFC003A680A435A61002306E07B685B6A43F426
:103D0C0080227B685A62012318461437BD4680BC5A
:103D1C00704780B58AB000AF786000237B627B6807
:103D2C001B685B693B627B681B685B68FB617B683B
:103D3C001B689B68BB617B681B68DB687B617B686D
:103D4C001B681B693B617B681B689B69FB603B6A5A
:103D5C0003F00103002B7CD0BB6903F00103002BA3
:103D6C0023D07B681B6801229A60BB6903F00203B5
:103D7C00002B03D0786800F083F916E0BB6903F0E0
:103D8C000403002B04D07B6A43F400637B620CE0D9
:103D9C00BB6903F00803002B04D07B6A43F4805307
:103DAC007B6202E0786800F086F9BB6903F48073EB
:103DBC00002B24D07B681B684FF480729A60BB691F
:103DCC0003F40073002B03D0786800F062F916E05E
:103DDC00BB6903F48063002B04D07B6A43F400536B
:103DEC007B620CE0BB6903F40063002B04D07B6A9C
:103DFC0043F480437B6202E0786800F065F9BB69AC
:103E0C0003F48033002B24D07B681B684FF4803282
:103E1C009A60BB6903F40033002B03D0786800F080
:103E2C0041F916E0BB6903F48023002B04D07B6AB4
:103E3C0043F400437B620CE0BB6903F40023002BCA
:103E4C0004D07B6A43F480337B6202E0786800F034
:103E5C0044F93B6A03F00803002B0CD07B6903F098
:103E6C001003002B07D07B6A43F400737B627B68E2
:103E7C001B681022DA603B6A03F00403002B0BD0A2
:103E8C007B6903F00803002B06D07B681B680822B3
:103E9C00DA60786800F033F93B6A03F00203002B18
:103EAC0009D07B681B68DB6803F00303002B02D08E
:103EBC00786800F01BF93B6A03F04003002B0CD030
:103ECC003B6903F01003002B07D07B6A43F480633B
:103EDC007B627B681B6810221A613B6A03F020032B
:103EEC00002B0BD03B6903F00803002B06D07B683A
:103EFC001B6808221A61786800F00AF93B6A03F023
:103F0C001003002B09D07B681B681B6903F00303AB
:103F1C00002B02D07868FCF705FC3B6A03F40033F5
:103F2C00002B0BD0FB6903F01003002B06D07B6831
:103F3C001B6810225A60786800F0F3F83B6A03F4AF
:103F4C008033002B0BD0FB6903F00803002B06D049
:103F5C007B681B6808225A60786800F0EBF83B6AB3
:103F6C0003F40043002B7BD0FB6903F00403002B0C
:103F7C0072D03B6A03F48073002B08D0FB6803F00B
:103F8C000103002B03D07B6A43F001037B623B6A85
:103F9C0003F40073002B08D0FB6803F00203002B22
:103FAC0003D07B6A43F002037B623B6A03F48063B9
:103FBC00002B08D0FB6803F00403002B03D07B6AB2
:103FCC0043F004037B623B6A03F40063002B43D091
:103FDC00FB6803F07003002B3ED0FB6803F070030A
:103FEC00602B2BD0602B2ED8502B22D0502B2AD8C4
:103FFC00402B19D0402B26D8302B10D0302B22D868
:10400C00102B02D0202B05D01DE07B6A43F0080357
:10401C007B6219E07B6A43F010037B6214E07B6ADD
:10402C0043F020037B620FE07B6A43F040037B622A
:10403C000AE07B6A43F080037B6205E07B6A43F411
:10404C0080737B6200E000BF7B681B689A697B68A9
:10405C001B6822F070029A617B681B6804225A600C
:10406C007B6A002B08D07B685A6A7B6A1A437B6890
:10407C005A62786800F067F800BF2837BD4680BDEB
:10408C0080B483B000AF786000BF0C37BD4680BCF5
:10409C00704780B483B000AF786000BF0C37BD466A
:1040AC0080BC704780B483B000AF786000BF0C3721
:1040BC00BD4680BC704780B483B000AF786000BF51
:1040CC000C37BD4680BC704780B483B000AF7860BD
:1040DC0000BF0C37BD4680BC704780B483B000AFC6
:1040EC00786000BF0C37BD4680BC704780B483B08D
:1040FC0000AF786000BF0C37BD4680BC704780B401
:10410C0083B000AF786000BF0C37BD4680BC7047F1
:10411C0080B483B000AF786000BF0C37BD4680BC64
:10412C00704780B483B000AF786000BF0C37BD46D9
:10413C0080BC704780B483B000AF786000BF0C3790
:10414C00BD4680BC704780B483B000AF786000BFC0
:10415C000C37BD4680BC704780B582B000AF78602C
:10416C007B68D3F8D4227B6803F526731946104676
:10417C0003F0BDFE00BF0837BD4680BD80B582B0E0
:10418C0000AF78600B46FB707B68D3F8D402FA78EA
:10419C00796813469B001344DB000B4403F5B273A0
:1041AC001A68FB78194603F0EFFE00BF0837BD46CE
:1041BC0080BD80B582B000AF78600B46FB707B6829
:1041CC00D3F8D402FA78796813469B001344DB00C9
:1041DC000B4424331A68FB78194603F046FF00BFE2
:1041EC000837BD4680BD80B582B000AF78607B6873
:1041FC00D3F8D432184604F056F800BF0837BD4641
:10420C0080BD80B584B000AF78600123FB737B6800
:10421C009B79022B01D0FCF7FFF87B68D3F8D432E2
:10422C00FA7B1146184604F006F87B68D3F8D432B2
:10423C00184603F0BFFF00BF1037BD4680BD00001D
:10424C0080B582B000AF78607B68D3F8D432184662
:10425C0004F000F87B689B7A002B05D0044B1B699B
:10426C00034A43F00603136100BF0837BD4680BD07
:10427C0000ED00E080B582B000AF78607B68D3F8C9
:10428C00D432184603F0FAFF00BF0837BD4680BD94
:10429C0080B584B000AF7860084611461A460346D4
:1042AC00FB700B46BB7013463B800023FB73002353
:1042BC00BB737B68D3F8C002BB783A88F97800F0FE
:1042CC005BFA0346FB73FB7B184600F0D5F80346FC
:1042DC00BB73BB7B18461037BD4680BD80B584B020
:1042EC0000AF78600B46FB700023FB730023BB739D
:1042FC007B68D3F8C032FA781146184600F001FBFF
:10430C000346FB73FB7B184600F0B6F80346BB7301
:10431C00BB7B18461037BD4680BD80B584B000AF5E
:10432C0078600B46FB700023FB730023BB737B6828
:10433C00D3F8C032FA781146184600F042FB034617
:10434C00FB73FB7B184600F097F80346BB73BB7BF3
:10435C0018461037BD4680BD80B485B000AF78607C
:10436C000B46FB707B68D3F8C032FB6097F90330C7
:10437C00002B0BDAFB7803F07F02F96813469B00E5
:10438C001344DB000B4412331B780BE0FB7803F077
:10439C007F02F96813469B001344DB000B4403F5C2
:1043AC00A9731B7818461437BD4680BC704780B57E
:1043BC0084B000AF78600B46FB700023FB730023C6
:1043CC00BB737B68D3F8C032FA781146184600F0FC
:1043DC00AFF90346FB73FB7B184600F04DF8034620
:1043EC00BB73BB7B18461037BD4680BD80B586B00D
:1043FC0000AFF8607A601A460B46FB7213463B819D
:10440C000023FB750023BB75FB68D3F8C0023B8906
:10441C00F97A7A6800F03EFA0346FB75FB7D184684
:10442C0000F02AF80346BB75BB7D18461837BD460D
:10443C0080BD80B586B000AFF8607A601A460B4636
:10444C00FB7213463B810023FB750023BB75FB6895
:10445C00D3F8C0023B89F97A7A6800F0EAF903468E
:10446C00FB75FB7D184600F007F80346BB75BB7D5A
:10447C0018461837BD4680BD80B485B000AF0346E2
:10448C00FB710023FB73FB79032B17D801A252F8A5
:10449C0023F000BFB1440008B7440008BD44000835
:1044AC00C34400080023FB730BE00223FB7308E0FA
:1044BC000123FB7305E00223FB7302E00223FB7371
:1044CC0000BFFB7B18461437BD4680BC704700BF4D
:1044DC0080B588B000AF78607B681B68184603F025
:1044EC001CFCB861BB6903F40043002B03D0786853
:1044FC0000F0BBFA19E1BB6903F48063002B13D005
:10450C007B681B68B3F844309AB27B681B6822F452
:10451C00806292B2A3F844207868FFF772FE002103
:10452C00786800F005F900E1BB6903F48043002BC7
:10453C000CD07B681B68B3F844309AB27B681B685C
:10454C0022F4804292B2A3F84420EEE0BB6903F45B
:10455C000053002B0CD07B681B68B3F844309AB224
:10456C007B681B6822F4005292B2A3F84420DCE072
:10457C00BB6903F48053002B27D07B681B68B3F80E
:10458C0040309AB27B681B6822F0040292B2A3F806
:10459C0040207B681B68B3F840309AB27B681B687C
:1045AC0022F0080292B2A3F840207868FFF762FE6E
:1045BC007B681B68B3F844309AB27B681B6822F4A2
:1045CC00805292B2A3F84420AFE0BB6903F40063BD
:1045DC00002B00F083800023FB7710E07B681B68C6
:1045EC001A46FB7F9B001A44FB7F128892B25B0039
:1045FC0020333B4423F8182CFB7F0133FB77FB7FE4
:10460C00072BEBD97B681B68B3F840309AB27B68F8
:10461C001B6842F0010292B2A3F840207B681B6831
:10462C00B3F840309AB27B681B6822F0010292B258
:10463C00A3F8402000BF7B681B68B3F844309BB2E2
:10464C0003F48063002BF6D07B681B68B3F844300E
:10465C009AB27B681B6822F4806292B2A3F8442061
:10466C000023FB770FE0FB7F7A6812681146FA7F14
:10467C0092000A445B0020333B4433F8183C13800F
:10468C00FB7F0133FB77FB7F072BECD97B681B6827
:10469C00B3F840309AB27B681B6842F0080292B2C1
:1046AC00A3F840207B681B68B3F844309AB27B684F
:1046BC001B6822F4006292B2A3F844207B681B684A
:1046CC00B3F840309AB27B681B6842F0040292B295
:1046DC00A3F840207868FFF7B3FD26E0BB6903F42C
:1046EC000073002B0FD07B681B68B3F844309AB270
:1046FC007B681B6822F4007292B2A3F8442078689D
:10470C00FFF771FD11E0BB6903F48073002B0CD033
:10471C007B681B68B3F844309AB27B681B6822F440
:10472C00807292B2A3F8442000BF2037BD4680BDF2
:10473C0080B582B000AF78600B46FB707B6893F855
:10474C009032012B01D1022312E07B68012283F805
:10475C0090227B68FA785A737B681B68FA7811464A
:10476C00184603F0C7FA7B68002283F890220023D6
:10477C0018460837BD4680BD80B584B000AF786060
:10478C00084611461A460346FB700B463B801346FF
:10479C00BB700023FB7297F90330002B0EDAFB7809
:1047AC0003F0070213469B001344DB0010337A68B6
:1047BC001344FB60FB6801225A700EE0FB7803F097
:1047CC00070213469B001344DB0003F5A8737A68B9
:1047DC001344FB60FB6800225A70FB7803F007035C
:1047EC00DAB2FB681A703A88FB681A61FB68BA780F
:1047FC00DA70BB78022B02D1FB6800221A717B683D
:10480C0093F89032012B01D102230EE07B68012238
:10481C0083F890227B681B68F968184601F0FCF954
:10482C007B68002283F89022FB7A18461037BD462D
:10483C0080BD80B586B000AFF8607A603B600B46F7
:10484C00FB72FB7A03F0070213469B001344DB0058
:10485C0003F5A873FA6813447B617B697A685A6123
:10486C007B693A689A617B690022DA617B69002274
:10487C005A70FB7A03F00703DAB27B691A70FB6893
:10488C001B687969184601F087FD00231846183714
:10489C00BD4680BD80B586B000AFF8607A603B60E5
:1048AC000B46FB72FB7A03F0070213469B00134482
:1048BC00DB001033FA6813447B617B697A685A61B8
:1048CC007B693A689A617B69012283F824207B69B1
:1048DC003A681A627B690022DA617B6901225A709C
:1048EC00FB7A03F00703DAB27B691A70FB681B686A
:1048FC007969184601F050FD002318461837BD465B
:10490C0080BD80B584B000AF78600B46FB70FB783F
:10491C0003F007037A681279934201D901234CE022
:10492C0097F90330002B0EDAFB7803F007021346DD
:10493C009B001344DB0010337A681344FB60FB6864
:10494C0001225A700CE0FA7813469B001344DB00EA
:10495C0003F5A8737A681344FB60FB6800225A7055
:10496C00FB6801229A70FB7803F00703DAB2FB684C
:10497C001A707B6893F89032012B01D102231CE052
:10498C007B68012283F890227B681B68F9681846C3
:10499C0003F0B3F8FB7803F00703002B08D17B6816
:1049AC001A687B6803F526731946104603F0C4F9A0
:1049BC007B68002283F89022002318461037BD46EE
:1049CC0080BD80B584B000AF78600B46FB70FB787F
:1049DC0003F00F037A681279934201D9012340E066
:1049EC0097F90330002B0EDAFB7803F0070213461D
:1049FC009B001344DB0010337A681344FB60FB68A4
:104A0C0001225A700EE0FB7803F0070213469B005C
:104A1C001344DB0003F5A8737A681344FB60FB684E
:104A2C0000225A70FB6800229A70FB7803F007038F
:104A3C00DAB2FB681A707B6893F89032012B01D1C3
:104A4C0002230EE07B68012283F890227B681B68AE
:104A5C00F968184603F0A1F87B68002283F89022CD
:104A6C00002318461037BD4680BD80B596B000AF08
:104A7C007860BCE37B681B68B3F84430A7F84E3011
:104A8C00B7F84E30DBB203F00F0387F84D3097F8D0
:104A9C004D30002B40F07681B7F84E3003F0100308
:104AAC00002B4FD17B681B681B889BB223F4E1431E
:104ABC0023F07003FB817B681A68FB896FEA434320
:104ACC006FEA53439BB213807B6810337B657B6822
:104ADC001B68B3F850309BB21A467B6D1B78DB0019
:104AEC00134402335B007A681268134403F5806345
:104AFC001B88C3F309027B6DDA617B6D5A697B6D90
:104B0C00DB691A447B6D5A6100217868FFF751FB11
:104B1C007B685B7BDBB2002B00F069837B6D9B6950
:104B2C00002B40F064837B685B7BDBB263F07F031C
:104B3C00DAB27B681B6892B2A3F84C207B68002227
:104B4C005A7354E37B6803F5A8737B657B681B6819
:104B5C001B88A7F84A30B7F84A3003F40063002BDF
:104B6C0034D07B681B68B3F850309BB21A467B6D0F
:104B7C001B78DB00134406335B007A68126813441D
:104B8C0003F580631B88C3F309027B6DDA617B68D4
:104B9C0018687B6803F526717B6DDA887B6DDB69A1
:104BAC009BB203F019F97B681B681B889AB240F61C
:104BBC008F7313403B827B681B683A8A42F08002F9
:104BCC0092B21A807868FFF7C7FA10E3B7F94A3047
:104BDC00002B80F20C837B681B681B889AB240F612
:104BEC008F731340FB837B681B68FA8B42F0800247
:104BFC0092B21A807B681B68B3F850309BB21A468D
:104C0C007B6D1B78DB00134406335B007A681268FB
:104C1C00134403F580631B88C3F309027B6DDA61CF
:104C2C007B6DDB69002B19D07B6D5B69002B15D07C
:104C3C007B6818687B6D59697B6DDA887B6DDB69E5
:104C4C009BB203F0C9F87B6D5A697B6DDB691A4422
:104C5C007B6D5A6100217868FFF790FA7B681B68BE
:104C6C001B88A7F84A30B7F84A3003F40063002BCE
:104C7C0040F0BD82B7F84A3003F44053B3F5405FBF
:104C8C0000F0B5827B681B68BB617B681B68B3F85E
:104C9C0050309BB21A46BB691344BB61BB6903F22B
:104CAC000C437B617B691B889BB2C3F309039AB2EB
:104CBC007B691A807B6D1B693E2B1DD97B6D1B6933
:104CCC005B097B647B6D1B6903F01F03002B02D116
:104CDC007B6C013B7B647B691B889AB27B6C9BB2BF
:104CEC009B029BB213439BB26FEA43436FEA53435D
:104CFC009AB27B691A8026E07B6D1B69002B0AD166
:104D0C007B691B889BB26FEA43436FEA53439AB2A9
:104D1C007B691A8017E07B6D1B695B087B647B6D7C
:104D2C001B6903F00103002B02D07B6C01337B6405
:104D3C007B691B889AB27B6C9BB29B029BB2134320
:104D4C009AB27B691A807B681B681B889BB223F420
:104D5C00804323F070037B827B8A83F480537B82B5
:104D6C007B8A83F400537B827B681A687B8A43F0CE
:104D7C007F4343F47F0343F4004343F080039BB22F
:104D8C00138034E27B681B681A4697F84D309B0001
:104D9C0013441B88A7F84A30B7F94A30002B80F22D
:104DAC00FC807B681B681A4697F84D309B001344B7
:104DBC001B889AB240F68F731340A7F848307B6873
:104DCC001B681A4697F84D309B001344B7F84820DF
:104DDC0042F0800292B21A8097F84D2013469B0045
:104DEC001344DB0003F5A8737A6813447B657B6D71
:104DFC001B7B002B25D17B681B68B3F850309BB212
:104E0C001A467B6D1B78DB00134406335B007A6813
:104E1C001268134403F580631B88C3F30903A7F8D6
:104E2C005030B7F85030002B00F092807B68186837
:104E3C007B6D59697B6DDA88B7F8503002F0CCFF86
:104E4C0086E07B6DDB78022B0AD1B7F84A301A4624
:104E5C00796D786800F0D9F90346A7F8503077E0FF
:104E6C007B681B681A467B6D1B789B0013441B8860
:104E7C009BB223F4E04323F07003A7F852307B6815
:104E8C001B681A467B6D1B789B001A44B7F852308E
:104E9C0043F07F4343F47F0343F4004343F0C003E8
:104EAC009BB213807B681B681A467B6D1B789B003A
:104EBC0013441B889BB203F48043002B24D07B68E3
:104ECC001B68B3F850309BB21A467B6D1B78DB0025
:104EDC00134402335B007A681268134403F5806351
:104EEC001B88C3F30903A7F85030B7F85030002BD8
:104EFC002ED07B6818687B6D59697B6D1A89B7F861
:104F0C00503002F069FF23E07B681B68B3F8503027
:104F1C009BB21A467B6D1B78DB00134406335B0097
:104F2C007A681268134403F580631B88C3F3090382
:104F3C00A7F85030B7F85030002B09D07B681868B0
:104F4C007B6D59697B6D5A89B7F8503002F044FF7C
:104F5C007B6DDA69B7F850301A447B6DDA617B6D82
:104F6C005A69B7F850301A447B6D5A617B6D9B6956
:104F7C00002B05D0B7F850207B6D1B699A4206D2E6
:104F8C007B6D1B7819467868FFF7F8F805E07B68AD
:104F9C001B68796D184601F0FFF9B7F84A3003F039
:104FAC008003002B00F0238197F84D2013469B00C3
:104FBC001344DB0010337A6813447B657B681B68F1
:104FCC001A4697F84D309B0013441B889BB223F470
:104FDC00E14323F07003A7F842307B681B681A4644
:104FEC0097F84D309B001A44B7F842306FEA4343B0
:104FFC006FEA53439BB213807B6DDB78012B40F03F
:10500C00A2807B6D00229A617B6D1B7B002B00F0D4
:10501C009380B7F84A3003F04003002B46D07B6DE9
:10502C005B78002B26D17B681B687B627B681B68D6
:10503C00B3F850309BB21A467B6A13447B627B6D8B
:10504C001B781A017B6A134403F204433B623B6AEC
:10505C001B889BB2C3F309039AB23B6A1A803B6A62
:10506C001B889BB26FEA43436FEA53439AB23B6A85
:10507C001A8061E07B6D5B78012B5DD17B681B68CE
:10508C00FB627B681B68B3F850309BB21A46FB6A14
:10509C001344FB627B6D1B781A01FB6A134403F209
:1050AC000443BB62BB6A00221A8045E07B681B6824
:1050BC00FB637B6D5B78002B26D17B681B687B6365
:1050CC007B681B68B3F850309BB21A467B6B134459
:1050DC007B637B6D1B781A017B6B134403F20C43CF
:1050EC003B633B6B1B889BB2C3F309039AB23B6BCC
:1050FC001A803B6B1B889BB26FEA43436FEA5343A6
:10510C009AB23B6B1A8017E07B6D5B78012B13D145
:10511C007B681B68B3F850309BB21A46FB6B134488
:10512C00FB637B6D1B781A01FB6B134403F20C437E
:10513C00BB63BB6B00221A807B6D1B7819467868A9
:10514C00FFF737F853E0B7F84A3003F48073002BBD
:10515C0046D17B681B68B3F850309BB21A467B6D06
:10516C001B78DB00134402335B007A68126813442B
:10517C0003F580631B88C3F30903A7F840307B6DEC
:10518C009A69B7F840309A4207D97B6D9A69B7F89B
:10519C004030D21A7B6D9A6102E07B6D00229A61DD
:1051AC007B6D9B69002B06D17B6D1B78194678684B
:1051BC00FEF7FFFF1BE07B6D5A69B7F840301A44CD
:1051CC007B6D5A617B6DDA69B7F840301A447B6DA0
:1051DC00DA617B681B68796D184601F0DDF806E032
:1051EC00B7F84A301A46796D786800F01BF97B687D
:1051FC001B68B3F844309BB21BB2002BFFF63AACE1
:10520C00002318465837BD4680BD80B588B000AF26
:10521C00F860B9601346FB80FB8803F48043002BD5
:10522C007ED0FB681B68B3F850309BB21A46BB6843
:10523C001B78DB00134402335B00FA6812681344DA
:10524C0003F580631B88C3F309037B83BB689A69EE
:10525C007B8B9A4206D3BB689A697B8BD21ABB684C
:10526C009A6102E0BB6800229A61BB689B69002BC3
:10527C0023D1FB681B681A46BB681B789B00134440
:10528C001B889BB223F4804323F070033B833B8B3E
:10529C0083F400533B83FB681B681A46BB681B787E
:1052AC009B001A443B8B43F07F4343F47F0343F44E
:1052BC00004343F080039BB21380FB8803F0400350
:1052CC00002B1FD0FB681B681A46BB681B789B0021
:1052DC0013441B889BB223F4E04323F07003FB823E
:1052EC00FB681B681A46BB681B789B001A44FB8A38
:1052FC0043F07F4343F47F0343F4004343F0C00384
:10530C009BB213807B8B002B00F08780FB681868A6
:10531C00BB685969BB681A897B8B02F05DFD7CE028
:10532C00FB681B68B3F850309BB21A46BB681B78FD
:10533C00DB00134406335B00FA681268134403F570
:10534C0080631B88C3F309037B83BB689A697B8BDF
:10535C009A4206D3BB689A697B8BD21ABB689A6156
:10536C0002E0BB6800229A61BB689B69002B23D1C9
:10537C00FB681B681A46BB681B789B0013441B8890
:10538C009BB223F4804323F07003FB83FB8B83F4E9
:10539C000053FB83FB681B681A46BB681B789B0099
:1053AC001A44FB8B43F07F4343F47F0343F40043E5
:1053BC0043F080039BB21380FB8803F04003002B67
:1053CC001FD1FB681B681A46BB681B789B001344F3
:1053DC001B889BB223F4E04323F07003BB83FB6870
:1053EC001B681A46BB681B789B001A44BB8B43F0A6
:1053FC007F4343F47F0343F4004343F0C0039BB269
:10540C0013807B8B002B08D0FB681868BB6859692C
:10541C00BB685A897B8B02F0DFFC7B8B18462037EC
:10542C00BD4680BD80B5A4B000AFF860B96013462E
:10543C00FB80FB8803F04003002B00F0DD81FB6850
:10544C001B68B3F850309BB21A46BB681B78DB0064
:10545C00134402335B00FA681268134403F580634B
:10546C001B88C3F30903A7F88630BB689A69B7F8A1
:10547C0086309A4207D9BB689A69B7F88630D21A37
:10548C00BB689A6102E0BB6800229A61BB689B69A9
:10549C00002B40F0B980BB685B78002B26D1FB68F1
:1054AC001B68FB62FB681B68B3F850309BB21A4652
:1054BC00FB6A1344FB62BB681B781A01FB6A13443A
:1054CC0003F20443BB62BB6A1B889BB2C3F30903A0
:1054DC009AB2BB6A1A80BB6A1B889BB26FEA4343C1
:1054EC006FEA53439AB2BB6A1A801AE0BB685B78C6
:1054FC00012B16D1FB681B687B63FB681B68B3F838
:10550C0050309BB21A467B6B13447B63BB681B7891
:10551C001A017B6B134403F204433B633B6B002285
:10552C001A80FB681B687B62BB685B78002B26D1FA
:10553C00FB681B68FB61FB681B68B3F850309BB2BF
:10554C001A46FB691344FB61BB681B781A01FB69A3
:10555C00134403F20C43BB61BB691B889BB2C3F3BE
:10556C0009039AB2BB691A80BB691B889BB26FEAAC
:10557C0043436FEA53439AB2BB691A8017E0BB6886
:10558C005B78012B13D1FB681B68B3F850309BB2CE
:10559C001A467B6A13447B62BB681B781A017B6AD0
:1055AC00134403F20C433B623B6A00221A80BB6833
:1055BC001B781946F868FEF7FCFDFB8803F4804362
:1055CC00002B00F0FC82FB681B681A46BB681B783A
:1055DC009B0013441B889BB223F4E04323F070031D
:1055EC00FB82FB681B681A46BB681B789B001A443D
:1055FC00FB8A43F07F4343F47F0343F4404343F07F
:10560C0080039BB21380DAE2FB8803F48043002B07
:10561C0021D0FB681B681A46BB681B789B0013449F
:10562C001B889BB223F4E04323F07003A7F88A3065
:10563C00FB681B681A46BB681B789B001A44B7F8BA
:10564C008A3043F07F4343F47F0343F4404343F0F9
:10565C0080039BB21380BB6893F82430012B40F07D
:10566C00AE82BB685A69B7F886301A44BB685A6177
:10567C00BB68DA69B7F886301A44BB68DA61BB6874
:10568C001A6ABB681B699A420BD3BB681B69C7F8C3
:10569C008C30BB681A6AD7F88C30D21ABB681A6285
:1056AC0017E0BB681B6A002B08D1B7F88630C7F827
:1056BC008C30BB68002283F824200AE0BB680022EF
:1056CC0083F82420BB681B6AC7F88C30BB680022A7
:1056DC001A62BB685B78002B65D1FB681B68FB63A7
:1056EC00FB681B68B3F850309BB21A46FB6B134433
:1056FC00FB63BB681B781A01FB6B134403F2044376
:10570C00BB63BB6B1B889BB2C3F309039AB2BB6B25
:10571C001A80D7F88C303E2B1DD9D7F88C305B090A
:10572C00BB64D7F88C3003F01F03002B02D1BB6C89
:10573C00013BBB64BB6B1B889AB2BB6C9BB29B02DC
:10574C009BB213439BB26FEA43436FEA53439AB243
:10575C00BB6B1A8044E0D7F88C30002B0AD1BB6BA2
:10576C001B889BB26FEA43436FEA53439AB2BB6BFD
:10577C001A8035E0D7F88C305B08BB64D7F88C30D6
:10578C0003F00103002B02D0BB6C0133BB64BB6B79
:10579C001B889AB2BB6C9BB29B029BB213439AB20E
:1057AC00BB6B1A801CE0BB685B78012B18D1FB68C3
:1057BC001B687B64FB681B68B3F850309BB21A46BD
:1057CC007B6C13447B64BB681B781A017B6C1344A1
:1057DC0003F204433B64D7F88C309AB23B6C1A80CA
:1057EC00FB681868BB685969BB681A89D7F88C3094
:1057FC009BB202F0ACFAE2E1FB681B68B3F85030E4
:10580C009BB21A46BB681B78DB00134406335B0063
:10581C00FA681268134403F580631B88C3F3090309
:10582C00A7F88630BB689A69B7F886309A4207D3D6
:10583C00BB689A69B7F88630D21ABB689A6102E0E5
:10584C00BB6800229A61BB689B69002B40F0C0804A
:10585C00BB685B78002B26D1FB681B68FB67FB6879
:10586C001B68B3F850309BB21A46FB6F1344FB67AE
:10587C00BB681B781A01FB6F134403F20443BB672C
:10588C00BB6F1B889BB2C3F309039AB2BB6F1A8020
:10589C00BB6F1B889BB26FEA43436FEA53439AB2C8
:1058AC00BB6F1A801AE0BB685B78012B16D1FB68C2
:1058BC001B687B66FB681B68B3F850309BB21A46BA
:1058CC007B6E13447B66BB681B781A017B6E13449A
:1058DC0003F204433B663B6E00221A80FB681B6894
:1058EC007B67BB685B78002B2BD1FB681B68FB6666
:1058FC00FB681B68B3F850309BB21A46FB6E13441E
:10590C00FB66BB681B781A01FB6E134403F20C4355
:10591C00C7F88030D7F880301B889BB2C3F30903DB
:10592C009AB2D7F880301A80D7F880301B889BB297
:10593C006FEA43436FEA53439AB2D7F880301A8028
:10594C0017E0BB685B78012B13D1FB681B68B3F8BD
:10595C0050309BB21A467B6F13447B67BB681B7835
:10596C001A017B6F134403F20C433B673B6F00221D
:10597C001A80BB681B781946F868FEF71AFCFB887E
:10598C0003F48043002B40F01A81FB681B681A4615
:10599C00BB681B789B0013441B889BB223F4E04329
:1059AC0023F07003A7F88830FB681B681A46BB68A5
:1059BC001B789B001A44B7F8883043F07F4343F4BC
:1059CC007F0343F4404343F080039BB21380F6E023
:1059DC00FB8803F48043002B21D1FB681B681A461B
:1059EC00BB681B789B0013441B889BB223F4E043D9
:1059FC0023F07003A7F84E30FB681B681A46BB688F
:105A0C001B789B001A44B7F84E3043F07F4343F4A5
:105A1C007F0343F4404343F080039BB21380BB6885
:105A2C0093F82430012B40F0CA80BB685A69B7F850
:105A3C0086301A44BB685A61BB68DA69B7F886309D
:105A4C001A44BB68DA61BB681A6ABB681B699A4264
:105A5C000BD3BB681B69C7F88C30BB681A6AD7F8C4
:105A6C008C30D21ABB681A6217E0BB681B6A002B19
:105A7C0008D1B7F88630C7F88C30BB68002283F8A1
:105A8C0024200AE0BB681B6AC7F88C30BB68002274
:105A9C001A62BB68002283F82420FB681B687B65B4
:105AAC00BB685B78002B65D1FB681B68FB65FB68EA
:105ABC001B68B3F850309BB21A46FB6D1344FB6560
:105ACC00BB681B781A01FB6D134403F20C43BB65D6
