:020000040800F2
:1000000000500020BD9B00082D05000833050008A6
:10001000390500083F0500084505000800000000FC
:100020000000000000000000000000004B05000878
:100030005705000800000000630500086F05000870
:10004000059C0008059C0008059C0008059C00080C
:10005000059C0008059C0008059C0008059C0008FC
:10006000059C0008059C0008059C0008059C0008EC
:10007000059C0008059C0008059C0008059C0008DC
:100080007D05000891050008059C0008A5050008ED
:10009000C1050008DD050008059C0008059C000856
:1000A000059C0008059C0008059C0008059C0008AC
:1000B000059C0008059C0008059C0008059C00089C
:1000C000059C0008059C0008059C0008059C00088C
:1000D000059C0008059C0008F1050008059C000827
:1000E000059C0008059C0008059C00080000000015
:1000F0000000000000000000000000000000000000
:0C01000000000000000000005FF808F1A3
:10010C0010B5054C237833B9044B13B10448AFF345
:10011C0000800123237010BDE801002000000000C6
:10012C005CAF000808B5034B1BB103490348AFF3A0
:10013C00008008BD00000000EC0100205CAF00084E
:10014C00034613F8012B002AFBD1181A013870470B
:10015C0080B584B000AF07F0B5F800F05BF800F0A4
:10016C00B9F800F0E5F800F009F900F069FF09F0C2
:10017C0047F9244B7B607868FFF7E2FF034619468A
:10018C00786801F029F900F01BFE4FF4FA633B602C
:10019C000023FB600023BB60FA681B4B83FB02133C
:1001AC009911D317CB1AC82101FB03F3D31A002BD7
:1001BC0001D100F02FFEFA68144B83FB0213991146
:1001CC00D317CB1A4FF47A7101FB03F3D31A002B1C
:1001DC000AD1BB68002B03D14FF48053BB6001E004
:1001EC000023BB600023FB60BB689AB2084B1A80EB
:1001FC0000F076FE012007F0C7F8FB680133FB60C6
:10020C00CAE700BF74AF00081F85EB51D34D6210D5
:10021C007803002080B594B000AF07F128032822A2
:10022C000021184609F01CFD07F1140300221A6086
:10023C005A609A60DA601A613B1D00221A605A609B
:10024C009A60DA600123BB624FF48033FB620023B7
:10025C003B630123BB6302237B644FF48033BB6499
:10026C004FF4E013FB6407F12803184607F0B0F8CD
:10027C000346002B01D000F027F80F237B610223EB
:10028C00BB610023FB614FF480633B6200237B6204
:10029C0007F114030221184607F01CFB0346002B40
:1002AC0001D000F011F810237B6000233B613B1D53
:1002BC00184607F09DFC0346002B01D000F004F813
:1002CC0000BF5037BD4680BD80B400AF72B600BFD2
:1002DC00FEE7000080B485B000AF144B9B69134A55
:1002EC0043F020039361114B9B6903F02003FB60E7
:1002FC00FB680E4B9B690D4A43F0040393610B4B57
:10030C009B6903F00403BB60BB68084B9B69074AFD
:10031C0043F008039361054B9B6903F008037B6072
:10032C007B6800BF1437BD4680BC7047001002408C
:10033C0080B582B000AF104B5B690F4A43F00103EC
:10034C0053610D4B5B6903F001037B607B680022FA
:10035C000021102008F071F9102008F08AF9002211
:10036C000021112008F069F9112008F082F900BF72
:10037C000837BD4680BD00BF0010024080B500AFFD
:10038C00104B114A1A600F4B104A5A600D4B002249
:10039C009A600C4B0022DA600A4B00221A61094B5E
:1003AC000C225A61074B00229A61064B0022DA613B
:1003BC00044808F078F90346002B01D0FFF784FFBE
:1003CC0000BF80BD040200200044004040420F00EA
:1003DC0080B588B000AF786007F1100300221A6076
:1003EC005A609A60DA607B681B68464A934240F018
:1003FC008480454BDB69444A43F40033D361424B60
:10040C00DB6903F40033FB60FB683F4B9B693E4A9E
:10041C0043F0040393613C4B9B6903F00403BB6002
:10042C00BB6804233B6102237B610323FB6107F15F
:10043C0010031946354807F091FC08233B61002353
:10044C007B610023BB6107F1100319462F4807F0AD
:10045C0085FC2F4B2F4A1A602D4B00225A602C4BD7
:10046C0000229A602A4B8022DA60294B00221A6102
:10047C00274B00225A61264B00229A61244B002202
:10048C00DA61234807F0EEFD0346002B01D0FFF79D
:10049C001BFF7B681E4ADA631D4A7B6853621E4B46
:1004AC001E4A1A601C4B10225A601B4B00229A6089
:1004BC00194B8022DA60184B00221A61164B00226D
:1004CC005A61154B00229A61134B0022DA611248D3
:1004DC0007F0C8FD0346002B01D0FFF7F5FE7B6843
:1004EC000D4A9A630C4A7B68536200220021262035
:1004FC0008F0A3F8262008F0BCF800BF2037BD4652
:10050C0080BD00BF004400400010024000080140C4
:10051C004C0200206C00024090020020800002403F
:10052C0080B400AFFEE780B400AFFEE780B400AF4C
:10053C00FEE780B400AFFEE780B400AFFEE780B406
:10054C0000AF00BFBD4680BC704780B400AF00BF99
:10055C00BD4680BC704780B400AF00BFBD4680BCB8
:10056C00704780B500AF06F0F3FE00BF80BD000001
:10057C0080B500AF024807F083FE00BF80BD00BF0E
:10058C004C02002080B500AF024807F079FE00BF96
:10059C0080BD00BF9002002080B500AF034809F079
:1005AC00DAF8034802F0B2FE00BF80BD6C150020E3
:1005BC006810002080B500AF034809F0CCF8034860
:1005CC0002F0A4FE00BF80BD6C1500206810002056
:1005DC0080B500AF024809F0BEF800BF80BD00BF77
:1005EC006C15002080B500AF024808F0CFF900BFB1
:1005FC0080BD00BF0402002080B485B000AF154B55
:10060C009B69144A43F001039361124B9B6903F0FD
:10061C000103BB60BB680F4BDB690E4A43F0805390
:10062C00D3610C4BDB6903F080537B607B680A4B16
:10063C005B68FB60FB6823F0E063FB60FB6843F0E6
:10064C000073FB60044AFB68536000BF1437BD465F
:10065C0080BC7047001002400000014080B400AF25
:10066C0000BFBD4680BC704780B485B000AFF86059
:10067C00B9607A600D4B1B78002B09D07B681B127C
:10068C00DAB2FB681A707B68DAB2BB681A7008E0E1
:10069C007B681B12DAB2BB681A707B68DAB2FB6833
:1006AC001A7000BF1437BD4680BC7047D4020020BE
:1006BC0080B485B000AF03460A46FB711346BB718C
:1006CC000E4B1B78002B09D0FB79FB60FB681B02DF
:1006DC00FB60BB79FA681343FB6008E0BB79FB60F5
:1006EC00FB681B02FB60FB79FA681343FB60FB6839
:1006FC0018461437BD4680BC704700BFD40200209A
:10070C0080B588B000AFF8607B600B46FB72134677
:10071C00BB7297F828300133DBB2FA7A02FB03F391
:10072C00DBB204337B7700233B77FF233B75FF233E
:10073C007B75FE23BB757B7FFB7583233B76BB7A76
:10074C007B7697F82830BB7600F058FA07F1140343
:10075C000721184600F004FA7A7FBB7A1344DAB208
:10076C0097F828301344DBB27F3BDBB23B77002396
:10077C00FB7739E0FB7FFA6813440121184600F03F
:10078C00EFF9FB7F97F8282002FB03F31A467B68EE
:10079C00134497F828201146184600F0E1F9FB7F26
:1007AC00FA6813441A783B7F1344DBB23B7700237F
:1007BC00BB7711E0FB7F97F8282003FB02F2BB7F8D
:1007CC0013441A467B6813441A783B7F1344DBB2FC
:1007DC003B77BB7F0133BB77BA7F97F828309A42BF
:1007EC00E8D3FB7F0133FB77FA7FFB7A9A42C1D3C4
:1007FC003B7FDB43DBB23B7707F11C03012118463F
:10080C0000F0AEF900F000FA00BF2037BD4680BD05
:10081C0080B584B000AF7860084611461A4603468E
:10082C00FB700B46BB7013467B7000F0E7F900F0D1
:10083C00EBF92D4A7B781370FA78BB781344DAB253
:10084C007B781344DBB27C3BFB73FF2000F0B4F9E4
:10085C00FF2000F0B1F9FE2000F0AEF9FB78043374
:10086C00DBB2184600F0A8F9822000F0A5F9BB789D
:10087C00184600F0A1F97B78184600F09DF900238A
:10088C00BB7310E0BB7B7A6813441B78184600F0EE
:10089C0093F9BB7B7A6813441A78FB7B1344FB7384
:1008AC00BB7B0133BB73BA7BFB789A42EAD3FB7BED
:1008BC00DB43FB73FB7B184600F07EF900F0A4F9D8
:1008CC000023BB60094B1B68094A12881146184665
:1008DC0000F038F903469AB2064B1A80054B1B8878
:1008EC0018461037BD4680BDD8020020E00200201B
:1008FC00E6020020E402002080B582B000AF03467F
:10090C000A46FB711346BB71FB799BB2BA7906326E
:10091C0092B202FB03F39AB2074B1A80064B1B8868
:10092C00184609F095F903461A46044B1A6000BFA5
:10093C000837BD4680BD00BFE6020020E002002063
:10094C0080B487B000AF03463960FB710023FB8293
:10095C00514A3B681360514B00221A70504B0022D5
:10096C001A7089E04F4A07F10C031268114619807E
:10097C000233120C1A7000237B7518E07B7B3B73DF
:10098C00BB7B7B73484B1A68FB8A591CF982134456
:10099C001B78BB733B7BFF2B09D17B7BFF2B06D1D9
:1009AC00BB7BFF2B03D0414B01221A7004E0404B60
:1009BC001B88FA8A9A42E1D3BB7BFA799A4203D01C
:1009CC003A4B03221A7057E0374B1A68FB8A591CB2
:1009DC00F98213441B781A46364B1B7802339A4221
:1009EC0002D001233B6147E02F4B1A68FB8A591C4C
:1009FC00F98213441A782A4B1A702E4B1A78FB7909
:100A0C001344DAB2264B1B781344DBB202337B75EA
:100A1C0000233B7516E0244B1A68FB8A591CF9829B
:100A2C001A441D4B19683B7D0B4412781A701A4BF3
:100A3C001A683B7D13441A787B7D13447B753B7D90
:100A4C0001333B751B4B1B783A7D9A42E3D37B7D7C
:100A5C00DB437B75144B1A68FB8A591CF9821344CF
:100A6C001B787A7D9A4204D0104B02221A70002314
:100A7C000DE0104B1B780AE0FB8A06330D4A127806
:100A8C0013440B4A128893427FF76CAF002318462D
:100A9C001C37BD4680BC7047DC020020D70200200A
:100AAC00D502002098AF0008E0020020D6020020FA
:100ABC00E4020020D802002080B584B000AF0346C9
:100ACC00FB711D4B1B7801331C4A1278934202DBDD
:100ADC004FF0FF332BE01A4B1B68174A1278134464
:100AEC001878174B1A68144B1B78013313441B7876
:100AFC001946FFF7DDFDF8600F4B1B780233DAB2B5
:100B0C000D4B1A70FB79002B10D0FB79FA6842FA66
:100B1C0003F303F00103002B08D0FB79012202FA46
:100B2C0003F3DA43FB6813405B42FB60FB68184637
:100B3C001037BD4680BD00BFD7020020D802002070
:100B4C00DC02002080B582B000AF78603960396873
:100B5C00786800F0EDF9034618460837BD4680BDAD
:100B6C0080B483B000AF7860396014E0104B1B7810
:100B7C005BB2002B0FDB0E4B1B781A467B68197887
:100B8C000C4B99540A4B1B780133DAB2084B1A7090
:100B9C007B6801337B603B685A1E3A60002BE5D1C1
:100BAC00034B1B7818460C37BD4680BC704700BF02
:100BBC0068030020E802002080B483B000AF034635
:100BCC00FB710C4B1B785BB2002B0BDB094B1B78BE
:100BDC001946094AFB795354064B1B780133DAB298
:100BEC00044B1A70034B1B7818460C37BD4680BC5F
:100BFC00704700BF68030020E802002080B500AFFA
:100C0C0000F0AEF900BF80BD80B500AF074B1B787C
:100C1C00002B08D0054B1B781946054800F076F9D7
:100C2C00024B00221A7000BF80BD00BF6803002079
:100C3C00E802002080B5C0B002AFF8607A603B607B
:100C4C000B46FB72002387F8F730A6E097F8F730D5
:100C5C005B007A681344B3F90030002B22DA97F862
:100C6C00F7305B007A681344B3F900309BB25B42F7
:100C7C0099B297F8F7305B007A6813440AB21A807D
:100C8C0097F8F7305B007A681344B3F9003097F8A3
:100C9C00F720520079680A446FEA43436FEA5343E2
:100CAC001BB213803B68002B08D097F8F7305B0021
:100CBC003A6813441B88A7F8F43002E00023A7F825
:100CCC00F430D7F80031002B0FD097F8F730D7F865
:100CDC000021D11897F8F7201346DB009B1A0A78ED
:100CEC00F8333B4403F8E42C09E097F8F72013465B
:100CFC00DB009B1AF8333B44002203F8E42C97F8F2
:100D0C00F7201346DB009B1A013307F11402D018AD
:100D1C0097F8F7201346DB009B1A023307F11402F5
:100D2C00D11897F8F7305B007A681344B3F90030A8
:100D3C001A46FFF799FC97F8F7201346DB009B1A2D
:100D4C00033307F11402D01897F8F7201346DB0091
:100D5C009B1A043307F11402134400221946FFF7BF
:100D6C0083FC97F8F7201346DB009B1A053307F139
:100D7C001402D01897F8F7201346DB009B1A0633A1
:100D8C0007F114021344B7F8F4201946FFF76CFC72
:100D9C0097F8F730013387F8F73097F8F720FB7A9C
:100DAC009A42FFF453AF07F11403F97A0722009229
:100DBC002922F868FFF7A4FC00BFF837BD4680BDB8
:100DCC0080B582B000AF04210120FFF795FD002310
:100DDC00FB710EE0FB790B4A11880B4A22F81310B9
:100DEC00FB790A4A11880A4A22F81310FB7901335D
:100DFC00FB71FB79002BEDD000BF00BF0837BD465F
:100E0C0080BD00BF060000207C03002008000020ED
:100E1C008003002080B584B002AF04233822012166
:100E2C002848FFF7F5FC0023FB7142E0FB79254ACB
:100E3C00D35C25491846FFF783FD0346002B07D1E9
:100E4C00FB79204AD35C1946204808F0EDFF2DE0D1
:100E5C000F20FFF731FE0246FB7991B21C4A22F8B3
:100E6C0013100F20FFF728FE0246FB7991B2194AA6
:100E7C0022F81310FB79134AD35C1946FB79144AF8
:100E8C0032F813301846FB79124A32F813300093BB
:100E9C0003460A461049114808F0EEFF0F48FFF7C9
:100EAC004FF9034619460D4800F096FAFB790133C9
:100EBC00FB71FB79002BB9D000BF00BF0837BD46D2
:100ECC0080BD00BF04000020740300209CAF00080C
:100EDC006C03002070030020B4AF000884030020D2
:100EEC0080B582B002AF054B0093054B054A01213A
:100EFC000548FFF79FFE00BFBD4680BD8003002064
:100F0C007C030020780300200400002080B582B010
:100F1C0000AF786039603B689AB264237968034803
:100F2C0007F011FC00BF0837BD4680BD040200204D
:100F3C0080B582B000AF786039603B689AB26423A8
:100F4C007968064807F08AFC0346002B01D0002381
:100F5C0000E03B6818460837BD4680BD04020020FF
:100F6C0080B500AF012006F00FFA00BF80BD80B540
:100F7C0086B000AFF860B9607A6000237B610AE04C
:100F8C00AFF300800146BB685A1CBA60CAB21A7033
:100F9C007B6901337B617A697B689A42F0DB7B6801
:100FAC0018461837BD4680BD80B586B000AFF860D6
:100FBC00B9607A6000237B6109E0BB685A1CBA6097
:100FCC001B781846AFF300807B6901337B617A692B
:100FDC007B689A42F1DB7B6818461837BD4680BDAA
:100FEC0080B483B000AF78604FF0FF3318460C37F5
:100FFC00BD4680BC704780B483B000AF7860396068
:10100C003B684FF400525A60002318460C37BD461B
:10101C0080BC704780B483B000AF78600123184661
:10102C000C37BD4680BC704780B485B000AFF8600B
:10103C00B9607A60002318461437BD4680BC7047EF
:10104C0080B500AF00221249124800F09DFC034607
:10105C00002B01D0FFF738F90F490E4800F0BFFC08
:10106C000346002B01D0FFF72FF90C49094801F07A
:10107C005FFF0346002B01D0FFF726F9054800F06F
:10108C00C7FC0346002B01D0FFF71EF900BF80BD43
:10109C000C000020A4030020780000205C0000203D
:1010AC0080B483B000AF03463960FB713B681222F9
:1010BC001A80034B18460C37BD4680BC704700BFE6
:1010CC002800002080B483B000AF03463960FB7168
:1010DC003B6804221A80034B18460C37BD4680BC73
:1010EC00704700BF3C00002080B582B000AF0346C3
:1010FC003960FB71FB79002B05D13A680749084828
:10110C0001F0FEFB04E03A680449054801F0F8FBE5
:10111C00024B18460837BD4680BD00BF680600204C
:10112C00D0AF000880B582B000AF03463960FB71C8
:10113C003A680449044801F0E3FB024B18460837AF
:10114C00BD4680BD68060020E8AF000880B582B0BF
:10115C0000AF03463960FB713B681A221A8000F01D
:10116C0043F8024B18460837BD4680BD40000020AE
:10117C0080B582B000AF03463960FB71FB79002B60
:10118C0005D13A680749084801F0BAFB04E03A680F
:10119C000449054801F0B4FB024B18460837BD461C
:1011AC0080BD00BF68060020FCAF000880B582B08F
:1011BC0000AF03463960FB71FB79002B05D13A680F
:1011CC000749084801F09CFB04E03A6804490548CB
:1011DC0001F096FB024B18460837BD4680BD00BF98
:1011EC006806002008B0000880B584B000AF0F4B33
:1011FC001B68FB600E4B1B68BB600E4B1B687B6057
:10120C00FA687B681344FB60FB68002B09D008224A
:10121C000949F86800F014F804220849B86800F08D
:10122C000FF800BF1037BD4680BD00BFE8F7FF1FA9
:10123C00ECF7FF1FF0F7FF1F4200002052000020C8
:10124C0080B487B000AFF860B9601346FB7100231F
:10125C00FB750023FB7527E0FB681B0F092B0BD8D4
:10126C00FB681B0FDAB2FB7D5B001946BB680B44B5
:10127C003032D2B21A700AE0FB681B0FDAB2FB7D77
:10128C005B001946BB680B443732D2B21A70FB684C
:10129C001B01FB60FB7D5B000133BA681344002229
:1012AC001A70FB7D0133FB75FA7DFB799A42D3D31F
:1012BC0000BF00BF1C37BD4680BC704780B500AF77
:1012CC0000220549054801F049FE0549034801F093
:1012DC005EFE0023184680BD680C0020A40300208D
:1012EC006808002080B400AF00231846BD4680BCBF
:1012FC007047000080B483B000AF03463960FB71C7
:10130C001346BB80FB79232B4AD801A252F823F059
:10131C00AD130008AD130008AD130008AD130008A1
:10132C00AD130008AD130008AD130008AD13000891
:10133C00AD130008AD130008AD130008AD13000881
:10134C00AD130008AD130008AD130008AD13000871
:10135C00AD130008AD130008AD130008AD13000861
:10136C00AD130008AD130008AD130008AD13000851
:10137C00AD130008AD130008AD130008AD13000841
:10138C00AD130008AD130008AD130008AD13000831
:10139C00AD130008AD130008AD130008AD13000821
:1013AC0000BF002318460C37BD4680BC704700BFF9
:1013BC0080B582B000AF786039607968054801F07B
:1013CC00E6FD044801F025FE002318460837BD460B
:1013DC0080BD00BFA403002080B584B000AF78604E
:1013EC000B467B800023FB730D4BD3F8B832BB60EC
:1013FC00BB68D3F81432002B01D001230BE07B889F
:10140C001A467968064801F0A9FD054801F0D2FD9D
:10141C000346FB73FB7B18461037BD4680BD00BFEF
:10142C00A403002080B584B000AF78607B681B6893
:10143C00114A93421BD1114BDB69104A43F4000350
:10144C00D3610E4BDB6903F40003FB60FB680022E5
:10145C000021132007F0F1F8132007F00AF90022FD
:10146C000021142007F0E9F8142007F002F900BF5E
:10147C001037BD4680BD00BF005C0040001002402C
:10148C0080B582B000AF78607B68D3F8D4227B68DB
:10149C0003F526731946104600F002FB00BF08370F
:1014AC00BD4680BD80B582B000AF78600B46FB7046
:1014BC007B68D3F8D402FA78796813469B001344FE
:1014CC00DB000B4403F5B2731A68FB78194600F085
:1014DC0034FB00BF0837BD4680BD80B582B000AF7D
:1014EC0078600B46FB707B68D3F8D402FA78796885
:1014FC0013469B001344DB000B4424331A68FB781F
:10150C00194600F08BFB00BF0837BD4680BD80B587
:10151C0082B000AF78607B68D3F8D432184600F004
:10152C009BFC00BF0837BD4680BD80B584B000AFC2
:10153C0078600123FB737B689B79022B01D0FEF74B
:10154C00C3FE7B68D3F8D432FA7B1146184600F000
:10155C004BFC7B68D3F8D432184600F004FC00BF77
:10156C001037BD4680BD000080B582B000AF7860FA
:10157C007B68D3F8D432184600F045FC7B689B7A24
:10158C00002B05D0044B1B69034A43F0060313617F
:10159C0000BF0837BD4680BD00ED00E080B582B0CD
:1015AC0000AF78607B68D3F8D432184600F03FFC6B
:1015BC0000BF0837BD4680BD80B582B000AF7860F3
:1015CC00284A7B68C2F8D4327B68264AC3F8C0220A
:1015DC00244B254A1A60234B08221A71214B0222F4
:1015EC009A71204B00229A721E4B0022DA721D4B0C
:1015FC0000221A731B4801F06DFD0346002B01D02D
:10160C00FEF762FE7B68D3F8C0021823002200218B
:10161C0003F07FFA7B68D3F8C002582300228021A4
:10162C0003F077FA7B68D3F8C002C0230022812133
:10163C0003F06FFA7B68D3F8C0024FF48873002272
:10164C00012103F066FA7B68D3F8C0024FF4807373
:10165C000022822103F05DFA002318460837BD46AC
:10166C0080BD00BF68100020005C004080B584B0D5
:10167C0000AF78600023FB730023BB737B68D3F847
:10168C00C032184601F01CFE0346FB73FB7B184668
:10169C0000F04EF90346BB73BB7B18461037BD46B2
:1016AC0080BD80B584B000AF7860084611461A46FC
:1016BC000346FB700B46BB7013463B800023FB7349
:1016CC000023BB737B68D3F8C002BB783A88F978E7
:1016DC0001F070FF0346FB73FB7B184600F028F902
:1016EC000346BB73BB7B18461037BD4680BD80B527
:1016FC0084B000AF78600B46FB700023FB730023B3
:10170C00BB737B68D3F8C032FA781146184601F0E7
:10171C00AEFF0346FB73FB7B184600F009F903464A
:10172C00BB73BB7B18461037BD4680BD80B584B0FB
:10173C0000AF78600B46FB700023FB730023BB7378
:10174C007B68D3F8C032FA781146184602F056F886
:10175C000346FB73FB7B184600F0EAF80346BB73A9
:10176C00BB7B18461037BD4680BD80B584B000AF3A
:10177C0078600B46FB700023FB730023BB737B6804
:10178C00D3F8C032FA781146184602F097F803469F
:10179C00FB73FB7B184600F0CBF80346BB73BB7B9B
:1017AC0018461037BD4680BD80B485B000AF786058
:1017BC000B46FB707B68D3F8C032FB6097F90330A3
:1017CC00002B0BDAFB7803F07F02F96813469B00C1
:1017DC001344DB000B4412331B780BE0FB7803F053
:1017EC007F02F96813469B001344DB000B4403F59E
:1017FC00A9731B7818461437BD4680BC704780B55A
:10180C0084B000AF78600B46FB700023FB730023A1
:10181C00BB737B68D3F8C032FA781146184601F0D6
:10182C00A5FE0346FB73FB7B184600F081F80346CC
:10183C00BB73BB7B18461037BD4680BD80B586B0E8
:10184C0000AFF8607A601A460B46FB7213463B8178
:10185C000023FB750023BB75FB68D3F8C0023B89E2
:10186C00F97A7A6801F093FF0346FB75FB7D184605
:10187C0000F05EF80346BB75BB7D18461837BD46B5
:10188C0080BD80B586B000AFF8607A601A460B4612
:10189C00FB7213463B810023FB750023BB75FB6871
:1018AC00D3F8C0023B89F97A7A6801F028FF034625
:1018BC00FB75FB7D184600F03BF80346BB75BB7D02
:1018CC0018461837BD4680BD80B582B000AF786031
:1018DC000B46FB707B68D3F8C032FA781146184679
:1018EC0001F03EFF034618460837BD4680BD000098
:1018FC0080B483B000AF7860024B18460C37BD46FD
:10190C0080BC70474013002080B483B000AF786077
:10191C0000BF0C37BD4680BC704780B483B000AFAD
:10192C0078600B46FB7000BF0C37BD4680BC70471F
:10193C0080B485B000AF0346FB710023FB73FB79C9
:10194C00032B17D801A252F823F000BF6919000825
:10195C006F190008751900087B1900080023FB7328
:10196C000BE00223FB7308E00123FB7305E0022369
:10197C00FB7302E00223FB7300BFFB7B184614379A
:10198C00BD4680BC704700BF80B584B000AFF86026
:10199C00B9601346FB71FB68002B01D102231AE0DE
:1019AC00FB68D3F8B432002B03D0FB680022C3F8D9
:1019BC00B422BB68002B03D0FB68BA68C3F8B02212
:1019CC00FB68012283F89C22FB68FA791A70F8688C
:1019DC00FFF7F2FD002318461037BD4680BD80B4DA
:1019EC0085B000AF786039600023FB733B68002B37
:1019FC0006D07B683A68C3F8B4220023FB7301E07D
:101A0C000223FB73FB7B18461437BD4680BC704722
:101A1C0080B582B000AF78607868FFF727FE0023AE
:101A2C0018460837BD4680BD80B483B000AF7860DF
:101A3C00002318460C37BD4680BC704780B584B077
:101A4C0000AF78600B46FB700223FB737B68D3F806
:101A5C00B432002B0CD07B68D3F8B4321B68FA7804
:101A6C001146786898470346002B01D10023FB737D
:101A7C00FB7B18461037BD4680BD80B582B000AFE9
:101A8C0078600B46FB707B68D3F8B4325B68FA78ED
:101A9C00114678689847002318460837BD4680BD24
:101AAC0080B582B000AF786039607B6803F52A732B
:101ABC003968184600F0D7FE7B680122C3F89422DF
:101ACC007B68B3F8AE321A467B68C3F898227B6801
:101ADC0093F8A83203F01F03022B16D0022B1CD84C
:101AEC00002B02D0012B08D017E07B6803F52A737A
:101AFC001946786800F0CAF91AE07B6803F52A7376
:101B0C001946786800F02CFA12E07B6803F52A730A
:101B1C001946786800F06CFA0AE07B6893F8A832F2
:101B2C0023F07F03DBB219467868FFF7FFFD00BF97
:101B3C00002318460837BD4680BD80B586B000AF7F
:101B4C00F8600B467A60FB72FB7A002B4BD1FB687A
:101B5C0003F5AA737B61FB68D3F89432032B34D161
:101B6C007B69DA687B691B699A4219D97B69DA68E7
:101B7C007B691B69D21A7B69DA607B69DA687B69DD
:101B8C001B699A4203D27B69DB689BB202E07B69DA
:101B9C001B699BB21A467968F86800F056FF38E06A
:101BAC00FB68D3F8B4321B69002B0AD0FB6893F89E
:101BBC009C32032B05D1FB68D3F8B4321B69F8684F
:101BCC009847F86800F053FF23E0FB68D3F8943291
:101BDC00052B1ED1FB680022C3F894220021F86863
:101BEC00FFF7A4FD15E0FB68D3F8B4329B69002B1A
:101BFC000DD0FB6893F89C32032B08D1FB68D3F80B
:101C0C00B4329B69FA7A1146F868984701E00223CE
:101C1C0000E0002318461837BD4680BD80B586B05D
:101C2C0000AFF8600B467A60FB72FB7A002B7FD119
:101C3C00FB6814337B61FB68D3F89432022B5CD1C4
:101C4C007B69DA687B691B699A4215D97B69DA680A
:101C5C007B691B69D21A7B69DA607B69DB689BB292
:101C6C001A467968F86800F0C0FE002300220021B3
:101C7C00F868FFF706FE4EE07B699B687A6912698B
:101C8C00B3FBF2F101FB02F29B1A002B1CD17B6916
:101C9C009A687B691B699A4216D37B699A68FB68C0
:101CAC00D3F898329A420FD200220021F86800F043
:101CBC009CFEFB680022C3F898220023002200211E
:101CCC00F868FFF7DEFD26E0FB68D3F8B432DB687A
:101CDC00002B0AD0FB6893F89C32032B05D1FB68D0
:101CEC00D3F8B432DB68F86898478021F868FFF7BE
:101CFC001DFDF86800F0CEFE0DE0FB68D3F89432C1
:101D0C00042B04D0FB68D3F89432002B03D1802130
:101D1C00F868FFF70BFDFB6893F8A032012B1DD17F
:101D2C00F868FFF781FEFB68002283F8A02215E01B
:101D3C00FB68D3F8B4325B69002B0DD0FB6893F8C9
:101D4C009C32032B08D1FB68D3F8B4325B69FA7A66
:101D5C001146F868984701E0022300E0002318467A
:101D6C001837BD4680BD80B582B000AF7860402387
:101D7C00002200217868FFF794FC7B680122C3F8ED
:101D8C0058217B684022C3F8642140230022802123
:101D9C007868FFF786FC7B6801229A617B68402299
:101DAC005A627B68012283F89C227B680022C3F86C
:101DBC0094227B6800225A607B680022C3F8A4221C
:101DCC007B68D3F8B832002B09D07B68D3F8B432D7
:101DDC005B687A685268D2B21146786898470023DB
:101DEC0018460837BD4680BD80B483B000AF78601C
:101DFC000B46FB707B68FA781A74002318460C3774
:101E0C00BD4680BC704780B483B000AF78607B68FF
:101E1C0093F89C227B6883F89D227B68042283F8CC
:101E2C009C22002318460C37BD4680BC704780B4FA
:101E3C0083B000AF78607B6893F89C32042B05D19B
:101E4C007B6893F89D227B6883F89C2200231846BC
:101E5C000C37BD4680BC704780B582B000AF78604F
:101E6C007B6893F89C32032B0BD17B68D3F8B4328C
:101E7C00DB69002B05D07B68D3F8B432DB6978685A
:101E8C009847002318460837BD4680BD80B584B0FE
:101E9C0000AF786039600023FB733B681B7803F05C
:101EAC006003402B05D0402B4FD8002B09D0202BA2
:101EBC004BD17B68D3F8B4329B6839687868984703
:101ECC0048E03B685B78092B39D801A252F823F023
:101EDC002D1F0008411F00084B1F0008371F00086A
:101EEC004B1F00080F1F0008051F00084B1F0008A0
:101EFC00231F0008191F00083968786800F0DCF906
:101F0C0022E03968786800F03FFB1DE0396878689A
:101F1C0000F07EFB18E03968786800F007FC13E0ED
:101F2C003968786800F037FC0EE03968786800F0A2
:101F3C0065FC09E03968786800F074FC04E03968E5
:101F4C00786800F0CCFC00BF04E03968786800F0D9
:101F5C00C6FC00BFFB7B18461037BD4680BD00BFDA
:101F6C0080B584B000AF786039600023FB733B68A8
:101F7C001B7803F06003402B05D0402B2ED8002B90
:101F8C0001D0202B2AD17B6893F89C32013B022B89
:101F9C001DD83B689B88DBB2012B13D87B68D3F828
:101FAC00B4329B683968786898470346FB733B6882
:101FBC00DB88002B10D1FB7B002B0DD1786800F057
:101FCC0056FD09E03968786800F089FC04E039684E
:101FDC00786800F084FC00E000BF04E039687868A1
:101FEC0000F07DFC00BF002318461037BD4680BDB5
:101FFC0080B584B000AF786039600023FB733B6818
:10200C009B88BB733B681B7803F06003402B07D0A5
:10201C00402B00F24681002B0AD0202B40F041814E
:10202C007B68D3F8B4329B683968786898473DE18F
:10203C003B681B7803F06003202B0AD17B68D3F834
:10204C00B4329B683968786898470346FB73FB7B0E
:10205C002DE13B685B78032B07D0032B00F31B812E
:10206C00002B72D0012B3AD015E17B6893F89C328F
:10207C00022B02D0032B15D02BE0BB7B002B0CD0FA
:10208C00BB7B802B09D0BB7B19467868FFF74EFBD6
:10209C0080217868FFF74AFB20E03968786800F007
:1020AC001EFC1BE03B685B88002B0ED1BB7B002B1E
:1020BC000BD0BB7B802B08D03B68DB88002B04D17A
:1020CC00BB7B19467868FFF731FB786800F0CFFCD2
:1020DC0004E03968786800F002FC00BFE0E07B683F
:1020EC0093F89C32022B02D0032B15D026E0BB7B3D
:1020FC00002B0CD0BB7B802B09D0BB7B194678689E
:10210C00FFF714FB80217868FFF710FB1CE039689F
:10211C00786800F0E4FB17E03B685B88002B12D179
:10212C00BB7B03F07F03002B04D0BB7B1946786884
:10213C00FFF71BFB786800F09AFC04E039687868BC
:10214C0000F0CDFB00E000BFAAE07B6893F89C3266
:10215C00022B02D0032B32D097E0BB7B002B07D095
:10216C00BB7B802B04D03968786800F0B8FB91E019
:10217C0097F90E30002B0BDABB7B03F07F02134672
:10218C009B0013449B0010337A68134404330BE018
:10219C00BB7B03F07F0213469B0013449B0003F5AB
:1021AC00A8737A6813440433BB60BB6800221A60BE
:1021BC00BB6802221946786800F0FBFB6AE097F9CD
:1021CC000E30002B11DABB7B03F00F02796813463B
:1021DC009B0013449B000B4418331B68002B17D136
:1021EC003968786800F07BFB54E0BB7B03F00F028E
:1021FC00796813469B0013449B000B4403F5AC73A6
:10220C001B68002B04D13968786800F068FB41E04A
:10221C0097F90E30002B0BDABB7B03F07F021346D1
:10222C009B0013449B0010337A68134404330BE077
:10223C00BB7B03F07F0213469B0013449B0003F50A
:10224C00A8737A6813440433BB60BB7B002B02D0A9
:10225C00BB7B802B03D1BB6800221A600EE0BB7BDA
:10226C0019467868FFF7A0FA0346002B03D0BB6829
:10227C0001221A6002E0BB6800221A60BB680222CD
:10228C001946786800F095FB04E03968786800F02E
:10229C0026FB00BF04E03968786800F020FB00BF23
:1022AC0004E03968786800F01AFB00BFFB7B184625
:1022BC001037BD4680BD000080B584B000AF78609B
:1022CC00396000233B810023FB600023FB723B68D9
:1022DC005B881B0A9BB2013B062B00F2288101A2F2
:1022EC0052F823F00D23000825230008652300086D
:1022FC003B2500083B250008DB24000807250008C7
:10230C007B68D3F8B0321B687A68127C07F108013D
:10231C0010469847F86012E17B681B7C002B0DD1AE
:10232C007B68D3F8B4329B6A07F1080210469847D1
:10233C00F860FB68013302221A7000E17B68D3F865
:10234C00B432DB6A07F1080210469847F860FB6864
:10235C00013302221A70F2E03B685B88DBB2052B7A
:10236C0000F2AC8001A252F823F000BF91230008C8
:10237C00C5230008F92300082D2400086124000857
:10238C00952400087B68D3F8B0325B68002B0BD027
:10239C007B68D3F8B0325B687A68127C07F108016D
:1023AC0010469847F86091E03968786800F097FA21
:1023BC00FB7A0133FB7289E07B68D3F8B0329B68FF
:1023CC00002B0BD07B68D3F8B0329B687A68127CF8
:1023DC0007F1080110469847F86077E0396878688B
:1023EC0000F07DFAFB7A0133FB726FE07B68D3F867
:1023FC00B032DB68002B0BD07B68D3F8B032DB68D3
:10240C007A68127C07F1080110469847F8605DE085
:10241C003968786800F063FAFB7A0133FB7255E097
:10242C007B68D3F8B0321B69002B0BD07B68D3F8D8
:10243C00B0321B697A68127C07F108011046984784
:10244C00F86043E03968786800F049FAFB7A0133A8
:10245C00FB723BE07B68D3F8B0325B69002B0BD08E
:10246C007B68D3F8B0325B697A68127C07F108019B
:10247C0010469847F86029E03968786800F02FFA20
:10248C00FB7A0133FB7221E07B68D3F8B0329B6995
:10249C00002B0BD07B68D3F8B0329B697A68127C26
:1024AC0007F1080110469847F8600FE03968786822
:1024BC0000F015FAFB7A0133FB7207E03968786893
:1024CC0000F00DFAFB7A0133FB7238E037E07B68E1
:1024DC001B7C002B09D17B68D3F8B4325B6B07F102
:1024EC00080210469847F86029E03968786800F0CF
:1024FC00F6F9FB7A0133FB7221E07B681B7C002B25
:10250C000DD17B68D3F8B4321B6B07F1080210466F
:10251C009847F860FB68013307221A700FE039689E
:10252C00786800F0DCF9FB7A0133FB7207E039685C
:10253C00786800F0D4F9FB7A0133FB7200BFFB7AA8
:10254C00002B1CD13B89002B11D03B68DB88002B66
:10255C000DD03B68DA883B89934228BF13469BB267
:10256C003B813B891A46F968786800F022FA3B688F
:10257C00DB88002B04D1786800F079FA00E000BF0A
:10258C001037BD4680BD00BF80B584B000AF786009
:10259C0039603B689B88002B30D13B68DB88002B73
:1025AC002CD13B685B887F2B28D83B685B88DBB2DF
:1025BC0003F07F03FB737B6893F89C32032B04D1ED
:1025CC003968786800F08BF91DE07B68FA7B83F83A
:1025DC009E22FB7B19467868FFF711F9786800F0AA
:1025EC0046FAFB7B002B04D07B68022283F89C22EA
:1025FC0009E07B68012283F89C2204E03968786842
:10260C0000F06DF900BF00BF1037BD4680BD000063
:10261C0080B582B000AF786039603B685B88DAB215
:10262C00414B1A70404B1B78012B04D939687868E0
:10263C0000F055F975E07B6893F89C32022B02D0C0
:10264C00032B23D062E0384B1B78002B1AD0364B6F
:10265C001B781A467B685A607B68032283F89C229D
:10266C00314B1B7819467868FFF7E8F90346022BC3
:10267C0004D13968786800F032F952E0786800F0DB
:10268C00F6F94EE0786800F0F2F94AE0264B1B7838
:10269C00002B12D17B68022283F89C22224B1B78E0
:1026AC001A467B685A60204B1B7819467868FFF7EE
:1026BC00E4F9786800F0DBF933E01B4B1B781A4621
:1026CC007B685B689A421DD07B685B68DBB21946FD
:1026DC007868FFF7D2F9144B1B781A467B685A605E
:1026EC00114B1B7819467868FFF7A8F90346022BA3
:1026FC0004D13968786800F0F2F812E0786800F0DC
:10270C00B6F90EE0786800F0B2F90AE0396878683A
:10271C0000F0E5F8044B1B7819467868FFF7ADF923
:10272C0000BF0837BD4680BD6015002080B582B063
:10273C0000AF786039603B68DB88012B04D03968C6
:10274C00786800F0CCF822E07B6893F89C32022B7E
:10275C0002DC002B03DC15E0032B0BD012E07B68B2
:10276C0000229A607B68083301221946786800F0D1
:10277C0020F90CE07B68043301221946786800F0DC
:10278C0018F904E03968786800F0A9F800BF00BFB8
:10279C000837BD4680BD80B582B000AF7860396027
:1027AC007B6893F89C32013B022B1ED83B68DB887C
:1027BC00022B04D03968786800F091F81AE07B6835
:1027CC000122DA607B68D3F8A432002B05D07B6839
:1027DC00DB6843F002027B68DA607B680C33022210
:1027EC001946786800F0E5F804E03968786800F07C
:1027FC0076F800BF00BF0837BD4680BD80B582B0FB
:10280C0000AF786039603B685B88012B06D17B6830
:10281C000122C3F8A422786800F029F900BF083718
:10282C00BD4680BD80B582B000AF786039607B68F2
:10283C0093F89C32013B022B0BD83B685B88012B35
:10284C000CD17B680022C3F8A422786800F00FF941
:10285C0004E03968786800F042F800E000BF00BF7F
:10286C000837BD4680BD80B483B000AF7860396056
:10287C003B681A787B681A703B685A787B685A7088
:10288C003B6802331B789AB23B6803331B789BB2CC
:10289C001B029BB213449AB27B685A803B68043388
:1028AC001B789AB23B6805331B789BB21B029BB218
:1028BC0013449AB27B689A803B6806331B789AB2B1
:1028CC003B6807331B789BB21B029BB213449AB232
:1028DC007B68DA8000BF0C37BD4680BC704780B582
:1028EC0082B000AF7860396080217868FEF71EFFF7
:1028FC0000217868FEF71AFF00BF0837BD4680BD7F
:10290C0080B586B000AFF860B9607A600023FB75C3
:10291C00FB68002B32D0F86800F034F80346013322
:10292C009BB25B009AB27B681A80FB7D5A1CFA75CD
:10293C001A46BB6813447A6812781A70FB7D5A1CCD
:10294C00FA751A46BB68134403221A7012E0FB682E
:10295C005A1CFA60FA7D511CF9751146BA680A4482
:10296C001B781370FB7D5A1CFA751A46BB6813440E
:10297C0000221A70FB681B78002BE8D100BF1837B7
:10298C00BD4680BD80B485B000AF78600023FB737A
:10299C0005E0FB7B0133FB737B6801337B607B6859
:1029AC001B78002BF5D1FB7B18461437BD4680BC39
:1029BC00704780B584B000AFF860B9601346FB80F7
:1029CC00FB680222C3F89422FA88FB68DA61FA8861
:1029DC00FB681A62FB88BA680021F868FEF72EFFC4
:1029EC00002318461037BD4680BD80B584B000AFBB
:1029FC00F860B9601346FB80FB88BA680021F86860
:102A0C00FEF71CFF002318461037BD4680BD80B56D
:102A1C0084B000AFF860B9601346FB80FB680322FA
:102A2C00C3F89422FA88FB68C3F85C21FA88FB6827
:102A3C00C3F86021FB88BA680021F868FEF721FF13
:102A4C00002318461037BD4680BD80B584B000AF5A
:102A5C00F860B9601346FB80FB88BA680021F868FF
:102A6C00FEF70FFF002318461037BD4680BD80B51A
:102A7C0082B000AF78607B680422C3F894220023F4
:102A8C00002200217868FEF7D9FE0023184608378B
:102A9C00BD4680BD80B582B000AF78607B680522F2
:102AAC00C3F894220023002200217868FEF7E9FE87
:102ABC00002318460837BD4680BD80B584B000AFF2
:102ACC0078600B46FB700023FB737B681B7C002B30
:102ADC0015D14FF40073022281217868FEF7E1FDD5
:102AEC007B680122DA624FF40073022201217868BC
:102AFC00FEF7D7FD7B680122C3F86C2112E040235E
:102B0C00022281217868FEF7CCFD7B680122DA6213
:102B1C004023022201217868FEF7C3FD7B68012265
:102B2C00C3F86C210823032282217868FEF7B9FDD3
:102B3C007B6801221A644FF40770FEF7D9FE024637
:102B4C007B68C3F8B8227B68D3F8B832002B02D16B
:102B5C000123FB7326E07B68D3F8B832BB607B683B
:102B6C00D3F8BC321B689847BB680022C3F8142208
:102B7C00BB680022C3F818227B681B7C002B09D190
:102B8C00BB68D3F804224FF4007301217868FEF778
:102B9C0078FE07E0BB68D3F8042240230121786853
:102BAC00FEF76FFEFB7B18461037BD4680BD80B527
:102BBC0084B000AF78600B46FB700023FB7381215F
:102BCC007868FEF794FD7B680022DA620121786850
:102BDC00FEF78DFD7B680022C3F86C21822178689A
:102BEC00FEF785FD7B6800221A647B68D3F8B83247
:102BFC00002B0ED07B68D3F8BC325B6898477B689F
:102C0C00D3F8B8321846FEF77FFE7B680022C3F873
:102C1C00B822FB7B18461037BD4680BD80B586B008
:102C2C0000AF786039607B68D3F8B8323B61002321
:102C3C00FB730023BB810023FB753B681B7803F0FF
:102C4C006003002B39D0202B7FD13B68DB88002B15
:102C5C0029D03B681B785BB2002B11DA7B68D3F868
:102C6C00BC329B683A68507839693A68D288984780
:102C7C0039693B68DB881A467868FFF79AFE6BE087
:102C8C003B685A783B6983F800223B68DB88DAB2F0
:102C9C003B6983F8012239693B68DB881A467868FE
:102CAC00FFF7B5FE58E07B68D3F8BC329B683A68F6
:102CBC0050780022396898474EE03B685B780B2BC4
:102CCC002ED00B2B38DC002B02D00A2B14D033E087
:102CDC007B6893F89C32032B07D107F10C0302227B
:102CEC0019467868FFF765FE2EE039687868FFF7BB
:102CFC00F6FD0223FB7527E07B6893F89C32032BCF
:102D0C0007D107F10F03012219467868FFF751FE2E
:102D1C001AE039687868FFF7E2FD0223FB7513E0CF
:102D2C007B6893F89C32032B0DD039687868FFF7D9
:102D3C00D6FD0223FB7506E039687868FFF7CFFDF6
:102D4C000223FB7500E000BF06E039687868FFF7E6
:102D5C00C6FD0223FB7500BFFB7D18461837BD4628
:102D6C0080BD80B584B000AF78600B46FB707B688B
:102D7C00D3F8B832FB607B68D3F8C032BB607B6899
:102D8C00D3F8B832002B3AD0FA78796813469B0006
:102D9C0013449B000B441C331B68002B29D0FA787E
:102DAC00796813469B0013449B000B441C331A6830
:102DBC00F978B8680B469B000B44DB0003442033C6
:102DCC001B68B2FBF3F101FB03F3D31A002B10D1F8
:102DDC00FA78796813469B0013449B000B441C3310
:102DEC0000221A60F978002300227868FEF726FD8D
:102DFC0003E0FB680022C3F81422002300E0022346
:102E0C0018461037BD4680BD80B584B000AF7860E1
:102E1C000B46FB707B68D3F8B832FB60FB78194625
:102E2C007868FEF751FD0246FB68C3F80C227B68FC
:102E3C00D3F8B832002B0DD07B68D3F8BC32DB68EA
:102E4C00FA68D2F80402FA6802F503721146984740
:102E5C00002300E0022318461037BD4680BD80B524
:102E6C0084B000AF78607B68D3F8B832FB607B68C5
:102E7C00D3F8BC32002B15D0FB6893F80032FF2B33
:102E8C0010D07B68D3F8BC329B68FA6892F80002C9
:102E9C00F968FA6892F8012292B29847FB68FF220F
:102EAC0083F80022002318461037BD4680BD000071
:102EBC0080B483B000AF78607B6843221A80034BE8
:102ECC0018460C37BD4680BC704700BFF40000208C
:102EDC0080B483B000AF78607B6843221A80034BC8
:102EEC0018460C37BD4680BC704700BFB0000020B0
:102EFC0080B483B000AF78607B6843221A80034BA8
:102F0C0018460C37BD4680BC704700BF3801002006
:102F1C0080B483B000AF78607B680A221A80034BC0
:102F2C0018460C37BD4680BC704700BF6C000020B3
:102F3C0080B485B000AF786039600223FB733B68C6
:102F4C00002B05D07B683A68C3F8BC220023FB73C6
:102F5C00FB7B18461437BD4680BC704780B487B0E5
:102F6C0000AFF860B9601346FB80FB68D3F8B83249
:102F7C007B617B69BA68C3F80822FA887B69C3F85D
:102F8C001022002318461C37BD4680BC704780B405
:102F9C0085B000AF786039607B68D3F8B832FB60DD
:102FAC00FB683A68C3F80422002318461437BD4660
:102FBC0080BC704780B584B000AF78607B68D3F874
:102FCC00B832FB607B68D3F8B832002B1CD0FB689E
:102FDC00D3F81432002B15D1FB680122C3F814224C
:102FEC00FB68D3F810227B681A63FB68D3F80822BD
:102FFC00FB68D3F810329BB281217868FEF71EFC77
:10300C00002302E0012300E0022318461037BD46DE
:10301C0080BD80B584B000AF78607B68D3F8B832DF
:10302C00FB607B68D3F8B832002B17D07B681B7C15
:10303C00002B09D1FB68D3F804224FF40073012153
:10304C007868FEF71EFC07E0FB68D3F804224023E7
:10305C0001217868FEF715FC002300E002231846D6
:10306C001037BD4680BD000080B586B000AF7860DB
:10307C00144A154BD31A7B617B693B61134B1B685C
:10308C00002B02D1114B124A1A60104B1A687B6844
:10309C0013443A699A4207D206F0B0FD03460C225B
:1030AC001A604FF0FF3309E0084B1B68FB60074BBD
:1030BC001A687B681344054A1360FB681846183776
:1030CC00BD4680BD005000200004000064150020A7
:1030DC00A815002080B584B000AF78607B68002B09
:1030EC0001D10123E8E07B6893F89132DBB2002B2D
:1030FC0006D17B68002283F890227868FEF792F95B
:10310C007B68032283F891227B6800225A717B68CA
:10311C001B68184601F062FD7B6818687B680433F5
:10312C000ECB01F038FD0346002B05D07B68022244
:10313C0083F891220123BFE07B681B6800211846AD
:10314C0001F066FD0346002B05D07B68022283F854
:10315C0091220123B0E00023FB733EE0FA7B7968F7
:10316C0013469B001344DB000B44113301221A70ED
:10317C00FA7B796813469B001344DB000B44103335
:10318C00FA7B1A70FA7B796813469B001344DB00B8
:10319C000B44133300221A70FA7B796813469B0098
:1031AC001344DB000B44203300221A60FA7B79684D
:1031BC0013469B001344DB000B44243300221A609B
:1031CC00FB7B79685A1C13469B001344DB000B44B1
:1031DC0000221A60FB7B0133FB737B681B79FA7B43
:1031EC009A42BBD30023FB7344E0FA7B7968134605
:1031FC009B001344DB000B4403F2511300221A70A2
:10320C00FA7B796813469B001344DB000B4403F5EF
:10321C00A873FA7B1A70FA7B796813469B001344E7
:10322C00DB000B4403F2531300221A70FA7B79680B
:10323C0013469B001344DB000B4403F5B0730022D0
:10324C001A60FA7B796813469B001344DB000B442D
:10325C0003F5B27300221A60FA7B796813469B005F
:10326C001344DB000B4403F5B47300221A60FB7BA0
:10327C000133FB737B681B79FA7B9A42B5D37B686D
:10328C0018687B6804330ECB01F0CEFC0346002B90
:10329C0005D07B68022283F8912201230CE07B6825
:1032AC0000225A737B68012283F891227B681B6889
:1032BC00184603F04EFF002318461037BD4680BD5C
:1032CC0080B582B000AF78607B6893F89032012BA8
:1032DC0001D1022316E07B68012283F890227B68DF
:1032EC001B68184601F064FC01217868FEF715FB99
:1032FC007B681B68184603F022FF7B68002283F86A
:10330C009022002318460837BD4680BD80B588B092
:10331C0000AF78607B681B68184603F024FFB86127
:10332C00BB6903F40043002B03D0786800F01AFB50
:10333C0019E1BB6903F48063002B13D07B681B6815
:10334C00B3F844309AB27B681B6822F4806292B264
:10335C00A3F844207868FEF7E8F80021786800F0BC
:10336C0005F900E1BB6903F48043002B0CD07B68AA
:10337C001B68B3F844309AB27B681B6822F4804215
:10338C0092B2A3F84420EEE0BB6903F40053002B87
:10339C000CD07B681B68B3F844309AB27B681B680E
:1033AC0022F4005292B2A3F84420DCE0BB6903F48F
:1033BC008053002B27D07B681B68B3F840309AB23F
:1033CC007B681B6822F0040292B2A3F840207B6851
:1033DC001B68B3F840309AB27B681B6822F0080275
:1033EC0092B2A3F840207868FEF7D8F87B681B6887
:1033FC00B3F844309AB27B681B6822F4805292B2C4
:10340C00A3F84420AFE0BB6903F40063002B00F089
:10341C0083800023FB7710E07B681B681A46FB7FD8
:10342C009B001A44FB7F128892B25B0020333B4412
:10343C0023F8182CFB7F0133FB77FB7F072BEBD991
:10344C007B681B68B3F840309AB27B681B6842F00B
:10345C00010292B2A3F840207B681B68B3F840309D
:10346C009AB27B681B6822F0010292B2A3F840204A
:10347C0000BF7B681B68B3F844309BB203F48063D5
:10348C00002BF6D07B681B68B3F844309AB27B688B
:10349C001B6822F4806292B2A3F844200023FB77CD
:1034AC000FE0FB7F7A6812681146FA7F92000A449B
:1034BC005B0020333B4433F8183C1380FB7F013313
:1034CC00FB77FB7F072BECD97B681B68B3F840308C
:1034DC009AB27B681B6842F0080292B2A3F84020B3
:1034EC007B681B68B3F844309AB27B681B6822F483
:1034FC00006292B2A3F844207B681B68B3F840309A
:10350C009AB27B681B6842F0040292B2A3F8402086
:10351C007868FEF729F826E0BB6903F40073002BEA
:10352C000FD07B681B68B3F844309AB27B681B6879
:10353C0022F4007292B2A3F844207868FDF7E7FFFA
:10354C0011E0BB6903F48073002B0CD07B681B6803
:10355C00B3F844309AB27B681B6822F4807292B242
:10356C00A3F8442000BF2037BD4680BD80B582B093
:10357C0000AF78600B46FB707B6893F89032012BA0
:10358C0001D1022312E07B68012283F890227B6830
:10359C00FA785A737B681B68FA781146184603F060
:1035AC00BBFD7B68002283F8902200231846083765
:1035BC00BD4680BD80B584B000AF7860084611462A
:1035CC001A460346FB700B463B801346BB70002328
:1035DC00FB7297F90330002B0EDAFB7803F007022D
:1035EC0013469B001344DB0010337A681344FB60D2
:1035FC00FB6801225A700EE0FB7803F007021346B9
:10360C009B001344DB0003F5A8737A681344FB603A
:10361C00FB6800225A70FB7803F00703DAB2FB68F0
:10362C001A703A88FB681A61FB68BA78DA70BB7852
:10363C00022B02D1FB6800221A717B6893F890323E
:10364C00012B01D102230EE07B68012283F890222A
:10365C007B681B68F968184601F004FB7B68002244
:10366C0083F89022FB7A18461037BD4680BD80B592
:10367C0084B000AF78600B46FB7097F90330002BD9
:10368C000EDAFB7803F0070213469B001344DB00B1
:10369C0010337A681344FB60FB6801225A700EE009
:1036AC00FB7803F0070213469B001344DB0003F581
:1036BC00A8737A681344FB60FB6800225A70FB788D
:1036CC0003F00703DAB2FB681A707B6893F8903248
:1036DC00012B01D102230EE07B68012283F890229A
:1036EC007B681B68F968184601F07CFE7B68002239
:1036FC0083F89022002318461037BD4680BD80B554
:10370C0086B000AFF8607A603B600B46FB72FB7AC8
:10371C0003F0070213469B001344DB0003F5A87368
:10372C00FA6813447B617B697A685A617B693A68F1
:10373C009A617B690022DA617B6900225A70FB7AFC
:10374C0003F00703DAB27B691A70FB681B687969AE
:10375C00184602F033F8002318461837BD4680BDD2
:10376C0080B483B000AF78600B46FB70FB7803F03D
:10377C000702796813469B001344DB000B4403F5E6
:10378C00B6731B6818460C37BD4680BC704780B5B5
:10379C0086B000AFF8607A603B600B46FB72FB7A38
:1037AC0003F0070213469B001344DB001033FA6846
:1037BC0013447B617B697A685A617B693A689A61C8
:1037CC007B69012283F824207B693A681A627B6941
:1037DC000022DA617B6901225A70FB7A03F007033D
:1037EC00DAB27B691A70FB681B687969184601F0BC
:1037FC00E5FF002318461837BD4680BD80B584B060
:10380C0000AF78600B46FB70FB7803F007037A6817
:10381C001279934201D901234CE097F90330002B24
:10382C000EDAFB7803F0070213469B001344DB000F
:10383C0010337A681344FB60FB6801225A700CE069
:10384C00FA7813469B001344DB0003F5A8737A68DF
:10385C001344FB60FB6800225A70FB6801229A70CB
:10386C00FB7803F00703DAB2FB681A707B6893F8F5
:10387C009032012B01D102231CE07B68012283F8DA
:10388C0090227B681B68F968184603F048FBFB78AC
:10389C0003F00703002B08D17B681A687B6803F5DB
:1038AC0026731946104603F06DFC7B68002283F8E2
:1038BC009022002318461037BD4680BD80B584B0D9
:1038CC0000AF78600B46FB70FB7803F00F037A684F
:1038DC001279934201D9012340E097F90330002B70
:1038EC000EDAFB7803F0070213469B001344DB004F
:1038FC0010337A681344FB60FB6801225A700EE0A7
:10390C00FB7803F0070213469B001344DB0003F51E
:10391C00A8737A681344FB60FB6800225A70FB683A
:10392C0000229A70FB7803F00703DAB2FB681A7076
:10393C007B6893F89032012B01D102230EE07B6857
:10394C00012283F890227B681B68F968184603F003
:10395C0036FB7B68002283F8902200231846103730
:10396C00BD4680BD80B596B000AF7860BCE37B6887
:10397C001B68B3F84430A7F84E30B7F84E30DBB2C2
:10398C0003F00F0387F84D3097F84D30002B40F0C3
:10399C007681B7F84E3003F01003002B4FD17B68C3
:1039AC001B681B889BB223F4E14323F07003FB815B
:1039BC007B681A68FB896FEA43436FEA53439BB2F7
:1039CC0013807B6810337B657B681B68B3F85030C1
:1039DC009BB21A467B6D1B78DB00134402335B00F1
:1039EC007A681268134403F580631B88C3F30902D9
:1039FC007B6DDA617B6D5A697B6DDB691A447B6D7B
:103A0C005A6100217868FDF768FD7B685B7BDBB24F
:103A1C00002B00F069837B6D9B69002B40F0648365
:103A2C007B685B7BDBB263F07F03DAB27B681B687D
:103A3C0092B2A3F84C207B6800225A7354E37B6843
:103A4C0003F5A8737B657B681B681B88A7F84A3055
:103A5C00B7F84A3003F40063002B34D07B681B6842
:103A6C00B3F850309BB21A467B6D1B78DB001344C5
:103A7C0006335B007A681268134403F580631B8875
:103A8C00C3F309027B6DDA617B6818687B6803F508
:103A9C0026717B6DDA887B6DDB699BB203F0C2FB10
:103AAC007B681B681B889AB240F68F7313403B826D
:103ABC007B681B683A8A42F0800292B21A8078685E
:103ACC00FDF7DEFC10E3B7F94A30002B80F20C83D3
:103ADC007B681B681B889AB240F68F731340FB837C
:103AEC007B681B68FA8B42F0800292B21A807B686A
:103AFC001B68B3F850309BB21A467B6D1B78DB0009
:103B0C00134406335B007A681268134403F5806330
:103B1C001B88C3F309027B6DDA617B6DDB69002BBB
:103B2C0019D07B6D5B69002B15D07B6818687B6D99
:103B3C0059697B6DDA887B6DDB699BB203F072FB94
:103B4C007B6D5A697B6DDB691A447B6D5A61002170
:103B5C007868FDF7A7FC7B681B681B88A7F84A30C0
:103B6C00B7F84A3003F40063002B40F0BD82B7F87D
:103B7C004A3003F44053B3F5405F00F0B5827B68E4
:103B8C001B68BB617B681B68B3F850309BB21A464C
:103B9C00BB691344BB61BB6903F20C437B617B695A
:103BAC001B889BB2C3F309039AB27B691A807B6DA5
:103BBC001B693E2B1DD97B6D1B695B097B647B6D7F
:103BCC001B6903F01F03002B02D17B6C013B7B6450
:103BDC007B691B889AB27B6C9BB29B029BB2134392
:103BEC009BB26FEA43436FEA53439AB27B691A80E4
:103BFC0026E07B6D1B69002B0AD17B691B889BB26D
:103C0C006FEA43436FEA53439AB27B691A8017E019
:103C1C007B6D1B695B087B647B6D1B6903F0010387
:103C2C00002B02D07B6C01337B647B691B889AB2BE
:103C3C007B6C9BB29B029BB213439AB27B691A803A
:103C4C007B681B681B889BB223F4804323F07003B2
:103C5C007B827B8A83F480537B827B8A83F4005340
:103C6C007B827B681A687B8A43F07F4343F47F0333
:103C7C0043F4004343F080039BB2138034E27B682F
:103C8C001B681A4697F84D309B0013441B88A7F805
:103C9C004A30B7F94A30002B80F2FC807B681B68F5
:103CAC001A4697F84D309B0013441B889AB240F685
:103CBC008F731340A7F848307B681B681A4697F837
:103CCC004D309B001344B7F8482042F0800292B26A
:103CDC001A8097F84D2013469B001344DB0003F524
:103CEC00A8737A6813447B657B6D1B7B002B25D1F5
:103CFC007B681B68B3F850309BB21A467B6D1B78FF
:103D0C00DB00134406335B007A681268134403F536
:103D1C0080631B88C3F30903A7F85030B7F8503001
:103D2C00002B00F092807B6818687B6D59697B6D65
:103D3C00DA88B7F8503003F075FA86E07B6DDB78E3
:103D4C00022B0AD1B7F84A301A46796D786800F020
:103D5C00D9F90346A7F8503077E07B681B681A4600
:103D6C007B6D1B789B0013441B889BB223F4E043B0
:103D7C0023F07003A7F852307B681B681A467B6DE2
:103D8C001B789B001A44B7F8523043F07F4343F43E
:103D9C007F0343F4004343F0C0039BB213807B6862
:103DAC001B681A467B6D1B789B0013441B889BB2C7
:103DBC0003F48043002B24D07B681B68B3F850308D
:103DCC009BB21A467B6D1B78DB00134402335B00FD
:103DDC007A681268134403F580631B88C3F30903E4
:103DEC00A7F85030B7F85030002B2ED07B681868ED
:103DFC007B6D59697B6D1A89B7F8503003F012FA54
:103E0C0023E07B681B68B3F850309BB21A467B6D7D
:103E1C001B78DB00134406335B007A68126813448A
:103E2C0003F580631B88C3F30903A7F85030B7F878
:103E3C005030002B09D07B6818687B6D59697B6DFD
:103E4C005A89B7F8503003F0EDF97B6DDA69B7F8A1
:103E5C0050301A447B6DDA617B6D5A69B7F850307B
:103E6C001A447B6D5A617B6D9B69002B05D0B7F8AA
:103E7C0050207B6D1B699A4206D27B6D1B781946CC
:103E8C007868FDF70FFB05E07B681B68796D1846B9
:103E9C0001F094FCB7F84A3003F08003002B00F0DB
:103EAC00238197F84D2013469B001344DB001033FD
:103EBC007A6813447B657B681B681A4697F84D300B
:103ECC009B0013441B889BB223F4E14323F0700343
:103EDC00A7F842307B681B681A4697F84D309B0058
:103EEC001A44B7F842306FEA43436FEA53439BB22C
:103EFC0013807B6DDB78012B40F0A2807B6D002260
:103F0C009A617B6D1B7B002B00F09380B7F84A30D5
:103F1C0003F04003002B46D07B6D5B78002B26D141
:103F2C007B681B687B627B681B68B3F850309BB264
:103F3C001A467B6A13447B627B6D1B781A017B6A81
:103F4C00134403F204433B623B6A1B889BB2C3F3EA
:103F5C0009039AB23B6A1A803B6A1B889BB26FEAD0
:103F6C0043436FEA53439AB23B6A1A8061E07B6D1C
:103F7C005B78012B5DD17B681B68FB627B681B68DF
:103F8C00B3F850309BB21A46FB6A1344FB627B6D4C
:103F9C001B781A01FB6A134403F20443BB62BB6A2D
:103FAC0000221A8045E07B681B68FB637B6D5B78A5
:103FBC00002B26D17B681B687B637B681B68B3F87E
:103FCC0050309BB21A467B6B13447B637B6D1B7822
:103FDC001A017B6B134403F20C433B633B6B1B8852
:103FEC009BB2C3F309039AB23B6B1A803B6B1B88E1
:103FFC009BB26FEA43436FEA53439AB23B6B1A800E
:10400C0017E07B6D5B78012B13D17B681B68B3F8D1
:10401C0050309BB21A46FB6B1344FB637B6D1B78D1
:10402C001A01FB6B134403F20C43BB63BB6B002202
:10403C001A807B6D1B7819467868FDF74EFA53E0B1
:10404C00B7F84A3003F48073002B46D17B681B68A9
:10405C00B3F850309BB21A467B6D1B78DB001344CF
:10406C0002335B007A681268134403F580631B8883
:10407C00C3F30903A7F840307B6D9A69B7F8403059
:10408C009A4207D97B6D9A69B7F84030D21A7B6D8A
:10409C009A6102E07B6D00229A617B6D9B69002B1B
:1040AC0006D17B6D1B7819467868FDF716FA1BE074
:1040BC007B6D5A69B7F840301A447B6D5A617B6D41
:1040CC00DA69B7F840301A447B6DDA617B681B689B
:1040DC00796D184601F072FB06E0B7F84A301A46C3
:1040EC00796D786800F01BF97B681B68B3F8443075
:1040FC009BB21BB2002BFFF63AAC00231846583784
:10410C00BD4680BD80B588B000AFF860B96013467D
:10411C00FB80FB8803F48043002B7ED0FB681B687C
:10412C00B3F850309BB21A46BB681B78DB001344C3
:10413C0002335B00FA681268134403F580631B8832
:10414C00C3F309037B83BB689A697B8B9A4206D3C2
:10415C00BB689A697B8BD21ABB689A6102E0BB6818
:10416C0000229A61BB689B69002B23D1FB681B68FA
:10417C001A46BB681B789B0013441B889BB223F424
:10418C00804323F070033B833B8B83F400533B83CE
:10419C00FB681B681A46BB681B789B001A443B8B58
:1041AC0043F07F4343F47F0343F4004343F0800325
:1041BC009BB21380FB8803F04003002B1FD0FB68DD
:1041CC001B681A46BB681B789B0013441B889BB268
:1041DC0023F4E04323F07003FB82FB681B681A4650
:1041EC00BB681B789B001A44FB8A43F07F4343F463
:1041FC007F0343F4004343F0C0039BB213807B8BDB
:10420C00002B00F08780FB681868BB685969BB6895
:10421C001A897B8B03F006F87CE0FB681B68B3F80B
:10422C0050309BB21A46BB681B78DB001344063334
:10423C005B00FA681268134403F580631B88C3F3B0
:10424C0009037B83BB689A697B8B9A4206D3BB6854
:10425C009A697B8BD21ABB689A6102E0BB68002218
:10426C009A61BB689B69002B23D1FB681B681A46BB
:10427C00BB681B789B0013441B889BB223F48043C0
:10428C0023F07003FB83FB8B83F40053FB83FB68ED
:10429C001B681A46BB681B789B001A44FB8B43F0C7
:1042AC007F4343F47F0343F4004343F080039BB20A
:1042BC001380FB8803F04003002B1FD1FB681B68A5
:1042CC001A46BB681B789B0013441B889BB223F4D3
:1042DC00E04323F07003BB83FB681B681A46BB6882
:1042EC001B789B001A44BB8B43F07F4343F47F0342
:1042FC0043F4004343F0C0039BB213807B8B002B31
:10430C0008D0FB681868BB685969BB685A897B8BF5
:10431C0002F088FF7B8B18462037BD4680BD80B5E8
:10432C00A4B000AFF860B9601346FB80FB8803F0C3
:10433C004003002B00F0DD81FB681B68B3F85030A4
:10434C009BB21A46BB681B78DB00134402335B003C
:10435C00FA681268134403F580631B88C3F30903DE
:10436C00A7F88630BB689A69B7F886309A4207D9A5
:10437C00BB689A69B7F88630D21ABB689A6102E0BA
:10438C00BB6800229A61BB689B69002B40F0B98026
:10439C00BB685B78002B26D1FB681B68FB62FB6853
:1043AC001B68B3F850309BB21A46FB6A1344FB628D
:1043BC00BB681B781A01FB6A134403F20443BB620B
:1043CC00BB6A1B889BB2C3F309039AB2BB6A1A80FF
:1043DC00BB6A1B889BB26FEA43436FEA53439AB2A2
:1043EC00BB6A1A801AE0BB685B78012B16D1FB689C
:1043FC001B687B63FB681B68B3F850309BB21A4692
:10440C007B6B13447B63BB681B781A017B6B134477
:10441C0003F204433B633B6B00221A80FB681B686E
:10442C007B62BB685B78002B26D1FB681B68FB6149
:10443C00FB681B68B3F850309BB21A46FB691344F7
:10444C00FB61BB681B781A01FB69134403F20C4334
:10445C00BB61BB691B889BB2C3F309039AB2BB69EE
:10446C001A80BB691B889BB26FEA43436FEA5343C4
:10447C009AB2BB691A8017E0BB685B78012B13D129
:10448C00FB681B68B3F850309BB21A467B6A134426
:10449C007B62BB681B781A017B6A134403F20C43E2
:1044AC003B623B6A00221A80BB681B781946F8688D
:1044BC00FDF713F8FB8803F48043002B00F0FC821B
:1044CC00FB681B681A46BB681B789B0013441B884F
:1044DC009BB223F4E04323F07003FB82FB681B6860
:1044EC001A46BB681B789B001A44FB8A43F07F4337
:1044FC0043F47F0343F4404343F080039BB21380A7
:10450C00DAE2FB8803F48043002B21D0FB681B68A4
:10451C001A46BB681B789B0013441B889BB223F480
:10452C00E04323F07003A7F88A30FB681B681A4637
:10453C00BB681B789B001A44B7F88A3043F07F4362
:10454C0043F47F0343F4404343F080039BB2138056
:10455C00BB6893F82430012B40F0AE82BB685A69DB
:10456C00B7F886301A44BB685A61BB68DA69B7F889
:10457C0086301A44BB68DA61BB681A6ABB681B696F
:10458C009A420BD3BB681B69C7F88C30BB681A6A9C
:10459C00D7F88C30D21ABB681A6217E0BB681B6A5A
:1045AC00002B08D1B7F88630C7F88C30BB680022D6
:1045BC0083F824200AE0BB68002283F82420BB681F
:1045CC001B6AC7F88C30BB6800221A62BB685B7828
:1045DC00002B65D1FB681B68FB63FB681B68B3F899
:1045EC0050309BB21A46FB6B1344FB63BB681B78C1
:1045FC001A01FB6B134403F20443BB63BB6B1B88B4
:10460C009BB2C3F309039AB2BB6B1A80D7F88C30F8
:10461C003E2B1DD9D7F88C305B09BB64D7F88C3096
:10462C0003F01F03002B02D1BB6C013BBB64BB6BC3
:10463C001B889AB2BB6C9BB29B029BB213439BB27E
:10464C006FEA43436FEA53439AB2BB6B1A8044E060
:10465C00D7F88C30002B0AD1BB6B1B889BB26FEA4E
:10466C0043436FEA53439AB2BB6B1A8035E0D7F8D9
:10467C008C305B08BB64D7F88C3003F00103002B43
:10468C0002D0BB6C0133BB64BB6B1B889AB2BB6C96
:10469C009BB29B029BB213439AB2BB6B1A801CE079
:1046AC00BB685B78012B18D1FB681B687B64FB68CB
:1046BC001B68B3F850309BB21A467B6C13447B6476
:1046CC00BB681B781A017B6C134403F204433B64F4
:1046DC00D7F88C309AB23B6C1A80FB681868BB68B0
:1046EC005969BB681A89D7F88C309BB202F055FD1A
:1046FC00E2E1FB681B68B3F850309BB21A46BB680A
:10470C001B78DB00134406335B00FA681268134411
:10471C0003F580631B88C3F30903A7F88630BB68D5
:10472C009A69B7F886309A4207D3BB689A69B7F88A
:10473C008630D21ABB689A6102E0BB6800229A618B
:10474C00BB689B69002B40F0C080BB685B78002B7A
:10475C0026D1FB681B68FB67FB681B68B3F85030FD
:10476C009BB21A46FB6F1344FB67BB681B781A019C
:10477C00FB6F134403F20443BB67BB6F1B889BB2F4
:10478C00C3F309039AB2BB6F1A80BB6F1B889BB231
:10479C006FEA43436FEA53439AB2BB6F1A801AE035
:1047AC00BB685B78012B16D1FB681B687B66FB68CA
:1047BC001B68B3F850309BB21A467B6E13447B6671
:1047CC00BB681B781A017B6E134403F204433B66EF
:1047DC003B6E00221A80FB681B687B67BB685B78AA
:1047EC00002B2BD1FB681B68FB66FB681B68B3F8BE
:1047FC0050309BB21A46FB6E1344FB66BB681B78A9
:10480C001A01FB6E134403F20C43C7F88030D7F83F
:10481C0080301B889BB2C3F309039AB2D7F880305F
:10482C001A80D7F880301B889BB26FEA43436FEA3B
:10483C0053439AB2D7F880301A8017E0BB685B7884
:10484C00012B13D1FB681B68B3F850309BB21A468E
:10485C007B6F13447B67BB681B781A017B6F134417
:10486C0003F20C433B673B6F00221A80BB681B783A
:10487C001946F868FCF731FEFB8803F48043002BE3
:10488C0040F01A81FB681B681A46BB681B789B00BA
:10489C0013441B889BB223F4E04323F07003A7F866
:1048AC008830FB681B681A46BB681B789B001A444F
:1048BC00B7F8883043F07F4343F47F0343F440431D
:1048CC0043F080039BB21380F6E0FB8803F4804333
:1048DC00002B21D1FB681B681A46BB681B789B0018
:1048EC0013441B889BB223F4E04323F07003A7F816
:1048FC004E30FB681B681A46BB681B789B001A4439
:10490C00B7F84E3043F07F4343F47F0343F4404306
:10491C0043F080039BB21380BB6893F82430012BC7
:10492C0040F0CA80BB685A69B7F886301A44BB6835
:10493C005A61BB68DA69B7F886301A44BB68DA6129
:10494C00BB681A6ABB681B699A420BD3BB681B69AC
:10495C00C7F88C30BB681A6AD7F88C30D21ABB688F
:10496C001A6217E0BB681B6A002B08D1B7F88630B7
:10497C00C7F88C30BB68002283F824200AE0BB689F
:10498C001B6AC7F88C30BB6800221A62BB68002215
:10499C0083F82420FB681B687B65BB685B78002B65
:1049AC0065D1FB681B68FB65FB681B68B3F850306E
:1049BC009BB21A46FB6D1344FB65BB681B781A014E
:1049CC00FB6D134403F20C43BB65BB6D1B889BB2A0
:1049DC00C3F309039AB2BB6D1A80D7F88C303E2B07
:1049EC001DD9D7F88C305B09BB66D7F88C3003F037
:1049FC001F03002B02D1BB6E013BBB66BB6D1B883A
:104A0C009AB2BB6E9BB29B029BB213439BB26FEAF2
:104A1C0043436FEA53439AB2BB6D1A8041E0D7F817
:104A2C008C30002B0AD1BB6D1B889BB26FEA4343C1
:104A3C006FEA53439AB2BB6D1A8032E0D7F88C30D0
:104A4C005B08BB66D7F88C3003F00103002B02D057
:104A5C00BB6E0133BB66BB6D1B889AB2BB6E9BB23F
:104A6C009B029BB213439AB2BB6D1A8019E0BB68D0
:104A7C005B78012B15D1FB681B68B3F850309BB2E7
:104A8C001A467B6D13447B65BB681B781A017B6DE2
:104A9C00134403F20C433B65D7F88C309AB23B6D50
:104AAC001A80FB681868BB685969BB685A89D7F8C3
:104ABC008C309BB202F071FBFB681B681A46BB681A
:104ACC001B789B0013441B889BB223F4E04323F018
:104ADC004003BB82BB8A83F01003BB82BB8A83F08A
:104AEC002003BB82FB681B681A46BB681B789B00C3
:104AFC001A44BB8A43F07F4343F47F0343F40043DF
:104B0C0043F080039BB21380002318469037BD46B8
:104B1C0080BD80B487B000AFF8607B600B467B81B2
:104B2C0013463B817B8903F080039BB2002B0BD097
:104B3C007B8903F0070213469B001344DB00103300
:104B4C00FA6813447B6109E07A8913469B0013448D
:104B5C00DB0003F5A873FA6813447B613B89002BD7
:104B6C0007D17B6900221A737B689AB27B69DA8061
:104B7C000BE07B6901221A737B689AB27B691A81FC
:104B8C007B681B0C9AB27B695A81002318461C3730
:104B9C00BD4680BC704780B485B000AFF860384625
:104BAC0080E80E00002318461437BD4680BC7047C1
:104BBC0080B485B000AF78607B680022A3F84420F5
:104BCC004FF43F43FB60FB689AB27B68A3F840202C
:104BDC00002318461437BD4680BC704780B485B09E
:104BEC0000AF78604FF43F43FB607B68B3F8403014
:104BFC009AB2FB689BB2DB439BB213409AB27B68C0
:104C0C00A3F84020002318461437BD4680BC7047DB
:104C1C0080B483B000AF78600B46FB70002318465D
:104C2C000C37BD4680BC704780B485B000AFF860CF
:104C3C00384680E80E00FB680122A3F84020FB6890
:104C4C000022A3F84020FB680022A3F84420FB6854
:104C5C000022A3F85020002318461437BD4680BC10
:104C6C007047000080B49DB000AF786039600023BD
:104C7C0087F86F307A683B681B789B0013441B885D
:104C8C009BB223F4EC4323F07003A7F86C303B6821
:104C9C00DB78032B1FD801A252F823F0B94C000883
:104CAC00D54C0008EB4C0008C74C0008B7F86C302A
:104CBC0043F40073A7F86C3012E0B7F86C3043F48F
:104CCC00C063A7F86C300BE0B7F86C3043F480632A
:104CDC00A7F86C3004E0012387F86F3000E000BFC8
:104CEC007A683B681B789B001A44B7F86C3043F029
:104CFC007F4343F47F0343F4004343F080039BB2B0
:104D0C0013807A683B681B789B0013441B889BB20A
:104D1C0023F4E04323F070039AB23B681B789BB2F8
:104D2C001343A7F866307A683B681B789B001A44DB
:104D3C00B7F8663043F07F4343F47F0343F40043FA
:104D4C0043F080039BB213803B681B7B002B40F02D
:104D5C0078813B685B78002B00F084807B68BB61BA
:104D6C007B68B3F850309BB21A46BB691344BB61E5
:104D7C003B681B781A01BB69134403F580637B61A4
:104D8C003B68DB885B089BB25B009AB27B691A803C
:104D9C007A683B681B789B0013441B887B827B8A58
:104DAC0003F04003002B1BD07A683B681B789B00F8
:104DBC0013441B889BB223F4E04323F070033B8223
:104DCC007A683B681B789B001A443B8A43F07F430C
:104DDC0043F47F0343F4004343F0C0039BB21380BE
:104DEC003B68DB78012B20D07A683B681B789B00F2
:104DFC0013441B889BB223F4E04323F04003BB8194
:104E0C00BB8983F02003BB817A683B681B789B00CD
:104E1C001A44BB8943F07F4343F47F0343F40043BC
:104E2C0043F080039BB21380D5E27A683B681B7811
:104E3C009B0013441B889BB223F4E04323F04003F4
:104E4C00FB817A683B681B789B001A44FB8943F012
:104E5C007F4343F47F0343F4004343F080039BB24E
:104E6C001380B8E27B683B637B68B3F850309BB22D
:104E7C001A463B6B13443B633B681B781A013B6B34
:104E8C00134403F58163FB623B68DB885B089BB2D0
:104E9C005B009AB2FB6A1A807B68BB627B68B3F8D2
:104EAC0050309BB21A46BB6A1344BB623B681B78FA
:104EBC001A01BB6A134403F20C437B627B6A1B88A6
:104ECC009BB2C3F309039AB27B6A1A803B681B69D5
:104EDC003E2B1DD93B681B695B09BB663B681B6994
:104EEC0003F01F03002B02D1BB6E013BBB667B6A38
:104EFC001B889AB2BB6E9BB29B029BB213439BB2B4
:104F0C006FEA43436FEA53439AB27B6A1A8026E0F6
:104F1C003B681B69002B0AD17B6A1B889BB26FEA2A
:104F2C0043436FEA53439AB27B6A1A8017E03B689B
:104F3C001B695B08BB663B681B6903F00103002B14
:104F4C0002D0BB6E0133BB667B6A1B889AB2BB6E08
:104F5C009BB29B029BB213439AB27B6A1A807A680B
:104F6C003B681B789B0013441B887B847B8C03F46D
:104F7C008043002B1BD07A683B681B789B00134442
:104F8C001B889BB223F4E04323F070033B847A68C4
:104F9C003B681B789B001A443B8C43F07F4343F4E3
:104FAC007F0343F4404343F080039BB213803B6880
:104FBC001B78002B24D17A683B681B789B00134428
:104FCC001B889BB223F4804323F07003BB83BB8B01
:104FDC0083F48053BB83BB8B83F40053BB837A680D
:104FEC003B681B789B001A44BB8B43F07F4343F414
:104FFC007F0343F4004343F080039BB21380EAE148
:10500C007A683B681B789B0013441B889BB223F483
:10501C00804323F07003FB83FB8B83F40053FB83EF
:10502C007A683B681B789B001A44FB8B43F07F43E8
:10503C0043F47F0343F4004343F080039BB213809B
:10504C00C9E13B68DB78022B1ED17A683B681B7880
:10505C009B0013441B889BB223F4E04323F07003A2
:10506C00A7F862307A683B681B789B001A44B7F843
:10507C00623043F07F4343F47F0343F4014343F036
:10508C0080039BB213801DE07A683B681B789B0001
:10509C0013441B889BB223F4E24323F07003A7F85C
:1050AC0064307A683B681B789B001A44B7F864300C
:1050BC0043F07F4343F47F0343F4004343F0800306
:1050CC009BB213807B68FB657B68B3F850309BB256
:1050DC001A46FB6D1344FB653B681B781A01FB6D8C
:1050EC00134403F58063BB653B681B895B089BB26B
:1050FC005B009AB2BB6D1A807B687B657B68B3F8EA
:10510C0050309BB21A467B6D13447B653B681B7811
:10511C001A017B6D134403F581633B653B685B8926
:10512C005B089BB25B009AB23B6D1A803B685B7864
:10513C00002B40F093807A683B681B789B001344EB
:10514C001B88A7F84030B7F8403003F48043002B9D
:10515C001BD07A683B681B789B0013441B889BB25E
:10516C0023F4E04323F07003FB877A683B681B78D9
:10517C009B001A44FB8F43F07F4343F47F0343F4BB
:10518C00404343F080039BB213807A683B681B78E2
:10519C009B0013441B88BB87BB8F03F04003002B81
:1051AC001BD07A683B681B789B0013441B889BB20E
:1051BC0023F4E04323F070037B877A683B681B7809
:1051CC009B001A447B8F43F07F4343F47F0343F4EB
:1051DC00004343F0C0039BB213807A683B681B7892
:1051EC009B0013441B889BB223F4804323F0700371
:1051FC003B873B8F83F480533B873B8F83F4005377
:10520C003B877A683B681B789B001A443B8F43F0C2
:10521C007F4343F47F0343F4004343F080039BB28A
:10522C0013807A683B681B789B0013441B889BB2E5
:10523C0023F4E04323F04003FB867A683B681B7839
:10524C009B001A44FB8E43F07F4343F47F0343F4EB
:10525C00004343F080039BB21380BCE07A683B6848
:10526C001B789B0013441B88A7F84E30B7F84E30C0
:10527C0003F48043002B1DD07A683B681B789B009D
:10528C0013441B889BB223F4E04323F07003A7F86C
:10529C004C307A683B681B789B001A44B7F84C304A
:1052AC0043F07F4343F47F0343F4404343F08003D4
:1052BC009BB213807A683B681B789B0013441B8855
:1052CC00A7F84A30B7F84A3003F04003002B1DD042
:1052DC007A683B681B789B0013441B889BB223F4B1
:1052EC00E04323F07003A7F848307A683B681B78DA
:1052FC009B001A44B7F8483043F07F4343F47F03D4
:10530C0043F4004343F0C0039BB213803B68DB784B
:10531C00012B24D07A683B681B789B0013441B88B4
:10532C009BB223F4E04323F04003A7F84430B7F8D2
:10533C00443083F02003A7F844307A683B681B782C
:10534C009B001A44B7F8443043F07F4343F47F0387
:10535C0043F4004343F080039BB213801DE07A6852
:10536C003B681B789B0013441B889BB223F4E043DF
:10537C0023F04003A7F846307A683B681B789B0003
:10538C001A44B7F8463043F07F4343F47F0343F4A9
:10539C00004343F080039BB213807A683B681B7810
:1053AC009B0013441B889BB223F4804323F07003AF
:1053BC00A7F842307A683B681B789B001A44B7F810
:1053CC00423043F07F4343F47F0343F4004343F004
:1053DC0080039BB2138097F86F3018467437BD4624
:1053EC0080BC704780B48DB000AF786039603B688A
:1053FC001B7B002B40F08E803B685B78002B44D0ED
:10540C007A683B681B789B0013441B88BB81BB8963
:10541C0003F04003002B1BD07A683B681B789B0081
:10542C0013441B889BB223F4E04323F070037B816D
:10543C007A683B681B789B001A447B8943F07F4356
:10544C0043F47F0343F4004343F0C0039BB2138047
:10545C007A683B681B789B0013441B889BB223F42F
:10546C00E04323F040033B817A683B681B789B0048
:10547C001A443B8943F07F4343F47F0343F40043D6
:10548C0043F080039BB2138092E17A683B681B78EF
:10549C009B0013441B887B827B8A03F48043002B84
:1054AC001BD07A683B681B789B0013441B889BB20B
:1054BC0023F4E04323F070033B827A683B681B784B
:1054CC009B001A443B8A43F07F4343F47F0343F42D
:1054DC00404343F080039BB213807A683B681B788F
:1054EC009B0013441B889BB223F4804323F070036E
:1054FC00FB817A683B681B789B001A44FB8943F05C
:10550C007F4343F47F0343F4004343F080039BB297
:10551C0013804DE13B685B78002B40F0A5807A68E6
:10552C003B681B789B0013441B883B843B8C03F427
:10553C008043002B1BD07A683B681B789B0013447C
:10554C001B889BB223F4E04323F07003FB837A683F
:10555C003B681B789B001A44FB8B43F07F4343F45E
:10556C007F0343F4404343F080039BB213807A687B
:10557C003B681B789B0013441B88BB83BB8B03F0DD
:10558C004003002B1BD07A683B681B789B001344AC
:10559C001B889BB223F4E04323F070037B837A686F
:1055AC003B681B789B001A447B8B43F07F4343F48E
:1055BC007F0343F4004343F0C0039BB213807A682B
:1055CC003B681B789B0013441B889BB223F4E0437D
:1055DC0023F070033B837A683B681B789B001A446A
:1055EC003B8B43F07F4343F47F0343F4004343F08E
:1055FC00C0039BB213807A683B681B789B001344F2
:10560C001B889BB223F4804323F07003FB827A68DF
:10561C003B681B789B001A44FB8A43F07F4343F49E
:10562C007F0343F4004343F080039BB213807A68FA
:10563C003B681B789B0013441B889BB223F4E0430C
:10564C0023F04003BB827A683B681B789B001A44AA
:10565C00BB8A43F07F4343F47F0343F4004343F09E
:10566C0080039BB21380A3E07A683B681B789B0095
:10567C0013441B88FB85FB8D03F48043002B1BD04C
:10568C007A683B681B789B0013441B889BB223F4FD
:10569C00E04323F07003BB857A683B681B789B0062
:1056AC001A44BB8D43F07F4343F47F0343F44043E0
:1056BC0043F080039BB213807A683B681B789B0095
:1056CC0013441B887B857B8D03F04003002B1BD080
:1056DC007A683B681B789B0013441B889BB223F4AD
:1056EC00E04323F070033B857A683B681B789B0092
:1056FC001A443B8D43F07F4343F47F0343F4004350
:10570C0043F0C0039BB213807A683B681B789B0004
:10571C0013441B889BB223F4E04323F07003FB84F7
:10572C007A683B681B789B001A44FB8C43F07F43E0
:10573C0043F47F0343F4404343F080039BB2138054
:10574C007A683B681B789B0013441B889BB223F43C
:10575C00E04323F04003BB847A683B681B789B00D2
:10576C001A44BB8C43F07F4343F47F0343F4004360
:10577C0043F080039BB213807A683B681B789B00D4
:10578C0013441B889BB223F4804323F070037B8467
:10579C007A683B681B789B001A447B8C43F07F43F0
:1057AC0043F47F0343F4004343F080039BB2138024
:1057BC00002318463437BD4680BC704780B5C2B054
:1057CC0000AF07F58473A3F58273186007F5847333
:1057DC00A3F58473196007F58473A3F584731B68B0
:1057EC005B78012B40F0B78607F58473A3F58473BF
:1057FC001B689A6907F58473A3F584731B681B698E
:10580C009A4208D907F58473A3F584731B681B6946
:10581C00C7F8043107E007F58473A3F584731B689C
:10582C009B69C7F8043107F58473A3F584731B686F
:10583C001B7B002B3AD107F58473A3F584731B688B
:10584C00596907F58473A3F584731B68DA88D7F854
:10585C0004319BB207F58470A0F58270006801F0EA
:10586C009CFC07F58473A3F582731B683B6107F5F9
:10587C008473A3F582731B68B3F850309BB21A463D
:10588C003B6913443B6107F58473A3F584731B6870
:10589C001B781A013B69134403F20443FB60D7F8ED
:1058AC0004319AB2FB681A8000F01FBE07F58473AE
:1058BC00A3F584731B68DB78022B40F0628407F538
:1058CC008473A3F584731B681A6A07F58473A3F5B4
:1058DC0084731B681B699A4240F2DF8307F584735B
:1058EC00A3F582731A6807F58473A3F584731B6898
:1058FC001B789B0013441B889BB223F4E04323F0DA
:10590C007003A7F8563007F58473A3F582731A68F1
:10591C0007F58473A3F584731B681B789B001A44EA
:10592C00B7F8563043F07F4343F47F0343F401430D
:10593C0043F080039BB2138007F58473A3F5847343
:10594C001B681A6AD7F80431D21A07F58473A3F5C9
:10595C0084731B681A6207F58473A3F582731A6843
:10596C0007F58473A3F584731B681B789B001344A1
:10597C001B889BB203F04003002B00F0C78107F596
:10598C008473A3F582731B683B6307F58473A3F5DB
:10599C0084731B685B78002B77D107F58473A3F5B0
:1059AC0082731B68BB6207F58473A3F582731B6853
:1059BC00B3F850309BB21A46BB6A1344BB6207F56E
:1059CC008473A3F584731B681B781A01BB6A134498
:1059DC0003F20C437B627B6A1B889BB2C3F3090303
:1059EC009AB27B6A1A80D7F804313E2B21D9D7F8AA
:1059FC0004315B09C7F80031D7F8043103F01F03F9
:105A0C00002B04D1D7F80031013BC7F800317B6A79
:105A1C001B889AB2D7F800319BB29B029BB21343FE
:105A2C009BB26FEA43436FEA53439AB27B6A1A8084
:105A3C0050E0D7F80431002B0AD17B6A1B889BB24B
:105A4C006FEA43436FEA53439AB27B6A1A8041E090
:105A5C00D7F804315B08C7F80031D7F8043103F0EC
:105A6C000103002B04D0D7F800310133C7F8003103
:105A7C007B6A1B889AB2D7F800319BB29B029BB20F
:105A8C0013439AB27B6A1A8024E007F58473A3F55A
:105A9C0084731B685B78012B1CD107F58473A3F509
:105AAC0082731B68B3F850309BB21A463B6B13449D
:105ABC003B6307F58473A3F584731B681B781A0189
:105ACC003B6B134403F20C43FB62D7F804319AB2DC
